{
  "address": "0xF09a1463397D1c866cc3335c1DC51C86d46bFF83",
  "abi": [
    {
      "inputs": [
        {
          "internalType": "string",
          "name": "name",
          "type": "string"
        },
        {
          "internalType": "string",
          "name": "symbol",
          "type": "string"
        },
        {
          "internalType": "uint256",
          "name": "price",
          "type": "uint256"
        },
        {
          "internalType": "uint256",
          "name": "maxTotalMint",
          "type": "uint256"
        },
        {
          "internalType": "uint256",
          "name": "maxPreSaleMintPerAddress",
          "type": "uint256"
        },
        {
          "internalType": "uint256",
          "name": "maxMintPerTransaction",
          "type": "uint256"
        },
        {
          "internalType": "uint256",
          "name": "maxAllowedGasFee",
          "type": "uint256"
        },
        {
          "internalType": "string",
          "name": "contractURI",
          "type": "string"
        },
        {
          "internalType": "string",
          "name": "placeholderURI",
          "type": "string"
        },
        {
          "internalType": "address",
          "name": "raribleRoyaltyAddress",
          "type": "address"
        },
        {
          "internalType": "address",
          "name": "openSeaProxyRegistryAddress",
          "type": "address"
        }
      ],
      "stateMutability": "nonpayable",
      "type": "constructor"
    },
    {
      "anonymous": false,
      "inputs": [
        {
          "indexed": true,
          "internalType": "address",
          "name": "owner",
          "type": "address"
        },
        {
          "indexed": true,
          "internalType": "address",
          "name": "approved",
          "type": "address"
        },
        {
          "indexed": true,
          "internalType": "uint256",
          "name": "tokenId",
          "type": "uint256"
        }
      ],
      "name": "Approval",
      "type": "event"
    },
    {
      "anonymous": false,
      "inputs": [
        {
          "indexed": true,
          "internalType": "address",
          "name": "owner",
          "type": "address"
        },
        {
          "indexed": true,
          "internalType": "address",
          "name": "operator",
          "type": "address"
        },
        {
          "indexed": false,
          "internalType": "bool",
          "name": "approved",
          "type": "bool"
        }
      ],
      "name": "ApprovalForAll",
      "type": "event"
    },
    {
      "anonymous": false,
      "inputs": [
        {
          "indexed": true,
          "internalType": "address",
          "name": "previousOwner",
          "type": "address"
        },
        {
          "indexed": true,
          "internalType": "address",
          "name": "newOwner",
          "type": "address"
        }
      ],
      "name": "OwnershipTransferred",
      "type": "event"
    },
    {
      "anonymous": false,
      "inputs": [
        {
          "indexed": true,
          "internalType": "bytes32",
          "name": "role",
          "type": "bytes32"
        },
        {
          "indexed": true,
          "internalType": "bytes32",
          "name": "previousAdminRole",
          "type": "bytes32"
        },
        {
          "indexed": true,
          "internalType": "bytes32",
          "name": "newAdminRole",
          "type": "bytes32"
        }
      ],
      "name": "RoleAdminChanged",
      "type": "event"
    },
    {
      "anonymous": false,
      "inputs": [
        {
          "indexed": true,
          "internalType": "bytes32",
          "name": "role",
          "type": "bytes32"
        },
        {
          "indexed": true,
          "internalType": "address",
          "name": "account",
          "type": "address"
        },
        {
          "indexed": true,
          "internalType": "address",
          "name": "sender",
          "type": "address"
        }
      ],
      "name": "RoleGranted",
      "type": "event"
    },
    {
      "anonymous": false,
      "inputs": [
        {
          "indexed": true,
          "internalType": "bytes32",
          "name": "role",
          "type": "bytes32"
        },
        {
          "indexed": true,
          "internalType": "address",
          "name": "account",
          "type": "address"
        },
        {
          "indexed": true,
          "internalType": "address",
          "name": "sender",
          "type": "address"
        }
      ],
      "name": "RoleRevoked",
      "type": "event"
    },
    {
      "anonymous": false,
      "inputs": [
        {
          "indexed": true,
          "internalType": "address",
          "name": "from",
          "type": "address"
        },
        {
          "indexed": true,
          "internalType": "address",
          "name": "to",
          "type": "address"
        },
        {
          "indexed": true,
          "internalType": "uint256",
          "name": "tokenId",
          "type": "uint256"
        }
      ],
      "name": "Transfer",
      "type": "event"
    },
    {
      "inputs": [],
      "name": "DEFAULT_ADMIN_ROLE",
      "outputs": [
        {
          "internalType": "bytes32",
          "name": "",
          "type": "bytes32"
        }
      ],
      "stateMutability": "view",
      "type": "function"
    },
    {
      "inputs": [],
      "name": "MAX_ALLOWED_GAS_FEE",
      "outputs": [
        {
          "internalType": "uint256",
          "name": "",
          "type": "uint256"
        }
      ],
      "stateMutability": "view",
      "type": "function"
    },
    {
      "inputs": [],
      "name": "MAX_MINT_PER_TRANSACTION",
      "outputs": [
        {
          "internalType": "uint256",
          "name": "",
          "type": "uint256"
        }
      ],
      "stateMutability": "view",
      "type": "function"
    },
    {
      "inputs": [],
      "name": "MAX_PRE_SALE_MINT_PER_ADDRESS",
      "outputs": [
        {
          "internalType": "uint256",
          "name": "",
          "type": "uint256"
        }
      ],
      "stateMutability": "view",
      "type": "function"
    },
    {
      "inputs": [],
      "name": "MAX_TOTAL_MINT",
      "outputs": [
        {
          "internalType": "uint256",
          "name": "",
          "type": "uint256"
        }
      ],
      "stateMutability": "view",
      "type": "function"
    },
    {
      "inputs": [],
      "name": "MINTER_ROLE",
      "outputs": [
        {
          "internalType": "bytes32",
          "name": "",
          "type": "bytes32"
        }
      ],
      "stateMutability": "view",
      "type": "function"
    },
    {
      "inputs": [],
      "name": "PRICE",
      "outputs": [
        {
          "internalType": "uint256",
          "name": "",
          "type": "uint256"
        }
      ],
      "stateMutability": "view",
      "type": "function"
    },
    {
      "inputs": [
        {
          "internalType": "address[]",
          "name": "addresses",
          "type": "address[]"
        }
      ],
      "name": "addToPreSaleAllowList",
      "outputs": [],
      "stateMutability": "nonpayable",
      "type": "function"
    },
    {
      "inputs": [
        {
          "internalType": "address",
          "name": "to",
          "type": "address"
        },
        {
          "internalType": "uint256",
          "name": "tokenId",
          "type": "uint256"
        }
      ],
      "name": "approve",
      "outputs": [],
      "stateMutability": "nonpayable",
      "type": "function"
    },
    {
      "inputs": [
        {
          "internalType": "address",
          "name": "owner",
          "type": "address"
        }
      ],
      "name": "balanceOf",
      "outputs": [
        {
          "internalType": "uint256",
          "name": "",
          "type": "uint256"
        }
      ],
      "stateMutability": "view",
      "type": "function"
    },
    {
      "inputs": [],
      "name": "contractURI",
      "outputs": [
        {
          "internalType": "string",
          "name": "",
          "type": "string"
        }
      ],
      "stateMutability": "view",
      "type": "function"
    },
    {
      "inputs": [
        {
          "internalType": "uint256",
          "name": "tokenId",
          "type": "uint256"
        }
      ],
      "name": "getApproved",
      "outputs": [
        {
          "internalType": "address",
          "name": "",
          "type": "address"
        }
      ],
      "stateMutability": "view",
      "type": "function"
    },
    {
      "inputs": [
        {
          "internalType": "uint256",
          "name": "id",
          "type": "uint256"
        }
      ],
      "name": "getRaribleV2Royalties",
      "outputs": [
        {
          "components": [
            {
              "internalType": "address payable",
              "name": "account",
              "type": "address"
            },
            {
              "internalType": "uint96",
              "name": "value",
              "type": "uint96"
            }
          ],
          "internalType": "struct LibPart.Part[]",
          "name": "result",
          "type": "tuple[]"
        }
      ],
      "stateMutability": "view",
      "type": "function"
    },
    {
      "inputs": [
        {
          "internalType": "bytes32",
          "name": "role",
          "type": "bytes32"
        }
      ],
      "name": "getRoleAdmin",
      "outputs": [
        {
          "internalType": "bytes32",
          "name": "",
          "type": "bytes32"
        }
      ],
      "stateMutability": "view",
      "type": "function"
    },
    {
      "inputs": [
        {
          "internalType": "bytes32",
          "name": "role",
          "type": "bytes32"
        },
        {
          "internalType": "address",
          "name": "account",
          "type": "address"
        }
      ],
      "name": "grantRole",
      "outputs": [],
      "stateMutability": "nonpayable",
      "type": "function"
    },
    {
      "inputs": [
        {
          "internalType": "bytes32",
          "name": "role",
          "type": "bytes32"
        },
        {
          "internalType": "address",
          "name": "account",
          "type": "address"
        }
      ],
      "name": "hasRole",
      "outputs": [
        {
          "internalType": "bool",
          "name": "",
          "type": "bool"
        }
      ],
      "stateMutability": "view",
      "type": "function"
    },
    {
      "inputs": [
        {
          "internalType": "address",
          "name": "owner",
          "type": "address"
        },
        {
          "internalType": "address",
          "name": "operator",
          "type": "address"
        }
      ],
      "name": "isApprovedForAll",
      "outputs": [
        {
          "internalType": "bool",
          "name": "",
          "type": "bool"
        }
      ],
      "stateMutability": "view",
      "type": "function"
    },
    {
      "inputs": [
        {
          "internalType": "address",
          "name": "to",
          "type": "address"
        },
        {
          "internalType": "uint256",
          "name": "count",
          "type": "uint256"
        }
      ],
      "name": "mint",
      "outputs": [],
      "stateMutability": "nonpayable",
      "type": "function"
    },
    {
      "inputs": [],
      "name": "name",
      "outputs": [
        {
          "internalType": "string",
          "name": "",
          "type": "string"
        }
      ],
      "stateMutability": "view",
      "type": "function"
    },
    {
      "inputs": [
        {
          "internalType": "address",
          "name": "addr",
          "type": "address"
        }
      ],
      "name": "onPreSaleAllowList",
      "outputs": [
        {
          "internalType": "bool",
          "name": "",
          "type": "bool"
        }
      ],
      "stateMutability": "view",
      "type": "function"
    },
    {
      "inputs": [],
      "name": "owner",
      "outputs": [
        {
          "internalType": "address",
          "name": "",
          "type": "address"
        }
      ],
      "stateMutability": "view",
      "type": "function"
    },
    {
      "inputs": [
        {
          "internalType": "uint256",
          "name": "tokenId",
          "type": "uint256"
        }
      ],
      "name": "ownerOf",
      "outputs": [
        {
          "internalType": "address",
          "name": "",
          "type": "address"
        }
      ],
      "stateMutability": "view",
      "type": "function"
    },
    {
      "inputs": [
        {
          "internalType": "uint256",
          "name": "count",
          "type": "uint256"
        }
      ],
      "name": "purchase",
      "outputs": [],
      "stateMutability": "payable",
      "type": "function"
    },
    {
      "inputs": [],
      "name": "renounceOwnership",
      "outputs": [],
      "stateMutability": "nonpayable",
      "type": "function"
    },
    {
      "inputs": [
        {
          "internalType": "bytes32",
          "name": "role",
          "type": "bytes32"
        },
        {
          "internalType": "address",
          "name": "account",
          "type": "address"
        }
      ],
      "name": "renounceRole",
      "outputs": [],
      "stateMutability": "nonpayable",
      "type": "function"
    },
    {
      "inputs": [
        {
          "internalType": "bytes32",
          "name": "role",
          "type": "bytes32"
        },
        {
          "internalType": "address",
          "name": "account",
          "type": "address"
        }
      ],
      "name": "revokeRole",
      "outputs": [],
      "stateMutability": "nonpayable",
      "type": "function"
    },
    {
      "inputs": [
        {
          "internalType": "address",
          "name": "from",
          "type": "address"
        },
        {
          "internalType": "address",
          "name": "to",
          "type": "address"
        },
        {
          "internalType": "uint256",
          "name": "tokenId",
          "type": "uint256"
        }
      ],
      "name": "safeTransferFrom",
      "outputs": [],
      "stateMutability": "nonpayable",
      "type": "function"
    },
    {
      "inputs": [
        {
          "internalType": "address",
          "name": "from",
          "type": "address"
        },
        {
          "internalType": "address",
          "name": "to",
          "type": "address"
        },
        {
          "internalType": "uint256",
          "name": "tokenId",
          "type": "uint256"
        },
        {
          "internalType": "bytes",
          "name": "_data",
          "type": "bytes"
        }
      ],
      "name": "safeTransferFrom",
      "outputs": [],
      "stateMutability": "nonpayable",
      "type": "function"
    },
    {
      "inputs": [
        {
          "internalType": "address",
          "name": "operator",
          "type": "address"
        },
        {
          "internalType": "bool",
          "name": "approved",
          "type": "bool"
        }
      ],
      "name": "setApprovalForAll",
      "outputs": [],
      "stateMutability": "nonpayable",
      "type": "function"
    },
    {
      "inputs": [
        {
          "internalType": "string",
          "name": "baseURI",
          "type": "string"
        }
      ],
      "name": "setBaseURI",
      "outputs": [],
      "stateMutability": "nonpayable",
      "type": "function"
    },
    {
      "inputs": [
        {
          "internalType": "string",
          "name": "uri",
          "type": "string"
        }
      ],
      "name": "setContractURI",
      "outputs": [],
      "stateMutability": "nonpayable",
      "type": "function"
    },
    {
      "inputs": [
        {
          "internalType": "uint256",
          "name": "maxFeeGwei",
          "type": "uint256"
        }
      ],
      "name": "setMaxAllowedGasFee",
      "outputs": [],
      "stateMutability": "nonpayable",
      "type": "function"
    },
    {
      "inputs": [
        {
          "internalType": "address",
          "name": "addr",
          "type": "address"
        }
      ],
      "name": "setOpenSeaProxyRegistryAddress",
      "outputs": [],
      "stateMutability": "nonpayable",
      "type": "function"
    },
    {
      "inputs": [
        {
          "internalType": "string",
          "name": "placeholderURI",
          "type": "string"
        }
      ],
      "name": "setPlaceholderURI",
      "outputs": [],
      "stateMutability": "nonpayable",
      "type": "function"
    },
    {
      "inputs": [
        {
          "internalType": "address",
          "name": "addr",
          "type": "address"
        }
      ],
      "name": "setRaribleRoyaltyAddress",
      "outputs": [],
      "stateMutability": "nonpayable",
      "type": "function"
    },
    {
      "inputs": [
        {
          "internalType": "bytes4",
          "name": "interfaceId",
          "type": "bytes4"
        }
      ],
      "name": "supportsInterface",
      "outputs": [
        {
          "internalType": "bool",
          "name": "",
          "type": "bool"
        }
      ],
      "stateMutability": "view",
      "type": "function"
    },
    {
      "inputs": [],
      "name": "symbol",
      "outputs": [
        {
          "internalType": "string",
          "name": "",
          "type": "string"
        }
      ],
      "stateMutability": "view",
      "type": "function"
    },
    {
      "inputs": [
        {
          "internalType": "bool",
          "name": "isActive",
          "type": "bool"
        }
      ],
      "name": "togglePreSale",
      "outputs": [],
      "stateMutability": "nonpayable",
      "type": "function"
    },
    {
      "inputs": [
        {
          "internalType": "bool",
          "name": "isActive",
          "type": "bool"
        }
      ],
      "name": "togglePublicSale",
      "outputs": [],
      "stateMutability": "nonpayable",
      "type": "function"
    },
    {
      "inputs": [
        {
          "internalType": "bool",
          "name": "isActive",
          "type": "bool"
        }
      ],
      "name": "togglePurchaseEnabled",
      "outputs": [],
      "stateMutability": "nonpayable",
      "type": "function"
    },
    {
      "inputs": [
        {
          "internalType": "uint256",
          "name": "index",
          "type": "uint256"
        }
      ],
      "name": "tokenByIndex",
      "outputs": [
        {
          "internalType": "uint256",
          "name": "",
          "type": "uint256"
        }
      ],
      "stateMutability": "view",
      "type": "function"
    },
    {
      "inputs": [
        {
          "internalType": "address",
          "name": "owner",
          "type": "address"
        },
        {
          "internalType": "uint256",
          "name": "index",
          "type": "uint256"
        }
      ],
      "name": "tokenOfOwnerByIndex",
      "outputs": [
        {
          "internalType": "uint256",
          "name": "",
          "type": "uint256"
        }
      ],
      "stateMutability": "view",
      "type": "function"
    },
    {
      "inputs": [
        {
          "internalType": "uint256",
          "name": "_tokenId",
          "type": "uint256"
        }
      ],
      "name": "tokenURI",
      "outputs": [
        {
          "internalType": "string",
          "name": "",
          "type": "string"
        }
      ],
      "stateMutability": "view",
      "type": "function"
    },
    {
      "inputs": [],
      "name": "totalSupply",
      "outputs": [
        {
          "internalType": "uint256",
          "name": "",
          "type": "uint256"
        }
      ],
      "stateMutability": "view",
      "type": "function"
    },
    {
      "inputs": [
        {
          "internalType": "address",
          "name": "from",
          "type": "address"
        },
        {
          "internalType": "address",
          "name": "to",
          "type": "address"
        },
        {
          "internalType": "uint256",
          "name": "tokenId",
          "type": "uint256"
        }
      ],
      "name": "transferFrom",
      "outputs": [],
      "stateMutability": "nonpayable",
      "type": "function"
    },
    {
      "inputs": [
        {
          "internalType": "address",
          "name": "newOwner",
          "type": "address"
        }
      ],
      "name": "transferOwnership",
      "outputs": [],
      "stateMutability": "nonpayable",
      "type": "function"
    }
  ],
  "transactionHash": "0x9b2a4e1860ff3d79112794dab795859824ca310be1319bb37f6b65ec357167ab",
  "args": [
    "MiniSea Creatures",
    "MSC",
    "80000000000000000",
    100,
    2,
    10,
    0,
    "ipfs://QmXXY4wVXYi3r9Xuna8D9rZ3sTckJFCa2qMzbFGcGuSrco",
    "ipfs://QmYUYtEomwwBqMFvxfgxnVPVknaofPdPPBk8n4D2K6d6LF",
    "0x6e864419D0A0cbB8d14871b80dc2b2c503B0fD3F",
    "0xF57B2c51dED3A29e6891aba85459d600256Cf317"
  ],
  "solcInputHash": "95003932700c024a0a7eb71408ad48b2",
  "bytecode": "0x608060405260006018553480156200001657600080fd5b50604051620036ed380380620036ed8339810160408190526200003991620003d0565b8a518b908b90620000529060009060208501906200025a565b508051620000689060019060208401906200025a565b505050620000856200007f6200015060201b60201c565b62000154565b6001600b55600d899055600e889055600f879055601086905560118590558351620000b89060139060208701906200025a565b508251620000ce9060149060208601906200025a565b50601680546001600160a01b038085166001600160a01b03199283161790925560178054928416929091169190911790556200011360006200010d3390565b620001a6565b6200013f7f9f2df0fed2c77648de5860a4cc508cd0818c85b8b8a1ab4ceeef8d981c8956a6336200010d565b505050505050505050505062000543565b3390565b600a80546001600160a01b038381166001600160a01b0319831681179093556040519116919082907f8be0079c531659141344cd1fd0a4f28419497f9722a3daafe3b4186f6b6457e090600090a35050565b620001b28282620001b6565b5050565b6000828152600c602090815260408083206001600160a01b038516845290915290205460ff16620001b2576000828152600c602090815260408083206001600160a01b03851684529091529020805460ff19166001179055620002163390565b6001600160a01b0316816001600160a01b0316837f2f8788117e7eff1d82e926ec794901d17c78024a50270940304540a733656f0d60405160405180910390a45050565b8280546200026890620004f0565b90600052602060002090601f0160209004810192826200028c5760008555620002d7565b82601f10620002a757805160ff1916838001178555620002d7565b82800160010185558215620002d7579182015b82811115620002d7578251825591602001919060010190620002ba565b50620002e5929150620002e9565b5090565b5b80821115620002e55760008155600101620002ea565b80516001600160a01b03811681146200031857600080fd5b919050565b600082601f8301126200032e578081fd5b81516001600160401b03808211156200034b576200034b6200052d565b604051601f8301601f19908116603f011681019082821181831017156200037657620003766200052d565b8160405283815260209250868385880101111562000392578485fd5b8491505b83821015620003b5578582018301518183018401529082019062000396565b83821115620003c657848385830101525b9695505050505050565b60008060008060008060008060008060006101608c8e031215620003f2578687fd5b8b516001600160401b0381111562000408578788fd5b620004168e828f016200031d565b60208e0151909c5090506001600160401b0381111562000434578788fd5b620004428e828f016200031d565b9a505060408c0151985060608c0151975060808c0151965060a08c0151955060c08c0151945060e08c015160018060401b0381111562000480578485fd5b6200048e8e828f016200031d565b6101008e015190955090506001600160401b03811115620004ad578384fd5b620004bb8e828f016200031d565b935050620004cd6101208d0162000300565b9150620004de6101408d0162000300565b90509295989b509295989b9093969950565b600181811c908216806200050557607f821691505b602082108114156200052757634e487b7160e01b600052602260045260246000fd5b50919050565b634e487b7160e01b600052604160045260246000fd5b61319a80620005536000396000f3fe60806040526004361061020d5760003560e01c806301ffc9a71461021257806306fdde0314610247578063081812fc1461026957806308abf02614610296578063095ea7b3146102b857806318160ddd146102d857806323b872dd146102f75780632439ee5614610317578063248a9ca31461032d57806324ef901e1461034d57806327ae2b79146103635780632f2ff15d146103835780632f745c59146103a35780633574a2dd146103c357806336568abe146103e35780633b5f21881461040357806340c10f191461043c57806342842e0e1461045c5780634f6ccce71461047c57806355f804b31461049c5780636352211e146104bc5780636a8db7eb146104dc57806370a08231146104fc578063715018a61461051c5780638c3cefa3146105315780638d859f3e146105515780638da5cb5b1461056757806391d148541461057c578063938e3d7b1461059c57806395d89b41146105bc578063a217fddf146105d1578063a22cb465146105e6578063a279906f14610606578063b88d4fde1461061c578063c87b56dd1461063c578063cad96cca1461065c578063cf9e8e6914610689578063d35ea4561461069f578063d5391393146106bf578063d547741f146106e1578063e8a3d48514610701578063e985e9c514610716578063efef39a114610736578063f1ace71914610749578063f2fde38b14610769578063f6dc19c814610789575b600080fd5b34801561021e57600080fd5b5061023261022d366004612bde565b6107a9565b60405190151581526020015b60405180910390f35b34801561025357600080fd5b5061025c6107dd565b60405161023e9190612e86565b34801561027557600080fd5b50610289610284366004612ba2565b61086f565b60405161023e9190612dd4565b3480156102a257600080fd5b506102b66102b13660046129aa565b6108fc565b005b3480156102c457600080fd5b506102b66102d3366004612aee565b61094d565b3480156102e457600080fd5b506008545b60405190815260200161023e565b34801561030357600080fd5b506102b66103123660046129fe565b610a5e565b34801561032357600080fd5b506102e960115481565b34801561033957600080fd5b506102e9610348366004612ba2565b610a8f565b34801561035957600080fd5b506102e960105481565b34801561036f57600080fd5b506102b661037e366004612ba2565b610aa4565b34801561038f57600080fd5b506102b661039e366004612bba565b610ad8565b3480156103af57600080fd5b506102e96103be366004612aee565b610af6565b3480156103cf57600080fd5b506102b66103de366004612c32565b610b8f565b3480156103ef57600080fd5b506102b66103fe366004612bba565b610bd5565b34801561040f57600080fd5b5061023261041e3660046129aa565b6001600160a01b031660009081526019602052604090205460ff1690565b34801561044857600080fd5b506102b6610457366004612aee565b610c4f565b34801561046857600080fd5b506102b66104773660046129fe565b610d2b565b34801561048857600080fd5b506102e9610497366004612ba2565b610d46565b3480156104a857600080fd5b506102b66104b7366004612c32565b610de7565b3480156104c857600080fd5b506102896104d7366004612ba2565b610e29565b3480156104e857600080fd5b506102b66104f7366004612b19565b610ea0565b34801561050857600080fd5b506102e96105173660046129aa565b61109e565b34801561052857600080fd5b506102b6611125565b34801561053d57600080fd5b506102b661054c366004612b88565b611160565b34801561055d57600080fd5b506102e9600d5481565b34801561057357600080fd5b506102896111a9565b34801561058857600080fd5b50610232610597366004612bba565b6111b8565b3480156105a857600080fd5b506102b66105b7366004612c32565b6111e3565b3480156105c857600080fd5b5061025c611225565b3480156105dd57600080fd5b506102e9600081565b3480156105f257600080fd5b506102b6610601366004612aba565b611234565b34801561061257600080fd5b506102e9600f5481565b34801561062857600080fd5b506102b6610637366004612a3e565b611302565b34801561064857600080fd5b5061025c610657366004612ba2565b61133a565b34801561066857600080fd5b5061067c610677366004612ba2565b611414565b60405161023e9190612e25565b34801561069557600080fd5b506102e9600e5481565b3480156106ab57600080fd5b506102b66106ba366004612b88565b6114e9565b3480156106cb57600080fd5b506102e960008051602061312583398151915281565b3480156106ed57600080fd5b506102b66106fc366004612bba565b61152b565b34801561070d57600080fd5b5061025c611548565b34801561072257600080fd5b506102326107313660046129c6565b611557565b6102b6610744366004612ba2565b61162b565b34801561075557600080fd5b506102b6610764366004612b88565b6117cc565b34801561077557600080fd5b506102b66107843660046129aa565b611817565b34801561079557600080fd5b506102b66107a43660046129aa565b6118b7565b60006001600160e01b0319821663656cb66560e11b14156107cc575060016107d8565b6107d582611908565b90505b919050565b6060600080546107ec9061304d565b80601f01602080910402602001604051908101604052809291908181526020018280546108189061304d565b80156108655780601f1061083a57610100808354040283529160200191610865565b820191906000526020600020905b81548152906001019060200180831161084857829003601f168201915b5050505050905090565b600061087a8261192d565b6108e05760405162461bcd60e51b815260206004820152602c60248201527f4552433732313a20617070726f76656420717565727920666f72206e6f6e657860448201526b34b9ba32b73a103a37b5b2b760a11b60648201526084015b60405180910390fd5b506000908152600460205260409020546001600160a01b031690565b336109056111a9565b6001600160a01b03161461092b5760405162461bcd60e51b81526004016108d790612eeb565b601780546001600160a01b0319166001600160a01b0392909216919091179055565b600061095882610e29565b9050806001600160a01b0316836001600160a01b031614156109c65760405162461bcd60e51b815260206004820152602160248201527f4552433732313a20617070726f76616c20746f2063757272656e74206f776e656044820152603960f91b60648201526084016108d7565b336001600160a01b03821614806109e257506109e28133610731565b610a4f5760405162461bcd60e51b815260206004820152603860248201527f4552433732313a20617070726f76652063616c6c6572206973206e6f74206f776044820152771b995c881b9bdc88185c1c1c9bdd995908199bdc88185b1b60421b60648201526084016108d7565b610a59838361194a565b505050565b610a6833826119b8565b610a845760405162461bcd60e51b81526004016108d790612f20565b610a59838383611a7a565b6000908152600c602052604090206001015490565b33610aad6111a9565b6001600160a01b031614610ad35760405162461bcd60e51b81526004016108d790612eeb565b601155565b610ae182610a8f565b610aec81335b611c13565b610a598383611c77565b6000610b018361109e565b8210610b635760405162461bcd60e51b815260206004820152602b60248201527f455243373231456e756d657261626c653a206f776e657220696e646578206f7560448201526a74206f6620626f756e647360a81b60648201526084016108d7565b506001600160a01b03821660009081526006602090815260408083208484529091529020545b92915050565b33610b986111a9565b6001600160a01b031614610bbe5760405162461bcd60e51b81526004016108d790612eeb565b8051610bd190601490602084019061288c565b5050565b6001600160a01b0381163314610c455760405162461bcd60e51b815260206004820152602f60248201527f416363657373436f6e74726f6c3a2063616e206f6e6c792072656e6f756e636560448201526e103937b632b9903337b91039b2b63360891b60648201526084016108d7565b610bd18282611cfd565b6002600b541415610c725760405162461bcd60e51b81526004016108d790612f71565b6002600b55610c8f600080516020613125833981519152336111b8565b610cdb5760405162461bcd60e51b815260206004820152601f60248201527f424153455f434f4c4c454354494f4e2f4e4f545f4d494e5445525f524f4c450060448201526064016108d7565b610ce58282611d64565b60005b81811015610d21576000610cfa611f5a565b9050610d068482611f70565b610d0e611f8a565b5080610d1981613088565b915050610ce8565b50506001600b5550565b610a5983838360405180602001604052806000815250611302565b6000610d5160085490565b8210610db45760405162461bcd60e51b815260206004820152602c60248201527f455243373231456e756d657261626c653a20676c6f62616c20696e646578206f60448201526b7574206f6620626f756e647360a01b60648201526084016108d7565b60088281548110610dd557634e487b7160e01b600052603260045260246000fd5b90600052602060002001549050919050565b33610df06111a9565b6001600160a01b031614610e165760405162461bcd60e51b81526004016108d790612eeb565b8051610bd190601590602084019061288c565b6000818152600260205260408120546001600160a01b0316806107d55760405162461bcd60e51b815260206004820152602960248201527f4552433732313a206f776e657220717565727920666f72206e6f6e657869737460448201526832b73a103a37b5b2b760b91b60648201526084016108d7565b33610ea96111a9565b6001600160a01b031614610ecf5760405162461bcd60e51b81526004016108d790612eeb565b60005b81811015610a59576000838383818110610efc57634e487b7160e01b600052603260045260246000fd5b9050602002016020810190610f1191906129aa565b6001600160a01b03161415610f655760405162461bcd60e51b815260206004820152601a60248201527943616e27742061646420746865206e756c6c206164647265737360301b60448201526064016108d7565b600160196000858585818110610f8b57634e487b7160e01b600052603260045260246000fd5b9050602002016020810190610fa091906129aa565b6001600160a01b0316815260208101919091526040016000908120805460ff191692151592909217909155601a81858585818110610fee57634e487b7160e01b600052603260045260246000fd5b905060200201602081019061100391906129aa565b6001600160a01b03166001600160a01b03168152602001908152602001600020541161103057600061108b565b601a600084848481811061105457634e487b7160e01b600052603260045260246000fd5b905060200201602081019061106991906129aa565b6001600160a01b03166001600160a01b03168152602001908152602001600020545b508061109681613088565b915050610ed2565b60006001600160a01b0382166111095760405162461bcd60e51b815260206004820152602a60248201527f4552433732313a2062616c616e636520717565727920666f7220746865207a65604482015269726f206164647265737360b01b60648201526084016108d7565b506001600160a01b031660009081526003602052604090205490565b3361112e6111a9565b6001600160a01b0316146111545760405162461bcd60e51b81526004016108d790612eeb565b61115e6000611fa1565b565b336111696111a9565b6001600160a01b03161461118f5760405162461bcd60e51b81526004016108d790612eeb565b601280549115156101000261ff0019909216919091179055565b600a546001600160a01b031690565b6000918252600c602090815260408084206001600160a01b0393909316845291905290205460ff1690565b336111ec6111a9565b6001600160a01b0316146112125760405162461bcd60e51b81526004016108d790612eeb565b8051610bd190601390602084019061288c565b6060600180546107ec9061304d565b6001600160a01b0382163314156112895760405162461bcd60e51b815260206004820152601960248201527822a9219b99189d1030b8383937bb32903a379031b0b63632b960391b60448201526064016108d7565b3360008181526005602090815260408083206001600160a01b0387168085529252909120805460ff1916841515179055906001600160a01b03167f17307eab39ab6107e8899845ad3d59bd9653f200f220920489ca2b5937696c31836040516112f6911515815260200190565b60405180910390a35050565b61130c33836119b8565b6113285760405162461bcd60e51b81526004016108d790612f20565b61133484848484611ff3565b50505050565b606060006015805461134b9061304d565b9050116113e2576014805461135f9061304d565b80601f016020809104026020016040519081016040528092919081815260200182805461138b9061304d565b80156113d85780601f106113ad576101008083540402835291602001916113d8565b820191906000526020600020905b8154815290600101906020018083116113bb57829003601f168201915b50505050506107d5565b60156113ed83612026565b6040516020016113fe929190612cbf565b6040516020818303038152906040529050919050565b604080516001808252818301909252606091816020015b604080518082019091526000808252602082015281526020019060019003908161142b57505060165481519192506001600160a01b031690829060009061148257634e487b7160e01b600052603260045260246000fd5b6020026020010151600001906001600160a01b031690816001600160a01b031681525050612710816000815181106114ca57634e487b7160e01b600052603260045260246000fd5b6020908102919091018101516001600160601b03909216910152919050565b336114f26111a9565b6001600160a01b0316146115185760405162461bcd60e51b81526004016108d790612eeb565b6012805460ff1916911515919091179055565b61153482610a8f565b61153e8133610ae7565b610a598383611cfd565b6060601380546107ec9061304d565b60175460405163c455279160e01b81526000916001600160a01b039081169190841690829063c455279190611590908890600401612dd4565b60206040518083038186803b1580156115a857600080fd5b505afa1580156115bc573d6000803e3d6000fd5b505050506040513d601f19601f820116820180604052508101906115e09190612c16565b6001600160a01b031614156115f9576001915050610b89565b6001600160a01b0380851660009081526005602090815260408083209387168352929052205460ff165b949350505050565b6002600b54141561164e5760405162461bcd60e51b81526004016108d790612f71565b6002600b55333b156116ae5760405162461bcd60e51b8152602060048201526024808201527f424153455f434f4c4c454354494f4e2f434f4e54524143545f43414e4e4f545f60448201526310d0531360e21b60648201526084016108d7565b6116b83382611d64565b60125462010000900460ff1661171a5760405162461bcd60e51b815260206004820152602160248201527f424153455f434f4c4c454354494f4e2f50555243484153455f44495341424c456044820152601160fa1b60648201526084016108d7565b3481600d546117299190612fd4565b11156117875760405162461bcd60e51b815260206004820152602760248201527f424153455f434f4c4c454354494f4e2f494e53554646494349454e545f45544860448201526617d05353d5539560ca1b60648201526084016108d7565b60005b818110156117c357600061179c611f5a565b90506117a83382611f70565b6117b0611f8a565b50806117bb81613088565b91505061178a565b50506001600b55565b336117d56111a9565b6001600160a01b0316146117fb5760405162461bcd60e51b81526004016108d790612eeb565b60128054911515620100000262ff000019909216919091179055565b336118206111a9565b6001600160a01b0316146118465760405162461bcd60e51b81526004016108d790612eeb565b6001600160a01b0381166118ab5760405162461bcd60e51b815260206004820152602660248201527f4f776e61626c653a206e6577206f776e657220697320746865207a65726f206160448201526564647265737360d01b60648201526084016108d7565b6118b481611fa1565b50565b336118c06111a9565b6001600160a01b0316146118e65760405162461bcd60e51b81526004016108d790612eeb565b601680546001600160a01b0319166001600160a01b0392909216919091179055565b60006001600160e01b03198216637965db0b60e01b14806107d557506107d582612140565b6000908152600260205260409020546001600160a01b0316151590565b600081815260046020526040902080546001600160a01b0319166001600160a01b038416908117909155819061197f82610e29565b6001600160a01b03167f8c5be1e5ebec7d5bd14f71427d1e84f3dd0314c0f7b2291e5b200ac8c7c3b92560405160405180910390a45050565b60006119c38261192d565b611a245760405162461bcd60e51b815260206004820152602c60248201527f4552433732313a206f70657261746f7220717565727920666f72206e6f6e657860448201526b34b9ba32b73a103a37b5b2b760a11b60648201526084016108d7565b6000611a2f83610e29565b9050806001600160a01b0316846001600160a01b03161480611a6a5750836001600160a01b0316611a5f8461086f565b6001600160a01b0316145b8061162357506116238185611557565b826001600160a01b0316611a8d82610e29565b6001600160a01b031614611af55760405162461bcd60e51b815260206004820152602960248201527f4552433732313a207472616e73666572206f6620746f6b656e2074686174206960448201526839903737ba1037bbb760b91b60648201526084016108d7565b6001600160a01b038216611b575760405162461bcd60e51b8152602060048201526024808201527f4552433732313a207472616e7366657220746f20746865207a65726f206164646044820152637265737360e01b60648201526084016108d7565b611b62838383612165565b611b6d60008261194a565b6001600160a01b0383166000908152600360205260408120805460019290611b96908490612ff3565b90915550506001600160a01b0382166000908152600360205260408120805460019290611bc4908490612fa8565b909155505060008181526002602052604080822080546001600160a01b0319166001600160a01b03868116918217909255915184939187169160008051602061314583398151915291a4505050565b611c1d82826111b8565b610bd157611c35816001600160a01b03166014612222565b611c40836020612222565b604051602001611c51929190612d65565b60408051601f198184030181529082905262461bcd60e51b82526108d791600401612e86565b611c8182826111b8565b610bd1576000828152600c602090815260408083206001600160a01b03851684529091529020805460ff19166001179055611cb93390565b6001600160a01b0316816001600160a01b0316837f2f8788117e7eff1d82e926ec794901d17c78024a50270940304540a733656f0d60405160405180910390a45050565b611d0782826111b8565b15610bd1576000828152600c602090815260408083206001600160a01b0385168085529252808320805460ff1916905551339285917ff6391f5c32d9c69d2a47ea670b442974b53935d1edc7fd64eb21e047a839171b9190a45050565b601254610100900460ff1680611dd0575060125460ff168015611d9f57506001600160a01b03821660009081526019602052604090205460ff165b8015611dd05750600f546001600160a01b0383166000908152601a6020526040902054611dcd908390612fa8565b11155b611e1a5760405162461bcd60e51b815260206004820152601b60248201527a109054d157d0d3d3131150d51253d38bd0d0539393d517d3525395602a1b60448201526064016108d7565b60115415611e8d57601154611e3390633b9aca00612fd4565b3a10611e8d5760405162461bcd60e51b815260206004820152602360248201527f424153455f434f4c4c454354494f4e2f4741535f4645455f4e4f545f414c4c4f60448201526215d15160ea1b60648201526084016108d7565b600e5481611e9a60085490565b611ea49190612fa8565b1115611efd5760405162461bcd60e51b815260206004820152602260248201527f424153455f434f4c4c454354494f4e2f455843454544535f4d41585f535550506044820152614c5960f01b60648201526084016108d7565b601054811115610bd15760405162461bcd60e51b815260206004820152602260248201527f424153455f434f4c4c454354494f4e2f455843454544535f4d41585f5045525f6044820152610a8b60f31b60648201526084016108d7565b601854600090611f6b90600161240a565b905090565b610bd1828260405180602001604052806000815250612416565b60188054906000611f9a83613088565b9190505550565b600a80546001600160a01b038381166001600160a01b0319831681179093556040519116919082907f8be0079c531659141344cd1fd0a4f28419497f9722a3daafe3b4186f6b6457e090600090a35050565b611ffe848484611a7a565b61200a84848484612449565b6113345760405162461bcd60e51b81526004016108d790612e99565b60608161204b57506040805180820190915260018152600360fc1b60208201526107d8565b8160005b8115612075578061205f81613088565b915061206e9050600a83612fc0565b915061204f565b6000816001600160401b0381111561209d57634e487b7160e01b600052604160045260246000fd5b6040519080825280601f01601f1916602001820160405280156120c7576020820181803683370190505b5090505b8415611623576120dc600183612ff3565b91506120e9600a866130a3565b6120f4906030612fa8565b60f81b81838151811061211757634e487b7160e01b600052603260045260246000fd5b60200101906001600160f81b031916908160001a905350612139600a86612fc0565b94506120cb565b60006001600160e01b0319821663780e9d6360e01b14806107d557506107d582612556565b6001600160a01b0383166121c0576121bb81600880546000838152600960205260408120829055600182018355919091527ff3f7a9fe364faab93b216da50a3214154f22a0a2b415b23a84c8169e8b636ee30155565b6121e3565b816001600160a01b0316836001600160a01b0316146121e3576121e383826125a6565b6001600160a01b0382166121ff576121fa81612643565b610a59565b826001600160a01b0316826001600160a01b031614610a5957610a59828261271c565b60606000612231836002612fd4565b61223c906002612fa8565b6001600160401b0381111561226157634e487b7160e01b600052604160045260246000fd5b6040519080825280601f01601f19166020018201604052801561228b576020820181803683370190505b509050600360fc1b816000815181106122b457634e487b7160e01b600052603260045260246000fd5b60200101906001600160f81b031916908160001a905350600f60fb1b816001815181106122f157634e487b7160e01b600052603260045260246000fd5b60200101906001600160f81b031916908160001a9053506000612315846002612fd4565b612320906001612fa8565b90505b60018111156123b4576f181899199a1a9b1b9c1cb0b131b232b360811b85600f166010811061236257634e487b7160e01b600052603260045260246000fd5b1a60f81b82828151811061238657634e487b7160e01b600052603260045260246000fd5b60200101906001600160f81b031916908160001a90535060049490941c936123ad81613036565b9050612323565b5083156124035760405162461bcd60e51b815260206004820181905260248201527f537472696e67733a20686578206c656e67746820696e73756666696369656e7460448201526064016108d7565b9392505050565b60006124038284612fa8565b6124208383612760565b61242d6000848484612449565b610a595760405162461bcd60e51b81526004016108d790612e99565b60006001600160a01b0384163b1561254b57604051630a85bd0160e11b81526001600160a01b0385169063150b7a029061248d903390899088908890600401612de8565b602060405180830381600087803b1580156124a757600080fd5b505af19250505080156124d7575060408051601f3d908101601f191682019092526124d491810190612bfa565b60015b612531573d808015612505576040519150601f19603f3d011682016040523d82523d6000602084013e61250a565b606091505b5080516125295760405162461bcd60e51b81526004016108d790612e99565b805181602001fd5b6001600160e01b031916630a85bd0160e11b149050611623565b506001949350505050565b60006001600160e01b031982166380ac58cd60e01b148061258757506001600160e01b03198216635b5e139f60e01b145b806107d557506301ffc9a760e01b6001600160e01b03198316146107d5565b600060016125b38461109e565b6125bd9190612ff3565b600083815260076020526040902054909150808214612610576001600160a01b03841660009081526006602090815260408083208584528252808320548484528184208190558352600790915290208190555b5060009182526007602090815260408084208490556001600160a01b039094168352600681528383209183525290812055565b60085460009061265590600190612ff3565b6000838152600960205260408120546008805493945090928490811061268b57634e487b7160e01b600052603260045260246000fd5b9060005260206000200154905080600883815481106126ba57634e487b7160e01b600052603260045260246000fd5b600091825260208083209091019290925582815260099091526040808220849055858252812055600880548061270057634e487b7160e01b600052603160045260246000fd5b6001900381819060005260206000200160009055905550505050565b60006127278361109e565b6001600160a01b039093166000908152600660209081526040808320868452825280832085905593825260079052919091209190915550565b6001600160a01b0382166127b65760405162461bcd60e51b815260206004820181905260248201527f4552433732313a206d696e7420746f20746865207a65726f206164647265737360448201526064016108d7565b6127bf8161192d565b1561280b5760405162461bcd60e51b815260206004820152601c60248201527b115490cdcc8c4e881d1bdad95b88185b1c9958591e481b5a5b9d195960221b60448201526064016108d7565b61281760008383612165565b6001600160a01b0382166000908152600360205260408120805460019290612840908490612fa8565b909155505060008181526002602052604080822080546001600160a01b0319166001600160a01b0386169081179091559051839290600080516020613145833981519152908290a45050565b8280546128989061304d565b90600052602060002090601f0160209004810192826128ba5760008555612900565b82601f106128d357805160ff1916838001178555612900565b82800160010185558215612900579182015b828111156129005782518255916020019190600101906128e5565b5061290c929150612910565b5090565b5b8082111561290c5760008155600101612911565b60006001600160401b038084111561293f5761293f6130e3565b604051601f8501601f19908116603f01168101908282118183101715612967576129676130e3565b8160405280935085815286868601111561298057600080fd5b858560208301376000602087830101525050509392505050565b803580151581146107d857600080fd5b6000602082840312156129bb578081fd5b8135612403816130f9565b600080604083850312156129d8578081fd5b82356129e3816130f9565b915060208301356129f3816130f9565b809150509250929050565b600080600060608486031215612a12578081fd5b8335612a1d816130f9565b92506020840135612a2d816130f9565b929592945050506040919091013590565b60008060008060808587031215612a53578081fd5b8435612a5e816130f9565b93506020850135612a6e816130f9565b92506040850135915060608501356001600160401b03811115612a8f578182fd5b8501601f81018713612a9f578182fd5b612aae87823560208401612925565b91505092959194509250565b60008060408385031215612acc578182fd5b8235612ad7816130f9565b9150612ae56020840161299a565b90509250929050565b60008060408385031215612b00578182fd5b8235612b0b816130f9565b946020939093013593505050565b60008060208385031215612b2b578182fd5b82356001600160401b0380821115612b41578384fd5b818501915085601f830112612b54578384fd5b813581811115612b62578485fd5b8660208260051b8501011115612b76578485fd5b60209290920196919550909350505050565b600060208284031215612b99578081fd5b6124038261299a565b600060208284031215612bb3578081fd5b5035919050565b60008060408385031215612bcc578182fd5b8235915060208301356129f3816130f9565b600060208284031215612bef578081fd5b81356124038161310e565b600060208284031215612c0b578081fd5b81516124038161310e565b600060208284031215612c27578081fd5b8151612403816130f9565b600060208284031215612c43578081fd5b81356001600160401b03811115612c58578182fd5b8201601f81018413612c68578182fd5b61162384823560208401612925565b60008151808452612c8f81602086016020860161300a565b601f01601f19169290920160200192915050565b60008151612cb581856020860161300a565b9290920192915050565b600080845482600182811c915080831680612cdb57607f831692505b6020808410821415612cfb57634e487b7160e01b87526022600452602487fd5b818015612d0f5760018114612d2057612d4c565b60ff19861689528489019650612d4c565b60008b815260209020885b86811015612d445781548b820152908501908301612d2b565b505084890196505b505050505050612d5c8185612ca3565b95945050505050565b600076020b1b1b2b9b9a1b7b73a3937b61d1030b1b1b7bab73a1604d1b82528351612d9781601785016020880161300a565b7001034b99036b4b9b9b4b733903937b6329607d1b6017918401918201528351612dc881602884016020880161300a565b01602801949350505050565b6001600160a01b0391909116815260200190565b6001600160a01b0385811682528416602082015260408101839052608060608201819052600090612e1b90830184612c77565b9695505050505050565b602080825282518282018190526000919060409081850190868401855b82811015612e7957815180516001600160a01b031685528601516001600160601b0316868501529284019290850190600101612e42565b5091979650505050505050565b6000602082526124036020830184612c77565b60208082526032908201527f4552433732313a207472616e7366657220746f206e6f6e20455243373231526560408201527131b2b4bb32b91034b6b83632b6b2b73a32b960711b606082015260800190565b6020808252818101527f4f776e61626c653a2063616c6c6572206973206e6f7420746865206f776e6572604082015260600190565b60208082526031908201527f4552433732313a207472616e736665722063616c6c6572206973206e6f74206f6040820152701ddb995c881b9bdc88185c1c1c9bdd9959607a1b606082015260800190565b6020808252601f908201527f5265656e7472616e637947756172643a207265656e7472616e742063616c6c00604082015260600190565b60008219821115612fbb57612fbb6130b7565b500190565b600082612fcf57612fcf6130cd565b500490565b6000816000190483118215151615612fee57612fee6130b7565b500290565b600082821015613005576130056130b7565b500390565b60005b8381101561302557818101518382015260200161300d565b838111156113345750506000910152565b600081613045576130456130b7565b506000190190565b600181811c9082168061306157607f821691505b6020821081141561308257634e487b7160e01b600052602260045260246000fd5b50919050565b600060001982141561309c5761309c6130b7565b5060010190565b6000826130b2576130b26130cd565b500690565b634e487b7160e01b600052601160045260246000fd5b634e487b7160e01b600052601260045260246000fd5b634e487b7160e01b600052604160045260246000fd5b6001600160a01b03811681146118b457600080fd5b6001600160e01b0319811681146118b457600080fdfe9f2df0fed2c77648de5860a4cc508cd0818c85b8b8a1ab4ceeef8d981c8956a6ddf252ad1be2c89b69c2b068fc378daa952ba7f163c4a11628f55a4df523b3efa2646970667358221220b15510f1af95df845f5497d9fbed3883a97769f5fc0599a95c1bb2958639f8d464736f6c63430008030033",
  "devdoc": {
    "kind": "dev",
    "methods": {
      "approve(address,uint256)": {
        "details": "See {IERC721-approve}."
      },
      "balanceOf(address)": {
        "details": "See {IERC721-balanceOf}."
      },
      "getApproved(uint256)": {
        "details": "See {IERC721-getApproved}."
      },
      "getRoleAdmin(bytes32)": {
        "details": "Returns the admin role that controls `role`. See {grantRole} and {revokeRole}. To change a role's admin, use {_setRoleAdmin}."
      },
      "grantRole(bytes32,address)": {
        "details": "Grants `role` to `account`. If `account` had not been already granted `role`, emits a {RoleGranted} event. Requirements: - the caller must have ``role``'s admin role."
      },
      "hasRole(bytes32,address)": {
        "details": "Returns `true` if `account` has been granted `role`."
      },
      "name()": {
        "details": "See {IERC721Metadata-name}."
      },
      "owner()": {
        "details": "Returns the address of the current owner."
      },
      "ownerOf(uint256)": {
        "details": "See {IERC721-ownerOf}."
      },
      "renounceOwnership()": {
        "details": "Leaves the contract without owner. It will not be possible to call `onlyOwner` functions anymore. Can only be called by the current owner. NOTE: Renouncing ownership will leave the contract without an owner, thereby removing any functionality that is only available to the owner."
      },
      "renounceRole(bytes32,address)": {
        "details": "Revokes `role` from the calling account. Roles are often managed via {grantRole} and {revokeRole}: this function's purpose is to provide a mechanism for accounts to lose their privileges if they are compromised (such as when a trusted device is misplaced). If the calling account had been granted `role`, emits a {RoleRevoked} event. Requirements: - the caller must be `account`."
      },
      "revokeRole(bytes32,address)": {
        "details": "Revokes `role` from `account`. If `account` had been granted `role`, emits a {RoleRevoked} event. Requirements: - the caller must have ``role``'s admin role."
      },
      "safeTransferFrom(address,address,uint256)": {
        "details": "See {IERC721-safeTransferFrom}."
      },
      "safeTransferFrom(address,address,uint256,bytes)": {
        "details": "See {IERC721-safeTransferFrom}."
      },
      "setApprovalForAll(address,bool)": {
        "details": "See {IERC721-setApprovalForAll}."
      },
      "supportsInterface(bytes4)": {
        "details": "See {IERC165-supportsInterface}."
      },
      "symbol()": {
        "details": "See {IERC721Metadata-symbol}."
      },
      "tokenByIndex(uint256)": {
        "details": "See {IERC721Enumerable-tokenByIndex}."
      },
      "tokenOfOwnerByIndex(address,uint256)": {
        "details": "See {IERC721Enumerable-tokenOfOwnerByIndex}."
      },
      "totalSupply()": {
        "details": "See {IERC721Enumerable-totalSupply}."
      },
      "transferFrom(address,address,uint256)": {
        "details": "See {IERC721-transferFrom}."
      },
      "transferOwnership(address)": {
        "details": "Transfers ownership of the contract to a new account (`newOwner`). Can only be called by the current owner."
      }
    },
    "version": 1
  },
  "userdoc": {
    "kind": "user",
    "methods": {
      "isApprovedForAll(address,address)": {
        "notice": "Override isApprovedForAll to whitelist user's OpenSea proxy accounts to enable gas-less listings."
      },
      "mint(address,uint256)": {
        "notice": "Mints a specified number of tokens to an address without requiring payment. Caller must be an address with MINTER role. Useful for gifting by owner or integration with Flair.Finance funding options."
      },
      "purchase(uint256)": {
        "notice": "Accepts required payment and mints a specified number of tokens to an address. This method also checks if direct purchase is enabled."
      }
    },
    "version": 1
  },
  "storageLayout": {
    "storage": [
      {
        "astId": 549,
        "contract": "contracts/ERC721Collection.sol:ERC721Collection",
        "label": "_name",
        "offset": 0,
        "slot": "0",
        "type": "t_string_storage"
      },
      {
        "astId": 551,
        "contract": "contracts/ERC721Collection.sol:ERC721Collection",
        "label": "_symbol",
        "offset": 0,
        "slot": "1",
        "type": "t_string_storage"
      },
      {
        "astId": 555,
        "contract": "contracts/ERC721Collection.sol:ERC721Collection",
        "label": "_owners",
        "offset": 0,
        "slot": "2",
        "type": "t_mapping(t_uint256,t_address)"
      },
      {
        "astId": 559,
        "contract": "contracts/ERC721Collection.sol:ERC721Collection",
        "label": "_balances",
        "offset": 0,
        "slot": "3",
        "type": "t_mapping(t_address,t_uint256)"
      },
      {
        "astId": 563,
        "contract": "contracts/ERC721Collection.sol:ERC721Collection",
        "label": "_tokenApprovals",
        "offset": 0,
        "slot": "4",
        "type": "t_mapping(t_uint256,t_address)"
      },
      {
        "astId": 569,
        "contract": "contracts/ERC721Collection.sol:ERC721Collection",
        "label": "_operatorApprovals",
        "offset": 0,
        "slot": "5",
        "type": "t_mapping(t_address,t_mapping(t_address,t_bool))"
      },
      {
        "astId": 1488,
        "contract": "contracts/ERC721Collection.sol:ERC721Collection",
        "label": "_ownedTokens",
        "offset": 0,
        "slot": "6",
        "type": "t_mapping(t_address,t_mapping(t_uint256,t_uint256))"
      },
      {
        "astId": 1492,
        "contract": "contracts/ERC721Collection.sol:ERC721Collection",
        "label": "_ownedTokensIndex",
        "offset": 0,
        "slot": "7",
        "type": "t_mapping(t_uint256,t_uint256)"
      },
      {
        "astId": 1495,
        "contract": "contracts/ERC721Collection.sol:ERC721Collection",
        "label": "_allTokens",
        "offset": 0,
        "slot": "8",
        "type": "t_array(t_uint256)dyn_storage"
      },
      {
        "astId": 1499,
        "contract": "contracts/ERC721Collection.sol:ERC721Collection",
        "label": "_allTokensIndex",
        "offset": 0,
        "slot": "9",
        "type": "t_mapping(t_uint256,t_uint256)"
      },
      {
        "astId": 387,
        "contract": "contracts/ERC721Collection.sol:ERC721Collection",
        "label": "_owner",
        "offset": 0,
        "slot": "10",
        "type": "t_address"
      },
      {
        "astId": 494,
        "contract": "contracts/ERC721Collection.sol:ERC721Collection",
        "label": "_status",
        "offset": 0,
        "slot": "11",
        "type": "t_uint256"
      },
      {
        "astId": 24,
        "contract": "contracts/ERC721Collection.sol:ERC721Collection",
        "label": "_roles",
        "offset": 0,
        "slot": "12",
        "type": "t_mapping(t_bytes32,t_struct(RoleData)19_storage)"
      },
      {
        "astId": 2779,
        "contract": "contracts/ERC721Collection.sol:ERC721Collection",
        "label": "PRICE",
        "offset": 0,
        "slot": "13",
        "type": "t_uint256"
      },
      {
        "astId": 2781,
        "contract": "contracts/ERC721Collection.sol:ERC721Collection",
        "label": "MAX_TOTAL_MINT",
        "offset": 0,
        "slot": "14",
        "type": "t_uint256"
      },
      {
        "astId": 2783,
        "contract": "contracts/ERC721Collection.sol:ERC721Collection",
        "label": "MAX_PRE_SALE_MINT_PER_ADDRESS",
        "offset": 0,
        "slot": "15",
        "type": "t_uint256"
      },
      {
        "astId": 2785,
        "contract": "contracts/ERC721Collection.sol:ERC721Collection",
        "label": "MAX_MINT_PER_TRANSACTION",
        "offset": 0,
        "slot": "16",
        "type": "t_uint256"
      },
      {
        "astId": 2787,
        "contract": "contracts/ERC721Collection.sol:ERC721Collection",
        "label": "MAX_ALLOWED_GAS_FEE",
        "offset": 0,
        "slot": "17",
        "type": "t_uint256"
      },
      {
        "astId": 2789,
        "contract": "contracts/ERC721Collection.sol:ERC721Collection",
        "label": "_isPreSaleActive",
        "offset": 0,
        "slot": "18",
        "type": "t_bool"
      },
      {
        "astId": 2791,
        "contract": "contracts/ERC721Collection.sol:ERC721Collection",
        "label": "_isPublicSaleActive",
        "offset": 1,
        "slot": "18",
        "type": "t_bool"
      },
      {
        "astId": 2793,
        "contract": "contracts/ERC721Collection.sol:ERC721Collection",
        "label": "_isPurchaseEnabled",
        "offset": 2,
        "slot": "18",
        "type": "t_bool"
      },
      {
        "astId": 2795,
        "contract": "contracts/ERC721Collection.sol:ERC721Collection",
        "label": "_contractURI",
        "offset": 0,
        "slot": "19",
        "type": "t_string_storage"
      },
      {
        "astId": 2797,
        "contract": "contracts/ERC721Collection.sol:ERC721Collection",
        "label": "_placeholderURI",
        "offset": 0,
        "slot": "20",
        "type": "t_string_storage"
      },
      {
        "astId": 2799,
        "contract": "contracts/ERC721Collection.sol:ERC721Collection",
        "label": "_baseTokenURI",
        "offset": 0,
        "slot": "21",
        "type": "t_string_storage"
      },
      {
        "astId": 2801,
        "contract": "contracts/ERC721Collection.sol:ERC721Collection",
        "label": "_raribleRoyaltyAddress",
        "offset": 0,
        "slot": "22",
        "type": "t_address"
      },
      {
        "astId": 2803,
        "contract": "contracts/ERC721Collection.sol:ERC721Collection",
        "label": "_openSeaProxyRegistryAddress",
        "offset": 0,
        "slot": "23",
        "type": "t_address"
      },
      {
        "astId": 2806,
        "contract": "contracts/ERC721Collection.sol:ERC721Collection",
        "label": "_currentTokenId",
        "offset": 0,
        "slot": "24",
        "type": "t_uint256"
      },
      {
        "astId": 2810,
        "contract": "contracts/ERC721Collection.sol:ERC721Collection",
        "label": "_preSaleAllowList",
        "offset": 0,
        "slot": "25",
        "type": "t_mapping(t_address,t_bool)"
      },
      {
        "astId": 2814,
        "contract": "contracts/ERC721Collection.sol:ERC721Collection",
        "label": "_preSaleAllowListClaimed",
        "offset": 0,
        "slot": "26",
        "type": "t_mapping(t_address,t_uint256)"
      }
    ],
    "types": {
      "t_address": {
        "encoding": "inplace",
        "label": "address",
        "numberOfBytes": "20"
      },
      "t_array(t_uint256)dyn_storage": {
        "base": "t_uint256",
        "encoding": "dynamic_array",
        "label": "uint256[]",
        "numberOfBytes": "32"
      },
      "t_bool": {
        "encoding": "inplace",
        "label": "bool",
        "numberOfBytes": "1"
      },
      "t_bytes32": {
        "encoding": "inplace",
        "label": "bytes32",
        "numberOfBytes": "32"
      },
      "t_mapping(t_address,t_bool)": {
        "encoding": "mapping",
        "key": "t_address",
        "label": "mapping(address => bool)",
        "numberOfBytes": "32",
        "value": "t_bool"
      },
      "t_mapping(t_address,t_mapping(t_address,t_bool))": {
        "encoding": "mapping",
        "key": "t_address",
        "label": "mapping(address => mapping(address => bool))",
        "numberOfBytes": "32",
        "value": "t_mapping(t_address,t_bool)"
      },
      "t_mapping(t_address,t_mapping(t_uint256,t_uint256))": {
        "encoding": "mapping",
        "key": "t_address",
        "label": "mapping(address => mapping(uint256 => uint256))",
        "numberOfBytes": "32",
        "value": "t_mapping(t_uint256,t_uint256)"
      },
      "t_mapping(t_address,t_uint256)": {
        "encoding": "mapping",
        "key": "t_address",
        "label": "mapping(address => uint256)",
        "numberOfBytes": "32",
        "value": "t_uint256"
      },
      "t_mapping(t_bytes32,t_struct(RoleData)19_storage)": {
        "encoding": "mapping",
        "key": "t_bytes32",
        "label": "mapping(bytes32 => struct AccessControl.RoleData)",
        "numberOfBytes": "32",
        "value": "t_struct(RoleData)19_storage"
      },
      "t_mapping(t_uint256,t_address)": {
        "encoding": "mapping",
        "key": "t_uint256",
        "label": "mapping(uint256 => address)",
        "numberOfBytes": "32",
        "value": "t_address"
      },
      "t_mapping(t_uint256,t_uint256)": {
        "encoding": "mapping",
        "key": "t_uint256",
        "label": "mapping(uint256 => uint256)",
        "numberOfBytes": "32",
        "value": "t_uint256"
      },
      "t_string_storage": {
        "encoding": "bytes",
        "label": "string",
        "numberOfBytes": "32"
      },
      "t_struct(RoleData)19_storage": {
        "encoding": "inplace",
        "label": "struct AccessControl.RoleData",
        "members": [
          {
            "astId": 16,
            "contract": "contracts/ERC721Collection.sol:ERC721Collection",
            "label": "members",
            "offset": 0,
            "slot": "0",
            "type": "t_mapping(t_address,t_bool)"
          },
          {
            "astId": 18,
            "contract": "contracts/ERC721Collection.sol:ERC721Collection",
            "label": "adminRole",
            "offset": 0,
            "slot": "1",
            "type": "t_bytes32"
          }
        ],
        "numberOfBytes": "64"
      },
      "t_uint256": {
        "encoding": "inplace",
        "label": "uint256",
        "numberOfBytes": "32"
      }
    }
  }
}