{
  "address": "0x2d4fE71Da204c5B9263Ce64624a33D88dBE26d04",
  "abi": [
    {
      "inputs": [
        {
          "internalType": "string",
          "name": "name",
          "type": "string"
        },
        {
          "internalType": "string",
          "name": "symbol",
          "type": "string"
        },
        {
          "internalType": "uint256",
          "name": "price",
          "type": "uint256"
        },
        {
          "internalType": "uint256",
          "name": "maxTotalMint",
          "type": "uint256"
        },
        {
          "internalType": "uint256",
          "name": "maxPreSaleMintPerAddress",
          "type": "uint256"
        },
        {
          "internalType": "uint256",
          "name": "maxMintPerTransaction",
          "type": "uint256"
        },
        {
          "internalType": "uint256",
          "name": "maxAllowedGasFee",
          "type": "uint256"
        },
        {
          "internalType": "string",
          "name": "contractURI",
          "type": "string"
        },
        {
          "internalType": "string",
          "name": "placeholderURI",
          "type": "string"
        },
        {
          "internalType": "address",
          "name": "raribleRoyaltyAddress",
          "type": "address"
        },
        {
          "internalType": "address",
          "name": "openSeaProxyRegistryAddress",
          "type": "address"
        }
      ],
      "stateMutability": "nonpayable",
      "type": "constructor"
    },
    {
      "anonymous": false,
      "inputs": [
        {
          "indexed": true,
          "internalType": "address",
          "name": "owner",
          "type": "address"
        },
        {
          "indexed": true,
          "internalType": "address",
          "name": "approved",
          "type": "address"
        },
        {
          "indexed": true,
          "internalType": "uint256",
          "name": "tokenId",
          "type": "uint256"
        }
      ],
      "name": "Approval",
      "type": "event"
    },
    {
      "anonymous": false,
      "inputs": [
        {
          "indexed": true,
          "internalType": "address",
          "name": "owner",
          "type": "address"
        },
        {
          "indexed": true,
          "internalType": "address",
          "name": "operator",
          "type": "address"
        },
        {
          "indexed": false,
          "internalType": "bool",
          "name": "approved",
          "type": "bool"
        }
      ],
      "name": "ApprovalForAll",
      "type": "event"
    },
    {
      "anonymous": false,
      "inputs": [
        {
          "indexed": true,
          "internalType": "address",
          "name": "previousOwner",
          "type": "address"
        },
        {
          "indexed": true,
          "internalType": "address",
          "name": "newOwner",
          "type": "address"
        }
      ],
      "name": "OwnershipTransferred",
      "type": "event"
    },
    {
      "anonymous": false,
      "inputs": [
        {
          "indexed": true,
          "internalType": "bytes32",
          "name": "role",
          "type": "bytes32"
        },
        {
          "indexed": true,
          "internalType": "bytes32",
          "name": "previousAdminRole",
          "type": "bytes32"
        },
        {
          "indexed": true,
          "internalType": "bytes32",
          "name": "newAdminRole",
          "type": "bytes32"
        }
      ],
      "name": "RoleAdminChanged",
      "type": "event"
    },
    {
      "anonymous": false,
      "inputs": [
        {
          "indexed": true,
          "internalType": "bytes32",
          "name": "role",
          "type": "bytes32"
        },
        {
          "indexed": true,
          "internalType": "address",
          "name": "account",
          "type": "address"
        },
        {
          "indexed": true,
          "internalType": "address",
          "name": "sender",
          "type": "address"
        }
      ],
      "name": "RoleGranted",
      "type": "event"
    },
    {
      "anonymous": false,
      "inputs": [
        {
          "indexed": true,
          "internalType": "bytes32",
          "name": "role",
          "type": "bytes32"
        },
        {
          "indexed": true,
          "internalType": "address",
          "name": "account",
          "type": "address"
        },
        {
          "indexed": true,
          "internalType": "address",
          "name": "sender",
          "type": "address"
        }
      ],
      "name": "RoleRevoked",
      "type": "event"
    },
    {
      "anonymous": false,
      "inputs": [
        {
          "indexed": true,
          "internalType": "address",
          "name": "from",
          "type": "address"
        },
        {
          "indexed": true,
          "internalType": "address",
          "name": "to",
          "type": "address"
        },
        {
          "indexed": true,
          "internalType": "uint256",
          "name": "tokenId",
          "type": "uint256"
        }
      ],
      "name": "Transfer",
      "type": "event"
    },
    {
      "inputs": [],
      "name": "DEFAULT_ADMIN_ROLE",
      "outputs": [
        {
          "internalType": "bytes32",
          "name": "",
          "type": "bytes32"
        }
      ],
      "stateMutability": "view",
      "type": "function"
    },
    {
      "inputs": [],
      "name": "MAX_ALLOWED_GAS_FEE",
      "outputs": [
        {
          "internalType": "uint256",
          "name": "",
          "type": "uint256"
        }
      ],
      "stateMutability": "view",
      "type": "function"
    },
    {
      "inputs": [],
      "name": "MAX_MINT_PER_TRANSACTION",
      "outputs": [
        {
          "internalType": "uint256",
          "name": "",
          "type": "uint256"
        }
      ],
      "stateMutability": "view",
      "type": "function"
    },
    {
      "inputs": [],
      "name": "MAX_PRE_SALE_MINT_PER_ADDRESS",
      "outputs": [
        {
          "internalType": "uint256",
          "name": "",
          "type": "uint256"
        }
      ],
      "stateMutability": "view",
      "type": "function"
    },
    {
      "inputs": [],
      "name": "MAX_TOTAL_MINT",
      "outputs": [
        {
          "internalType": "uint256",
          "name": "",
          "type": "uint256"
        }
      ],
      "stateMutability": "view",
      "type": "function"
    },
    {
      "inputs": [],
      "name": "MINTER_ROLE",
      "outputs": [
        {
          "internalType": "bytes32",
          "name": "",
          "type": "bytes32"
        }
      ],
      "stateMutability": "view",
      "type": "function"
    },
    {
      "inputs": [],
      "name": "PRICE",
      "outputs": [
        {
          "internalType": "uint256",
          "name": "",
          "type": "uint256"
        }
      ],
      "stateMutability": "view",
      "type": "function"
    },
    {
      "inputs": [
        {
          "internalType": "address[]",
          "name": "addresses",
          "type": "address[]"
        }
      ],
      "name": "addToPreSaleAllowList",
      "outputs": [],
      "stateMutability": "nonpayable",
      "type": "function"
    },
    {
      "inputs": [
        {
          "internalType": "address",
          "name": "to",
          "type": "address"
        },
        {
          "internalType": "uint256",
          "name": "tokenId",
          "type": "uint256"
        }
      ],
      "name": "approve",
      "outputs": [],
      "stateMutability": "nonpayable",
      "type": "function"
    },
    {
      "inputs": [
        {
          "internalType": "address",
          "name": "owner",
          "type": "address"
        }
      ],
      "name": "balanceOf",
      "outputs": [
        {
          "internalType": "uint256",
          "name": "",
          "type": "uint256"
        }
      ],
      "stateMutability": "view",
      "type": "function"
    },
    {
      "inputs": [],
      "name": "contractURI",
      "outputs": [
        {
          "internalType": "string",
          "name": "",
          "type": "string"
        }
      ],
      "stateMutability": "view",
      "type": "function"
    },
    {
      "inputs": [
        {
          "internalType": "uint256",
          "name": "tokenId",
          "type": "uint256"
        }
      ],
      "name": "getApproved",
      "outputs": [
        {
          "internalType": "address",
          "name": "",
          "type": "address"
        }
      ],
      "stateMutability": "view",
      "type": "function"
    },
    {
      "inputs": [
        {
          "internalType": "uint256",
          "name": "id",
          "type": "uint256"
        }
      ],
      "name": "getRaribleV2Royalties",
      "outputs": [
        {
          "components": [
            {
              "internalType": "address payable",
              "name": "account",
              "type": "address"
            },
            {
              "internalType": "uint96",
              "name": "value",
              "type": "uint96"
            }
          ],
          "internalType": "struct LibPart.Part[]",
          "name": "result",
          "type": "tuple[]"
        }
      ],
      "stateMutability": "view",
      "type": "function"
    },
    {
      "inputs": [
        {
          "internalType": "bytes32",
          "name": "role",
          "type": "bytes32"
        }
      ],
      "name": "getRoleAdmin",
      "outputs": [
        {
          "internalType": "bytes32",
          "name": "",
          "type": "bytes32"
        }
      ],
      "stateMutability": "view",
      "type": "function"
    },
    {
      "inputs": [
        {
          "internalType": "bytes32",
          "name": "role",
          "type": "bytes32"
        },
        {
          "internalType": "address",
          "name": "account",
          "type": "address"
        }
      ],
      "name": "grantRole",
      "outputs": [],
      "stateMutability": "nonpayable",
      "type": "function"
    },
    {
      "inputs": [
        {
          "internalType": "bytes32",
          "name": "role",
          "type": "bytes32"
        },
        {
          "internalType": "address",
          "name": "account",
          "type": "address"
        }
      ],
      "name": "hasRole",
      "outputs": [
        {
          "internalType": "bool",
          "name": "",
          "type": "bool"
        }
      ],
      "stateMutability": "view",
      "type": "function"
    },
    {
      "inputs": [
        {
          "internalType": "address",
          "name": "owner",
          "type": "address"
        },
        {
          "internalType": "address",
          "name": "operator",
          "type": "address"
        }
      ],
      "name": "isApprovedForAll",
      "outputs": [
        {
          "internalType": "bool",
          "name": "",
          "type": "bool"
        }
      ],
      "stateMutability": "view",
      "type": "function"
    },
    {
      "inputs": [
        {
          "internalType": "address",
          "name": "to",
          "type": "address"
        },
        {
          "internalType": "uint256",
          "name": "count",
          "type": "uint256"
        }
      ],
      "name": "mint",
      "outputs": [],
      "stateMutability": "nonpayable",
      "type": "function"
    },
    {
      "inputs": [],
      "name": "name",
      "outputs": [
        {
          "internalType": "string",
          "name": "",
          "type": "string"
        }
      ],
      "stateMutability": "view",
      "type": "function"
    },
    {
      "inputs": [
        {
          "internalType": "address",
          "name": "addr",
          "type": "address"
        }
      ],
      "name": "onPreSaleAllowList",
      "outputs": [
        {
          "internalType": "bool",
          "name": "",
          "type": "bool"
        }
      ],
      "stateMutability": "view",
      "type": "function"
    },
    {
      "inputs": [],
      "name": "owner",
      "outputs": [
        {
          "internalType": "address",
          "name": "",
          "type": "address"
        }
      ],
      "stateMutability": "view",
      "type": "function"
    },
    {
      "inputs": [
        {
          "internalType": "uint256",
          "name": "tokenId",
          "type": "uint256"
        }
      ],
      "name": "ownerOf",
      "outputs": [
        {
          "internalType": "address",
          "name": "",
          "type": "address"
        }
      ],
      "stateMutability": "view",
      "type": "function"
    },
    {
      "inputs": [
        {
          "internalType": "uint256",
          "name": "count",
          "type": "uint256"
        }
      ],
      "name": "purchase",
      "outputs": [],
      "stateMutability": "payable",
      "type": "function"
    },
    {
      "inputs": [],
      "name": "renounceOwnership",
      "outputs": [],
      "stateMutability": "nonpayable",
      "type": "function"
    },
    {
      "inputs": [
        {
          "internalType": "bytes32",
          "name": "role",
          "type": "bytes32"
        },
        {
          "internalType": "address",
          "name": "account",
          "type": "address"
        }
      ],
      "name": "renounceRole",
      "outputs": [],
      "stateMutability": "nonpayable",
      "type": "function"
    },
    {
      "inputs": [
        {
          "internalType": "bytes32",
          "name": "role",
          "type": "bytes32"
        },
        {
          "internalType": "address",
          "name": "account",
          "type": "address"
        }
      ],
      "name": "revokeRole",
      "outputs": [],
      "stateMutability": "nonpayable",
      "type": "function"
    },
    {
      "inputs": [
        {
          "internalType": "address",
          "name": "from",
          "type": "address"
        },
        {
          "internalType": "address",
          "name": "to",
          "type": "address"
        },
        {
          "internalType": "uint256",
          "name": "tokenId",
          "type": "uint256"
        }
      ],
      "name": "safeTransferFrom",
      "outputs": [],
      "stateMutability": "nonpayable",
      "type": "function"
    },
    {
      "inputs": [
        {
          "internalType": "address",
          "name": "from",
          "type": "address"
        },
        {
          "internalType": "address",
          "name": "to",
          "type": "address"
        },
        {
          "internalType": "uint256",
          "name": "tokenId",
          "type": "uint256"
        },
        {
          "internalType": "bytes",
          "name": "_data",
          "type": "bytes"
        }
      ],
      "name": "safeTransferFrom",
      "outputs": [],
      "stateMutability": "nonpayable",
      "type": "function"
    },
    {
      "inputs": [
        {
          "internalType": "address",
          "name": "operator",
          "type": "address"
        },
        {
          "internalType": "bool",
          "name": "approved",
          "type": "bool"
        }
      ],
      "name": "setApprovalForAll",
      "outputs": [],
      "stateMutability": "nonpayable",
      "type": "function"
    },
    {
      "inputs": [
        {
          "internalType": "string",
          "name": "baseURI",
          "type": "string"
        }
      ],
      "name": "setBaseURI",
      "outputs": [],
      "stateMutability": "nonpayable",
      "type": "function"
    },
    {
      "inputs": [
        {
          "internalType": "string",
          "name": "uri",
          "type": "string"
        }
      ],
      "name": "setContractURI",
      "outputs": [],
      "stateMutability": "nonpayable",
      "type": "function"
    },
    {
      "inputs": [
        {
          "internalType": "uint256",
          "name": "maxFeeGwei",
          "type": "uint256"
        }
      ],
      "name": "setMaxAllowedGasFee",
      "outputs": [],
      "stateMutability": "nonpayable",
      "type": "function"
    },
    {
      "inputs": [
        {
          "internalType": "address",
          "name": "addr",
          "type": "address"
        }
      ],
      "name": "setOpenSeaProxyRegistryAddress",
      "outputs": [],
      "stateMutability": "nonpayable",
      "type": "function"
    },
    {
      "inputs": [
        {
          "internalType": "string",
          "name": "placeholderURI",
          "type": "string"
        }
      ],
      "name": "setPlaceholderURI",
      "outputs": [],
      "stateMutability": "nonpayable",
      "type": "function"
    },
    {
      "inputs": [
        {
          "internalType": "address",
          "name": "addr",
          "type": "address"
        }
      ],
      "name": "setRaribleRoyaltyAddress",
      "outputs": [],
      "stateMutability": "nonpayable",
      "type": "function"
    },
    {
      "inputs": [
        {
          "internalType": "bytes4",
          "name": "interfaceId",
          "type": "bytes4"
        }
      ],
      "name": "supportsInterface",
      "outputs": [
        {
          "internalType": "bool",
          "name": "",
          "type": "bool"
        }
      ],
      "stateMutability": "view",
      "type": "function"
    },
    {
      "inputs": [],
      "name": "symbol",
      "outputs": [
        {
          "internalType": "string",
          "name": "",
          "type": "string"
        }
      ],
      "stateMutability": "view",
      "type": "function"
    },
    {
      "inputs": [
        {
          "internalType": "bool",
          "name": "isActive",
          "type": "bool"
        }
      ],
      "name": "togglePreSale",
      "outputs": [],
      "stateMutability": "nonpayable",
      "type": "function"
    },
    {
      "inputs": [
        {
          "internalType": "bool",
          "name": "isActive",
          "type": "bool"
        }
      ],
      "name": "togglePublicSale",
      "outputs": [],
      "stateMutability": "nonpayable",
      "type": "function"
    },
    {
      "inputs": [
        {
          "internalType": "bool",
          "name": "isActive",
          "type": "bool"
        }
      ],
      "name": "togglePurchaseEnabled",
      "outputs": [],
      "stateMutability": "nonpayable",
      "type": "function"
    },
    {
      "inputs": [
        {
          "internalType": "uint256",
          "name": "index",
          "type": "uint256"
        }
      ],
      "name": "tokenByIndex",
      "outputs": [
        {
          "internalType": "uint256",
          "name": "",
          "type": "uint256"
        }
      ],
      "stateMutability": "view",
      "type": "function"
    },
    {
      "inputs": [
        {
          "internalType": "address",
          "name": "owner",
          "type": "address"
        },
        {
          "internalType": "uint256",
          "name": "index",
          "type": "uint256"
        }
      ],
      "name": "tokenOfOwnerByIndex",
      "outputs": [
        {
          "internalType": "uint256",
          "name": "",
          "type": "uint256"
        }
      ],
      "stateMutability": "view",
      "type": "function"
    },
    {
      "inputs": [
        {
          "internalType": "uint256",
          "name": "_tokenId",
          "type": "uint256"
        }
      ],
      "name": "tokenURI",
      "outputs": [
        {
          "internalType": "string",
          "name": "",
          "type": "string"
        }
      ],
      "stateMutability": "view",
      "type": "function"
    },
    {
      "inputs": [],
      "name": "totalSupply",
      "outputs": [
        {
          "internalType": "uint256",
          "name": "",
          "type": "uint256"
        }
      ],
      "stateMutability": "view",
      "type": "function"
    },
    {
      "inputs": [
        {
          "internalType": "address",
          "name": "from",
          "type": "address"
        },
        {
          "internalType": "address",
          "name": "to",
          "type": "address"
        },
        {
          "internalType": "uint256",
          "name": "tokenId",
          "type": "uint256"
        }
      ],
      "name": "transferFrom",
      "outputs": [],
      "stateMutability": "nonpayable",
      "type": "function"
    },
    {
      "inputs": [
        {
          "internalType": "address",
          "name": "from",
          "type": "address"
        },
        {
          "internalType": "address",
          "name": "to",
          "type": "address"
        },
        {
          "internalType": "uint256[]",
          "name": "tokenIds",
          "type": "uint256[]"
        }
      ],
      "name": "transferFromBulk",
      "outputs": [],
      "stateMutability": "nonpayable",
      "type": "function"
    },
    {
      "inputs": [
        {
          "internalType": "address",
          "name": "newOwner",
          "type": "address"
        }
      ],
      "name": "transferOwnership",
      "outputs": [],
      "stateMutability": "nonpayable",
      "type": "function"
    },
    {
      "inputs": [],
      "name": "withdraw",
      "outputs": [],
      "stateMutability": "nonpayable",
      "type": "function"
    }
  ],
  "transactionHash": "0x113c363797d52ed8324a634f302ab563bd46d540ca1d6e72725591865523eb9c",
  "args": [
    "Unicorn Deck: Detective Agency",
    "DICK",
    "10000000000000000",
    50,
    2,
    10,
    0,
    "ipfs://QmSnkdGhDvMjroQbmJJQRGBVX9euh6hsbBgXoVxvrM6Uea",
    "ipfs://Qme1kZuziG8kW9gNwP2umDj27bGB9t6jMenEmWTkwyoGmy",
    "0x6e864419D0A0cbB8d14871b80dc2b2c503B0fD3F",
    "0xF57B2c51dED3A29e6891aba85459d600256Cf317"
  ],
  "solcInputHash": "65517058a01f9d4f76af17c6fb84386e",
  "bytecode": "0x608060405260006018553480156200001657600080fd5b5060405162003917380380620039178339810160408190526200003991620003d0565b8a518b908b90620000529060009060208501906200025a565b508051620000689060019060208401906200025a565b505050620000856200007f6200015060201b60201c565b62000154565b6001600b55600d899055600e889055600f879055601086905560118590558351620000b89060139060208701906200025a565b508251620000ce9060149060208601906200025a565b50601680546001600160a01b038085166001600160a01b03199283161790925560178054928416929091169190911790556200011360006200010d3390565b620001a6565b6200013f7f9f2df0fed2c77648de5860a4cc508cd0818c85b8b8a1ab4ceeef8d981c8956a6336200010d565b505050505050505050505062000543565b3390565b600a80546001600160a01b038381166001600160a01b0319831681179093556040519116919082907f8be0079c531659141344cd1fd0a4f28419497f9722a3daafe3b4186f6b6457e090600090a35050565b620001b28282620001b6565b5050565b6000828152600c602090815260408083206001600160a01b038516845290915290205460ff16620001b2576000828152600c602090815260408083206001600160a01b03851684529091529020805460ff19166001179055620002163390565b6001600160a01b0316816001600160a01b0316837f2f8788117e7eff1d82e926ec794901d17c78024a50270940304540a733656f0d60405160405180910390a45050565b8280546200026890620004f0565b90600052602060002090601f0160209004810192826200028c5760008555620002d7565b82601f10620002a757805160ff1916838001178555620002d7565b82800160010185558215620002d7579182015b82811115620002d7578251825591602001919060010190620002ba565b50620002e5929150620002e9565b5090565b5b80821115620002e55760008155600101620002ea565b80516001600160a01b03811681146200031857600080fd5b919050565b600082601f8301126200032e578081fd5b81516001600160401b03808211156200034b576200034b6200052d565b604051601f8301601f19908116603f011681019082821181831017156200037657620003766200052d565b8160405283815260209250868385880101111562000392578485fd5b8491505b83821015620003b5578582018301518183018401529082019062000396565b83821115620003c657848385830101525b9695505050505050565b60008060008060008060008060008060006101608c8e031215620003f2578687fd5b8b516001600160401b0381111562000408578788fd5b620004168e828f016200031d565b60208e0151909c5090506001600160401b0381111562000434578788fd5b620004428e828f016200031d565b9a505060408c0151985060608c0151975060808c0151965060a08c0151955060c08c0151945060e08c015160018060401b0381111562000480578485fd5b6200048e8e828f016200031d565b6101008e015190955090506001600160401b03811115620004ad578384fd5b620004bb8e828f016200031d565b935050620004cd6101208d0162000300565b9150620004de6101408d0162000300565b90509295989b509295989b9093969950565b600181811c908216806200050557607f821691505b602082108114156200052757634e487b7160e01b600052602260045260246000fd5b50919050565b634e487b7160e01b600052604160045260246000fd5b6133c480620005536000396000f3fe6080604052600436106102235760003560e01c806301ffc9a714610228578063059fb6f71461025d57806306fdde031461027f578063081812fc146102a157806308abf026146102ce578063095ea7b3146102ee57806318160ddd1461030e57806323b872dd1461032d5780632439ee561461034d578063248a9ca31461036357806324ef901e1461038357806327ae2b79146103995780632f2ff15d146103b95780632f745c59146103d95780633574a2dd146103f957806336568abe146104195780633b5f2188146104395780633ccfd60b1461047257806340c10f191461048757806342842e0e146104a75780634f6ccce7146104c757806355f804b3146104e75780636352211e146105075780636a8db7eb1461052757806370a0823114610547578063715018a6146105675780638c3cefa31461057c5780638d859f3e1461059c5780638da5cb5b146105b257806391d14854146105c7578063938e3d7b146105e757806395d89b4114610607578063a217fddf1461061c578063a22cb46514610631578063a279906f14610651578063b88d4fde14610667578063c87b56dd14610687578063cad96cca146106a7578063cf9e8e69146106d4578063d35ea456146106ea578063d53913931461070a578063d547741f1461072c578063e8a3d4851461074c578063e985e9c514610761578063efef39a114610781578063f1ace71914610794578063f2fde38b146107b4578063f6dc19c8146107d4575b600080fd5b34801561023457600080fd5b50610248610243366004612dd8565b6107f4565b60405190151581526020015b60405180910390f35b34801561026957600080fd5b5061027d610278366004612b2a565b610828565b005b34801561028b57600080fd5b506102946108d4565b6040516102549190613080565b3480156102ad57600080fd5b506102c16102bc366004612d9c565b610966565b6040516102549190612fce565b3480156102da57600080fd5b5061027d6102e9366004612ad6565b6109ee565b3480156102fa57600080fd5b5061027d610309366004612ce8565b610a3f565b34801561031a57600080fd5b506008545b604051908152602001610254565b34801561033957600080fd5b5061027d610348366004612bf8565b610b50565b34801561035957600080fd5b5061031f60115481565b34801561036f57600080fd5b5061031f61037e366004612d9c565b610b81565b34801561038f57600080fd5b5061031f60105481565b3480156103a557600080fd5b5061027d6103b4366004612d9c565b610b96565b3480156103c557600080fd5b5061027d6103d4366004612db4565b610bca565b3480156103e557600080fd5b5061031f6103f4366004612ce8565b610be8565b34801561040557600080fd5b5061027d610414366004612e2c565b610c81565b34801561042557600080fd5b5061027d610434366004612db4565b610cc7565b34801561044557600080fd5b50610248610454366004612ad6565b6001600160a01b031660009081526019602052604090205460ff1690565b34801561047e57600080fd5b5061027d610d41565b34801561049357600080fd5b5061027d6104a2366004612ce8565b610d9f565b3480156104b357600080fd5b5061027d6104c2366004612bf8565b610e7b565b3480156104d357600080fd5b5061031f6104e2366004612d9c565b610e96565b3480156104f357600080fd5b5061027d610502366004612e2c565b610f37565b34801561051357600080fd5b506102c1610522366004612d9c565b610f79565b34801561053357600080fd5b5061027d610542366004612d13565b610ff0565b34801561055357600080fd5b5061031f610562366004612ad6565b6111ee565b34801561057357600080fd5b5061027d611275565b34801561058857600080fd5b5061027d610597366004612d82565b6112b0565b3480156105a857600080fd5b5061031f600d5481565b3480156105be57600080fd5b506102c16112f9565b3480156105d357600080fd5b506102486105e2366004612db4565b611308565b3480156105f357600080fd5b5061027d610602366004612e2c565b611333565b34801561061357600080fd5b50610294611375565b34801561062857600080fd5b5061031f600081565b34801561063d57600080fd5b5061027d61064c366004612cb4565b611384565b34801561065d57600080fd5b5061031f600f5481565b34801561067357600080fd5b5061027d610682366004612c38565b611452565b34801561069357600080fd5b506102946106a2366004612d9c565b611484565b3480156106b357600080fd5b506106c76106c2366004612d9c565b61155e565b604051610254919061301f565b3480156106e057600080fd5b5061031f600e5481565b3480156106f657600080fd5b5061027d610705366004612d82565b611633565b34801561071657600080fd5b5061031f60008051602061334f83398151915281565b34801561073857600080fd5b5061027d610747366004612db4565b611675565b34801561075857600080fd5b50610294611692565b34801561076d57600080fd5b5061024861077c366004612af2565b6116a1565b61027d61078f366004612d9c565b611775565b3480156107a057600080fd5b5061027d6107af366004612d82565b611916565b3480156107c057600080fd5b5061027d6107cf366004612ad6565b611961565b3480156107e057600080fd5b5061027d6107ef366004612ad6565b611a01565b60006001600160e01b0319821663656cb66560e11b141561081757506001610823565b61082082611a52565b90505b919050565b60005b81518110156108ce576108653383838151811061085857634e487b7160e01b600052603260045260246000fd5b6020026020010151611a77565b61088a5760405162461bcd60e51b81526004016108819061311a565b60405180910390fd5b6108bc84848484815181106108af57634e487b7160e01b600052603260045260246000fd5b6020026020010151611b39565b806108c6816132b2565b91505061082b565b50505050565b6060600080546108e390613277565b80601f016020809104026020016040519081016040528092919081815260200182805461090f90613277565b801561095c5780601f106109315761010080835404028352916020019161095c565b820191906000526020600020905b81548152906001019060200180831161093f57829003601f168201915b5050505050905090565b600061097182611cd2565b6109d25760405162461bcd60e51b815260206004820152602c60248201527f4552433732313a20617070726f76656420717565727920666f72206e6f6e657860448201526b34b9ba32b73a103a37b5b2b760a11b6064820152608401610881565b506000908152600460205260409020546001600160a01b031690565b336109f76112f9565b6001600160a01b031614610a1d5760405162461bcd60e51b8152600401610881906130e5565b601780546001600160a01b0319166001600160a01b0392909216919091179055565b6000610a4a82610f79565b9050806001600160a01b0316836001600160a01b03161415610ab85760405162461bcd60e51b815260206004820152602160248201527f4552433732313a20617070726f76616c20746f2063757272656e74206f776e656044820152603960f91b6064820152608401610881565b336001600160a01b0382161480610ad45750610ad4813361077c565b610b415760405162461bcd60e51b815260206004820152603860248201527f4552433732313a20617070726f76652063616c6c6572206973206e6f74206f776044820152771b995c881b9bdc88185c1c1c9bdd995908199bdc88185b1b60421b6064820152608401610881565b610b4b8383611cef565b505050565b610b5a3382611a77565b610b765760405162461bcd60e51b81526004016108819061311a565b610b4b838383611b39565b6000908152600c602052604090206001015490565b33610b9f6112f9565b6001600160a01b031614610bc55760405162461bcd60e51b8152600401610881906130e5565b601155565b610bd382610b81565b610bde81335b611d5d565b610b4b8383611dc1565b6000610bf3836111ee565b8210610c555760405162461bcd60e51b815260206004820152602b60248201527f455243373231456e756d657261626c653a206f776e657220696e646578206f7560448201526a74206f6620626f756e647360a81b6064820152608401610881565b506001600160a01b03821660009081526006602090815260408083208484529091529020545b92915050565b33610c8a6112f9565b6001600160a01b031614610cb05760405162461bcd60e51b8152600401610881906130e5565b8051610cc39060149060208401906129d6565b5050565b6001600160a01b0381163314610d375760405162461bcd60e51b815260206004820152602f60248201527f416363657373436f6e74726f6c3a2063616e206f6e6c792072656e6f756e636560448201526e103937b632b9903337b91039b2b63360891b6064820152608401610881565b610cc38282611e47565b33610d4a6112f9565b6001600160a01b031614610d705760405162461bcd60e51b8152600401610881906130e5565b6040514790339082156108fc029083906000818181858888f19350505050158015610cc3573d6000803e3d6000fd5b6002600b541415610dc25760405162461bcd60e51b81526004016108819061316b565b6002600b55610ddf60008051602061334f83398151915233611308565b610e2b5760405162461bcd60e51b815260206004820152601f60248201527f424153455f434f4c4c454354494f4e2f4e4f545f4d494e5445525f524f4c45006044820152606401610881565b610e358282611eae565b60005b81811015610e71576000610e4a6120a4565b9050610e5684826120ba565b610e5e6120d4565b5080610e69816132b2565b915050610e38565b50506001600b5550565b610b4b83838360405180602001604052806000815250611452565b6000610ea160085490565b8210610f045760405162461bcd60e51b815260206004820152602c60248201527f455243373231456e756d657261626c653a20676c6f62616c20696e646578206f60448201526b7574206f6620626f756e647360a01b6064820152608401610881565b60088281548110610f2557634e487b7160e01b600052603260045260246000fd5b90600052602060002001549050919050565b33610f406112f9565b6001600160a01b031614610f665760405162461bcd60e51b8152600401610881906130e5565b8051610cc39060159060208401906129d6565b6000818152600260205260408120546001600160a01b0316806108205760405162461bcd60e51b815260206004820152602960248201527f4552433732313a206f776e657220717565727920666f72206e6f6e657869737460448201526832b73a103a37b5b2b760b91b6064820152608401610881565b33610ff96112f9565b6001600160a01b03161461101f5760405162461bcd60e51b8152600401610881906130e5565b60005b81811015610b4b57600083838381811061104c57634e487b7160e01b600052603260045260246000fd5b90506020020160208101906110619190612ad6565b6001600160a01b031614156110b55760405162461bcd60e51b815260206004820152601a60248201527943616e27742061646420746865206e756c6c206164647265737360301b6044820152606401610881565b6001601960008585858181106110db57634e487b7160e01b600052603260045260246000fd5b90506020020160208101906110f09190612ad6565b6001600160a01b0316815260208101919091526040016000908120805460ff191692151592909217909155601a8185858581811061113e57634e487b7160e01b600052603260045260246000fd5b90506020020160208101906111539190612ad6565b6001600160a01b03166001600160a01b0316815260200190815260200160002054116111805760006111db565b601a60008484848181106111a457634e487b7160e01b600052603260045260246000fd5b90506020020160208101906111b99190612ad6565b6001600160a01b03166001600160a01b03168152602001908152602001600020545b50806111e6816132b2565b915050611022565b60006001600160a01b0382166112595760405162461bcd60e51b815260206004820152602a60248201527f4552433732313a2062616c616e636520717565727920666f7220746865207a65604482015269726f206164647265737360b01b6064820152608401610881565b506001600160a01b031660009081526003602052604090205490565b3361127e6112f9565b6001600160a01b0316146112a45760405162461bcd60e51b8152600401610881906130e5565b6112ae60006120eb565b565b336112b96112f9565b6001600160a01b0316146112df5760405162461bcd60e51b8152600401610881906130e5565b601280549115156101000261ff0019909216919091179055565b600a546001600160a01b031690565b6000918252600c602090815260408084206001600160a01b0393909316845291905290205460ff1690565b3361133c6112f9565b6001600160a01b0316146113625760405162461bcd60e51b8152600401610881906130e5565b8051610cc39060139060208401906129d6565b6060600180546108e390613277565b6001600160a01b0382163314156113d95760405162461bcd60e51b815260206004820152601960248201527822a9219b99189d1030b8383937bb32903a379031b0b63632b960391b6044820152606401610881565b3360008181526005602090815260408083206001600160a01b0387168085529252909120805460ff1916841515179055906001600160a01b03167f17307eab39ab6107e8899845ad3d59bd9653f200f220920489ca2b5937696c3183604051611446911515815260200190565b60405180910390a35050565b61145c3383611a77565b6114785760405162461bcd60e51b81526004016108819061311a565b6108ce8484848461213d565b606060006015805461149590613277565b90501161152c57601480546114a990613277565b80601f01602080910402602001604051908101604052809291908181526020018280546114d590613277565b80156115225780601f106114f757610100808354040283529160200191611522565b820191906000526020600020905b81548152906001019060200180831161150557829003601f168201915b5050505050610820565b601561153783612170565b604051602001611548929190612eb9565b6040516020818303038152906040529050919050565b604080516001808252818301909252606091816020015b604080518082019091526000808252602082015281526020019060019003908161157557505060165481519192506001600160a01b03169082906000906115cc57634e487b7160e01b600052603260045260246000fd5b6020026020010151600001906001600160a01b031690816001600160a01b0316815250506127108160008151811061161457634e487b7160e01b600052603260045260246000fd5b6020908102919091018101516001600160601b03909216910152919050565b3361163c6112f9565b6001600160a01b0316146116625760405162461bcd60e51b8152600401610881906130e5565b6012805460ff1916911515919091179055565b61167e82610b81565b6116888133610bd9565b610b4b8383611e47565b6060601380546108e390613277565b60175460405163c455279160e01b81526000916001600160a01b039081169190841690829063c4552791906116da908890600401612fce565b60206040518083038186803b1580156116f257600080fd5b505afa158015611706573d6000803e3d6000fd5b505050506040513d601f19601f8201168201806040525081019061172a9190612e10565b6001600160a01b03161415611743576001915050610c7b565b6001600160a01b0380851660009081526005602090815260408083209387168352929052205460ff165b949350505050565b6002600b5414156117985760405162461bcd60e51b81526004016108819061316b565b6002600b55333b156117f85760405162461bcd60e51b8152602060048201526024808201527f424153455f434f4c4c454354494f4e2f434f4e54524143545f43414e4e4f545f60448201526310d0531360e21b6064820152608401610881565b6118023382611eae565b60125462010000900460ff166118645760405162461bcd60e51b815260206004820152602160248201527f424153455f434f4c4c454354494f4e2f50555243484153455f44495341424c456044820152601160fa1b6064820152608401610881565b3481600d5461187391906131fe565b11156118d15760405162461bcd60e51b815260206004820152602760248201527f424153455f434f4c4c454354494f4e2f494e53554646494349454e545f45544860448201526617d05353d5539560ca1b6064820152608401610881565b60005b8181101561190d5760006118e66120a4565b90506118f233826120ba565b6118fa6120d4565b5080611905816132b2565b9150506118d4565b50506001600b55565b3361191f6112f9565b6001600160a01b0316146119455760405162461bcd60e51b8152600401610881906130e5565b60128054911515620100000262ff000019909216919091179055565b3361196a6112f9565b6001600160a01b0316146119905760405162461bcd60e51b8152600401610881906130e5565b6001600160a01b0381166119f55760405162461bcd60e51b815260206004820152602660248201527f4f776e61626c653a206e6577206f776e657220697320746865207a65726f206160448201526564647265737360d01b6064820152608401610881565b6119fe816120eb565b50565b33611a0a6112f9565b6001600160a01b031614611a305760405162461bcd60e51b8152600401610881906130e5565b601680546001600160a01b0319166001600160a01b0392909216919091179055565b60006001600160e01b03198216637965db0b60e01b148061082057506108208261228a565b6000611a8282611cd2565b611ae35760405162461bcd60e51b815260206004820152602c60248201527f4552433732313a206f70657261746f7220717565727920666f72206e6f6e657860448201526b34b9ba32b73a103a37b5b2b760a11b6064820152608401610881565b6000611aee83610f79565b9050806001600160a01b0316846001600160a01b03161480611b295750836001600160a01b0316611b1e84610966565b6001600160a01b0316145b8061176d575061176d81856116a1565b826001600160a01b0316611b4c82610f79565b6001600160a01b031614611bb45760405162461bcd60e51b815260206004820152602960248201527f4552433732313a207472616e73666572206f6620746f6b656e2074686174206960448201526839903737ba1037bbb760b91b6064820152608401610881565b6001600160a01b038216611c165760405162461bcd60e51b8152602060048201526024808201527f4552433732313a207472616e7366657220746f20746865207a65726f206164646044820152637265737360e01b6064820152608401610881565b611c218383836122af565b611c2c600082611cef565b6001600160a01b0383166000908152600360205260408120805460019290611c5590849061321d565b90915550506001600160a01b0382166000908152600360205260408120805460019290611c839084906131d2565b909155505060008181526002602052604080822080546001600160a01b0319166001600160a01b03868116918217909255915184939187169160008051602061336f83398151915291a4505050565b6000908152600260205260409020546001600160a01b0316151590565b600081815260046020526040902080546001600160a01b0319166001600160a01b0384169081179091558190611d2482610f79565b6001600160a01b03167f8c5be1e5ebec7d5bd14f71427d1e84f3dd0314c0f7b2291e5b200ac8c7c3b92560405160405180910390a45050565b611d678282611308565b610cc357611d7f816001600160a01b0316601461236c565b611d8a83602061236c565b604051602001611d9b929190612f5f565b60408051601f198184030181529082905262461bcd60e51b825261088191600401613080565b611dcb8282611308565b610cc3576000828152600c602090815260408083206001600160a01b03851684529091529020805460ff19166001179055611e033390565b6001600160a01b0316816001600160a01b0316837f2f8788117e7eff1d82e926ec794901d17c78024a50270940304540a733656f0d60405160405180910390a45050565b611e518282611308565b15610cc3576000828152600c602090815260408083206001600160a01b0385168085529252808320805460ff1916905551339285917ff6391f5c32d9c69d2a47ea670b442974b53935d1edc7fd64eb21e047a839171b9190a45050565b601254610100900460ff1680611f1a575060125460ff168015611ee957506001600160a01b03821660009081526019602052604090205460ff165b8015611f1a5750600f546001600160a01b0383166000908152601a6020526040902054611f179083906131d2565b11155b611f645760405162461bcd60e51b815260206004820152601b60248201527a109054d157d0d3d3131150d51253d38bd0d0539393d517d3525395602a1b6044820152606401610881565b60115415611fd757601154611f7d90633b9aca006131fe565b3a10611fd75760405162461bcd60e51b815260206004820152602360248201527f424153455f434f4c4c454354494f4e2f4741535f4645455f4e4f545f414c4c4f60448201526215d15160ea1b6064820152608401610881565b600e5481611fe460085490565b611fee91906131d2565b11156120475760405162461bcd60e51b815260206004820152602260248201527f424153455f434f4c4c454354494f4e2f455843454544535f4d41585f535550506044820152614c5960f01b6064820152608401610881565b601054811115610cc35760405162461bcd60e51b815260206004820152602260248201527f424153455f434f4c4c454354494f4e2f455843454544535f4d41585f5045525f6044820152610a8b60f31b6064820152608401610881565b6018546000906120b5906001612554565b905090565b610cc3828260405180602001604052806000815250612560565b601880549060006120e4836132b2565b9190505550565b600a80546001600160a01b038381166001600160a01b0319831681179093556040519116919082907f8be0079c531659141344cd1fd0a4f28419497f9722a3daafe3b4186f6b6457e090600090a35050565b612148848484611b39565b61215484848484612593565b6108ce5760405162461bcd60e51b815260040161088190613093565b60608161219557506040805180820190915260018152600360fc1b6020820152610823565b8160005b81156121bf57806121a9816132b2565b91506121b89050600a836131ea565b9150612199565b6000816001600160401b038111156121e757634e487b7160e01b600052604160045260246000fd5b6040519080825280601f01601f191660200182016040528015612211576020820181803683370190505b5090505b841561176d5761222660018361321d565b9150612233600a866132cd565b61223e9060306131d2565b60f81b81838151811061226157634e487b7160e01b600052603260045260246000fd5b60200101906001600160f81b031916908160001a905350612283600a866131ea565b9450612215565b60006001600160e01b0319821663780e9d6360e01b14806108205750610820826126a0565b6001600160a01b03831661230a5761230581600880546000838152600960205260408120829055600182018355919091527ff3f7a9fe364faab93b216da50a3214154f22a0a2b415b23a84c8169e8b636ee30155565b61232d565b816001600160a01b0316836001600160a01b03161461232d5761232d83826126f0565b6001600160a01b038216612349576123448161278d565b610b4b565b826001600160a01b0316826001600160a01b031614610b4b57610b4b8282612866565b6060600061237b8360026131fe565b6123869060026131d2565b6001600160401b038111156123ab57634e487b7160e01b600052604160045260246000fd5b6040519080825280601f01601f1916602001820160405280156123d5576020820181803683370190505b509050600360fc1b816000815181106123fe57634e487b7160e01b600052603260045260246000fd5b60200101906001600160f81b031916908160001a905350600f60fb1b8160018151811061243b57634e487b7160e01b600052603260045260246000fd5b60200101906001600160f81b031916908160001a905350600061245f8460026131fe565b61246a9060016131d2565b90505b60018111156124fe576f181899199a1a9b1b9c1cb0b131b232b360811b85600f16601081106124ac57634e487b7160e01b600052603260045260246000fd5b1a60f81b8282815181106124d057634e487b7160e01b600052603260045260246000fd5b60200101906001600160f81b031916908160001a90535060049490941c936124f781613260565b905061246d565b50831561254d5760405162461bcd60e51b815260206004820181905260248201527f537472696e67733a20686578206c656e67746820696e73756666696369656e746044820152606401610881565b9392505050565b600061254d82846131d2565b61256a83836128aa565b6125776000848484612593565b610b4b5760405162461bcd60e51b815260040161088190613093565b60006001600160a01b0384163b1561269557604051630a85bd0160e11b81526001600160a01b0385169063150b7a02906125d7903390899088908890600401612fe2565b602060405180830381600087803b1580156125f157600080fd5b505af1925050508015612621575060408051601f3d908101601f1916820190925261261e91810190612df4565b60015b61267b573d80801561264f576040519150601f19603f3d011682016040523d82523d6000602084013e612654565b606091505b5080516126735760405162461bcd60e51b815260040161088190613093565b805181602001fd5b6001600160e01b031916630a85bd0160e11b14905061176d565b506001949350505050565b60006001600160e01b031982166380ac58cd60e01b14806126d157506001600160e01b03198216635b5e139f60e01b145b8061082057506301ffc9a760e01b6001600160e01b0319831614610820565b600060016126fd846111ee565b612707919061321d565b60008381526007602052604090205490915080821461275a576001600160a01b03841660009081526006602090815260408083208584528252808320548484528184208190558352600790915290208190555b5060009182526007602090815260408084208490556001600160a01b039094168352600681528383209183525290812055565b60085460009061279f9060019061321d565b600083815260096020526040812054600880549394509092849081106127d557634e487b7160e01b600052603260045260246000fd5b90600052602060002001549050806008838154811061280457634e487b7160e01b600052603260045260246000fd5b600091825260208083209091019290925582815260099091526040808220849055858252812055600880548061284a57634e487b7160e01b600052603160045260246000fd5b6001900381819060005260206000200160009055905550505050565b6000612871836111ee565b6001600160a01b039093166000908152600660209081526040808320868452825280832085905593825260079052919091209190915550565b6001600160a01b0382166129005760405162461bcd60e51b815260206004820181905260248201527f4552433732313a206d696e7420746f20746865207a65726f20616464726573736044820152606401610881565b61290981611cd2565b156129555760405162461bcd60e51b815260206004820152601c60248201527b115490cdcc8c4e881d1bdad95b88185b1c9958591e481b5a5b9d195960221b6044820152606401610881565b612961600083836122af565b6001600160a01b038216600090815260036020526040812080546001929061298a9084906131d2565b909155505060008181526002602052604080822080546001600160a01b0319166001600160a01b038616908117909155905183929060008051602061336f833981519152908290a45050565b8280546129e290613277565b90600052602060002090601f016020900481019282612a045760008555612a4a565b82601f10612a1d57805160ff1916838001178555612a4a565b82800160010185558215612a4a579182015b82811115612a4a578251825591602001919060010190612a2f565b50612a56929150612a5a565b5090565b5b80821115612a565760008155600101612a5b565b60006001600160401b03831115612a8857612a8861330d565b612a9b601f8401601f19166020016131a2565b9050828152838383011115612aaf57600080fd5b828260208301376000602084830101529392505050565b8035801515811461082357600080fd5b600060208284031215612ae7578081fd5b813561254d81613323565b60008060408385031215612b04578081fd5b8235612b0f81613323565b91506020830135612b1f81613323565b809150509250929050565b600080600060608486031215612b3e578081fd5b8335612b4981613323565b9250602084810135612b5a81613323565b925060408501356001600160401b0380821115612b75578384fd5b818701915087601f830112612b88578384fd5b813581811115612b9a57612b9a61330d565b8060051b9150612bab8483016131a2565b8181528481019084860184860187018c1015612bc5578788fd5b8795505b83861015612be7578035835260019590950194918601918601612bc9565b508096505050505050509250925092565b600080600060608486031215612c0c578283fd5b8335612c1781613323565b92506020840135612c2781613323565b929592945050506040919091013590565b60008060008060808587031215612c4d578081fd5b8435612c5881613323565b93506020850135612c6881613323565b92506040850135915060608501356001600160401b03811115612c89578182fd5b8501601f81018713612c99578182fd5b612ca887823560208401612a6f565b91505092959194509250565b60008060408385031215612cc6578182fd5b8235612cd181613323565b9150612cdf60208401612ac6565b90509250929050565b60008060408385031215612cfa578182fd5b8235612d0581613323565b946020939093013593505050565b60008060208385031215612d25578182fd5b82356001600160401b0380821115612d3b578384fd5b818501915085601f830112612d4e578384fd5b813581811115612d5c578485fd5b8660208260051b8501011115612d70578485fd5b60209290920196919550909350505050565b600060208284031215612d93578081fd5b61254d82612ac6565b600060208284031215612dad578081fd5b5035919050565b60008060408385031215612dc6578182fd5b823591506020830135612b1f81613323565b600060208284031215612de9578081fd5b813561254d81613338565b600060208284031215612e05578081fd5b815161254d81613338565b600060208284031215612e21578081fd5b815161254d81613323565b600060208284031215612e3d578081fd5b81356001600160401b03811115612e52578182fd5b8201601f81018413612e62578182fd5b61176d84823560208401612a6f565b60008151808452612e89816020860160208601613234565b601f01601f19169290920160200192915050565b60008151612eaf818560208601613234565b9290920192915050565b600080845482600182811c915080831680612ed557607f831692505b6020808410821415612ef557634e487b7160e01b87526022600452602487fd5b818015612f095760018114612f1a57612f46565b60ff19861689528489019650612f46565b60008b815260209020885b86811015612f3e5781548b820152908501908301612f25565b505084890196505b505050505050612f568185612e9d565b95945050505050565b600076020b1b1b2b9b9a1b7b73a3937b61d1030b1b1b7bab73a1604d1b82528351612f91816017850160208801613234565b7001034b99036b4b9b9b4b733903937b6329607d1b6017918401918201528351612fc2816028840160208801613234565b01602801949350505050565b6001600160a01b0391909116815260200190565b6001600160a01b038581168252841660208201526040810183905260806060820181905260009061301590830184612e71565b9695505050505050565b602080825282518282018190526000919060409081850190868401855b8281101561307357815180516001600160a01b031685528601516001600160601b031686850152928401929085019060010161303c565b5091979650505050505050565b60006020825261254d6020830184612e71565b60208082526032908201527f4552433732313a207472616e7366657220746f206e6f6e20455243373231526560408201527131b2b4bb32b91034b6b83632b6b2b73a32b960711b606082015260800190565b6020808252818101527f4f776e61626c653a2063616c6c6572206973206e6f7420746865206f776e6572604082015260600190565b60208082526031908201527f4552433732313a207472616e736665722063616c6c6572206973206e6f74206f6040820152701ddb995c881b9bdc88185c1c1c9bdd9959607a1b606082015260800190565b6020808252601f908201527f5265656e7472616e637947756172643a207265656e7472616e742063616c6c00604082015260600190565b604051601f8201601f191681016001600160401b03811182821017156131ca576131ca61330d565b604052919050565b600082198211156131e5576131e56132e1565b500190565b6000826131f9576131f96132f7565b500490565b6000816000190483118215151615613218576132186132e1565b500290565b60008282101561322f5761322f6132e1565b500390565b60005b8381101561324f578181015183820152602001613237565b838111156108ce5750506000910152565b60008161326f5761326f6132e1565b506000190190565b600181811c9082168061328b57607f821691505b602082108114156132ac57634e487b7160e01b600052602260045260246000fd5b50919050565b60006000198214156132c6576132c66132e1565b5060010190565b6000826132dc576132dc6132f7565b500690565b634e487b7160e01b600052601160045260246000fd5b634e487b7160e01b600052601260045260246000fd5b634e487b7160e01b600052604160045260246000fd5b6001600160a01b03811681146119fe57600080fd5b6001600160e01b0319811681146119fe57600080fdfe9f2df0fed2c77648de5860a4cc508cd0818c85b8b8a1ab4ceeef8d981c8956a6ddf252ad1be2c89b69c2b068fc378daa952ba7f163c4a11628f55a4df523b3efa2646970667358221220060dedb9381186b308844c45a6d1186aa2b1f75a126e00c7c17f5ffd4fdfc27964736f6c63430008030033",
  "devdoc": {
    "kind": "dev",
    "methods": {
      "approve(address,uint256)": {
        "details": "See {IERC721-approve}."
      },
      "balanceOf(address)": {
        "details": "See {IERC721-balanceOf}."
      },
      "getApproved(uint256)": {
        "details": "See {IERC721-getApproved}."
      },
      "getRoleAdmin(bytes32)": {
        "details": "Returns the admin role that controls `role`. See {grantRole} and {revokeRole}. To change a role's admin, use {_setRoleAdmin}."
      },
      "grantRole(bytes32,address)": {
        "details": "Grants `role` to `account`. If `account` had not been already granted `role`, emits a {RoleGranted} event. Requirements: - the caller must have ``role``'s admin role."
      },
      "hasRole(bytes32,address)": {
        "details": "Returns `true` if `account` has been granted `role`."
      },
      "name()": {
        "details": "See {IERC721Metadata-name}."
      },
      "owner()": {
        "details": "Returns the address of the current owner."
      },
      "ownerOf(uint256)": {
        "details": "See {IERC721-ownerOf}."
      },
      "renounceOwnership()": {
        "details": "Leaves the contract without owner. It will not be possible to call `onlyOwner` functions anymore. Can only be called by the current owner. NOTE: Renouncing ownership will leave the contract without an owner, thereby removing any functionality that is only available to the owner."
      },
      "renounceRole(bytes32,address)": {
        "details": "Revokes `role` from the calling account. Roles are often managed via {grantRole} and {revokeRole}: this function's purpose is to provide a mechanism for accounts to lose their privileges if they are compromised (such as when a trusted device is misplaced). If the calling account had been granted `role`, emits a {RoleRevoked} event. Requirements: - the caller must be `account`."
      },
      "revokeRole(bytes32,address)": {
        "details": "Revokes `role` from `account`. If `account` had been granted `role`, emits a {RoleRevoked} event. Requirements: - the caller must have ``role``'s admin role."
      },
      "safeTransferFrom(address,address,uint256)": {
        "details": "See {IERC721-safeTransferFrom}."
      },
      "safeTransferFrom(address,address,uint256,bytes)": {
        "details": "See {IERC721-safeTransferFrom}."
      },
      "setApprovalForAll(address,bool)": {
        "details": "See {IERC721-setApprovalForAll}."
      },
      "supportsInterface(bytes4)": {
        "details": "See {IERC165-supportsInterface}."
      },
      "symbol()": {
        "details": "See {IERC721Metadata-symbol}."
      },
      "tokenByIndex(uint256)": {
        "details": "See {IERC721Enumerable-tokenByIndex}."
      },
      "tokenOfOwnerByIndex(address,uint256)": {
        "details": "See {IERC721Enumerable-tokenOfOwnerByIndex}."
      },
      "totalSupply()": {
        "details": "See {IERC721Enumerable-totalSupply}."
      },
      "transferFrom(address,address,uint256)": {
        "details": "See {IERC721-transferFrom}."
      },
      "transferOwnership(address)": {
        "details": "Transfers ownership of the contract to a new account (`newOwner`). Can only be called by the current owner."
      }
    },
    "version": 1
  },
  "userdoc": {
    "kind": "user",
    "methods": {
      "isApprovedForAll(address,address)": {
        "notice": "Override isApprovedForAll to whitelist user's OpenSea proxy accounts to enable gas-less listings."
      },
      "mint(address,uint256)": {
        "notice": "Mints a specified number of tokens to an address without requiring payment. Caller must be an address with MINTER role. Useful for gifting by owner or integration with Flair.Finance funding options."
      },
      "purchase(uint256)": {
        "notice": "Accepts required payment and mints a specified number of tokens to an address. This method also checks if direct purchase is enabled."
      },
      "transferFromBulk(address,address,uint256[])": {
        "notice": "Useful for when user wants to return tokens to get a refund, or when they want to transfer lots of tokens by paying gas fee only once."
      }
    },
    "version": 1
  },
  "storageLayout": {
    "storage": [
      {
        "astId": 549,
        "contract": "contracts/ERC721Collection.sol:ERC721Collection",
        "label": "_name",
        "offset": 0,
        "slot": "0",
        "type": "t_string_storage"
      },
      {
        "astId": 551,
        "contract": "contracts/ERC721Collection.sol:ERC721Collection",
        "label": "_symbol",
        "offset": 0,
        "slot": "1",
        "type": "t_string_storage"
      },
      {
        "astId": 555,
        "contract": "contracts/ERC721Collection.sol:ERC721Collection",
        "label": "_owners",
        "offset": 0,
        "slot": "2",
        "type": "t_mapping(t_uint256,t_address)"
      },
      {
        "astId": 559,
        "contract": "contracts/ERC721Collection.sol:ERC721Collection",
        "label": "_balances",
        "offset": 0,
        "slot": "3",
        "type": "t_mapping(t_address,t_uint256)"
      },
      {
        "astId": 563,
        "contract": "contracts/ERC721Collection.sol:ERC721Collection",
        "label": "_tokenApprovals",
        "offset": 0,
        "slot": "4",
        "type": "t_mapping(t_uint256,t_address)"
      },
      {
        "astId": 569,
        "contract": "contracts/ERC721Collection.sol:ERC721Collection",
        "label": "_operatorApprovals",
        "offset": 0,
        "slot": "5",
        "type": "t_mapping(t_address,t_mapping(t_address,t_bool))"
      },
      {
        "astId": 1488,
        "contract": "contracts/ERC721Collection.sol:ERC721Collection",
        "label": "_ownedTokens",
        "offset": 0,
        "slot": "6",
        "type": "t_mapping(t_address,t_mapping(t_uint256,t_uint256))"
      },
      {
        "astId": 1492,
        "contract": "contracts/ERC721Collection.sol:ERC721Collection",
        "label": "_ownedTokensIndex",
        "offset": 0,
        "slot": "7",
        "type": "t_mapping(t_uint256,t_uint256)"
      },
      {
        "astId": 1495,
        "contract": "contracts/ERC721Collection.sol:ERC721Collection",
        "label": "_allTokens",
        "offset": 0,
        "slot": "8",
        "type": "t_array(t_uint256)dyn_storage"
      },
      {
        "astId": 1499,
        "contract": "contracts/ERC721Collection.sol:ERC721Collection",
        "label": "_allTokensIndex",
        "offset": 0,
        "slot": "9",
        "type": "t_mapping(t_uint256,t_uint256)"
      },
      {
        "astId": 387,
        "contract": "contracts/ERC721Collection.sol:ERC721Collection",
        "label": "_owner",
        "offset": 0,
        "slot": "10",
        "type": "t_address"
      },
      {
        "astId": 494,
        "contract": "contracts/ERC721Collection.sol:ERC721Collection",
        "label": "_status",
        "offset": 0,
        "slot": "11",
        "type": "t_uint256"
      },
      {
        "astId": 24,
        "contract": "contracts/ERC721Collection.sol:ERC721Collection",
        "label": "_roles",
        "offset": 0,
        "slot": "12",
        "type": "t_mapping(t_bytes32,t_struct(RoleData)19_storage)"
      },
      {
        "astId": 2779,
        "contract": "contracts/ERC721Collection.sol:ERC721Collection",
        "label": "PRICE",
        "offset": 0,
        "slot": "13",
        "type": "t_uint256"
      },
      {
        "astId": 2781,
        "contract": "contracts/ERC721Collection.sol:ERC721Collection",
        "label": "MAX_TOTAL_MINT",
        "offset": 0,
        "slot": "14",
        "type": "t_uint256"
      },
      {
        "astId": 2783,
        "contract": "contracts/ERC721Collection.sol:ERC721Collection",
        "label": "MAX_PRE_SALE_MINT_PER_ADDRESS",
        "offset": 0,
        "slot": "15",
        "type": "t_uint256"
      },
      {
        "astId": 2785,
        "contract": "contracts/ERC721Collection.sol:ERC721Collection",
        "label": "MAX_MINT_PER_TRANSACTION",
        "offset": 0,
        "slot": "16",
        "type": "t_uint256"
      },
      {
        "astId": 2787,
        "contract": "contracts/ERC721Collection.sol:ERC721Collection",
        "label": "MAX_ALLOWED_GAS_FEE",
        "offset": 0,
        "slot": "17",
        "type": "t_uint256"
      },
      {
        "astId": 2789,
        "contract": "contracts/ERC721Collection.sol:ERC721Collection",
        "label": "_isPreSaleActive",
        "offset": 0,
        "slot": "18",
        "type": "t_bool"
      },
      {
        "astId": 2791,
        "contract": "contracts/ERC721Collection.sol:ERC721Collection",
        "label": "_isPublicSaleActive",
        "offset": 1,
        "slot": "18",
        "type": "t_bool"
      },
      {
        "astId": 2793,
        "contract": "contracts/ERC721Collection.sol:ERC721Collection",
        "label": "_isPurchaseEnabled",
        "offset": 2,
        "slot": "18",
        "type": "t_bool"
      },
      {
        "astId": 2795,
        "contract": "contracts/ERC721Collection.sol:ERC721Collection",
        "label": "_contractURI",
        "offset": 0,
        "slot": "19",
        "type": "t_string_storage"
      },
      {
        "astId": 2797,
        "contract": "contracts/ERC721Collection.sol:ERC721Collection",
        "label": "_placeholderURI",
        "offset": 0,
        "slot": "20",
        "type": "t_string_storage"
      },
      {
        "astId": 2799,
        "contract": "contracts/ERC721Collection.sol:ERC721Collection",
        "label": "_baseTokenURI",
        "offset": 0,
        "slot": "21",
        "type": "t_string_storage"
      },
      {
        "astId": 2801,
        "contract": "contracts/ERC721Collection.sol:ERC721Collection",
        "label": "_raribleRoyaltyAddress",
        "offset": 0,
        "slot": "22",
        "type": "t_address"
      },
      {
        "astId": 2803,
        "contract": "contracts/ERC721Collection.sol:ERC721Collection",
        "label": "_openSeaProxyRegistryAddress",
        "offset": 0,
        "slot": "23",
        "type": "t_address"
      },
      {
        "astId": 2806,
        "contract": "contracts/ERC721Collection.sol:ERC721Collection",
        "label": "_currentTokenId",
        "offset": 0,
        "slot": "24",
        "type": "t_uint256"
      },
      {
        "astId": 2810,
        "contract": "contracts/ERC721Collection.sol:ERC721Collection",
        "label": "_preSaleAllowList",
        "offset": 0,
        "slot": "25",
        "type": "t_mapping(t_address,t_bool)"
      },
      {
        "astId": 2814,
        "contract": "contracts/ERC721Collection.sol:ERC721Collection",
        "label": "_preSaleAllowListClaimed",
        "offset": 0,
        "slot": "26",
        "type": "t_mapping(t_address,t_uint256)"
      }
    ],
    "types": {
      "t_address": {
        "encoding": "inplace",
        "label": "address",
        "numberOfBytes": "20"
      },
      "t_array(t_uint256)dyn_storage": {
        "base": "t_uint256",
        "encoding": "dynamic_array",
        "label": "uint256[]",
        "numberOfBytes": "32"
      },
      "t_bool": {
        "encoding": "inplace",
        "label": "bool",
        "numberOfBytes": "1"
      },
      "t_bytes32": {
        "encoding": "inplace",
        "label": "bytes32",
        "numberOfBytes": "32"
      },
      "t_mapping(t_address,t_bool)": {
        "encoding": "mapping",
        "key": "t_address",
        "label": "mapping(address => bool)",
        "numberOfBytes": "32",
        "value": "t_bool"
      },
      "t_mapping(t_address,t_mapping(t_address,t_bool))": {
        "encoding": "mapping",
        "key": "t_address",
        "label": "mapping(address => mapping(address => bool))",
        "numberOfBytes": "32",
        "value": "t_mapping(t_address,t_bool)"
      },
      "t_mapping(t_address,t_mapping(t_uint256,t_uint256))": {
        "encoding": "mapping",
        "key": "t_address",
        "label": "mapping(address => mapping(uint256 => uint256))",
        "numberOfBytes": "32",
        "value": "t_mapping(t_uint256,t_uint256)"
      },
      "t_mapping(t_address,t_uint256)": {
        "encoding": "mapping",
        "key": "t_address",
        "label": "mapping(address => uint256)",
        "numberOfBytes": "32",
        "value": "t_uint256"
      },
      "t_mapping(t_bytes32,t_struct(RoleData)19_storage)": {
        "encoding": "mapping",
        "key": "t_bytes32",
        "label": "mapping(bytes32 => struct AccessControl.RoleData)",
        "numberOfBytes": "32",
        "value": "t_struct(RoleData)19_storage"
      },
      "t_mapping(t_uint256,t_address)": {
        "encoding": "mapping",
        "key": "t_uint256",
        "label": "mapping(uint256 => address)",
        "numberOfBytes": "32",
        "value": "t_address"
      },
      "t_mapping(t_uint256,t_uint256)": {
        "encoding": "mapping",
        "key": "t_uint256",
        "label": "mapping(uint256 => uint256)",
        "numberOfBytes": "32",
        "value": "t_uint256"
      },
      "t_string_storage": {
        "encoding": "bytes",
        "label": "string",
        "numberOfBytes": "32"
      },
      "t_struct(RoleData)19_storage": {
        "encoding": "inplace",
        "label": "struct AccessControl.RoleData",
        "members": [
          {
            "astId": 16,
            "contract": "contracts/ERC721Collection.sol:ERC721Collection",
            "label": "members",
            "offset": 0,
            "slot": "0",
            "type": "t_mapping(t_address,t_bool)"
          },
          {
            "astId": 18,
            "contract": "contracts/ERC721Collection.sol:ERC721Collection",
            "label": "adminRole",
            "offset": 0,
            "slot": "1",
            "type": "t_bytes32"
          }
        ],
        "numberOfBytes": "64"
      },
      "t_uint256": {
        "encoding": "inplace",
        "label": "uint256",
        "numberOfBytes": "32"
      }
    }
  }
}