{
  "address": "0xBAf8Ca740Ba8fEa43C3441Fa0857321B7B01A23B",
  "abi": [
    {
      "inputs": [
        {
          "internalType": "string",
          "name": "name",
          "type": "string"
        },
        {
          "internalType": "string",
          "name": "symbol",
          "type": "string"
        },
        {
          "internalType": "uint256",
          "name": "price",
          "type": "uint256"
        },
        {
          "internalType": "uint256",
          "name": "maxTotalMint",
          "type": "uint256"
        },
        {
          "internalType": "uint256",
          "name": "maxPreSaleMintPerAddress",
          "type": "uint256"
        },
        {
          "internalType": "uint256",
          "name": "maxMintPerTransaction",
          "type": "uint256"
        },
        {
          "internalType": "uint256",
          "name": "maxAllowedGasFee",
          "type": "uint256"
        },
        {
          "internalType": "string",
          "name": "contractURI",
          "type": "string"
        },
        {
          "internalType": "string",
          "name": "placeholderURI",
          "type": "string"
        },
        {
          "internalType": "address",
          "name": "raribleRoyaltyAddress",
          "type": "address"
        },
        {
          "internalType": "address",
          "name": "openSeaProxyRegistryAddress",
          "type": "address"
        }
      ],
      "stateMutability": "nonpayable",
      "type": "constructor"
    },
    {
      "anonymous": false,
      "inputs": [
        {
          "indexed": true,
          "internalType": "uint256",
          "name": "tokenId",
          "type": "uint256"
        },
        {
          "indexed": false,
          "internalType": "string",
          "name": "describer",
          "type": "string"
        }
      ],
      "name": "AppearedOnEpisode",
      "type": "event"
    },
    {
      "anonymous": false,
      "inputs": [
        {
          "indexed": true,
          "internalType": "address",
          "name": "owner",
          "type": "address"
        },
        {
          "indexed": true,
          "internalType": "address",
          "name": "approved",
          "type": "address"
        },
        {
          "indexed": true,
          "internalType": "uint256",
          "name": "tokenId",
          "type": "uint256"
        }
      ],
      "name": "Approval",
      "type": "event"
    },
    {
      "anonymous": false,
      "inputs": [
        {
          "indexed": true,
          "internalType": "address",
          "name": "owner",
          "type": "address"
        },
        {
          "indexed": true,
          "internalType": "address",
          "name": "operator",
          "type": "address"
        },
        {
          "indexed": false,
          "internalType": "bool",
          "name": "approved",
          "type": "bool"
        }
      ],
      "name": "ApprovalForAll",
      "type": "event"
    },
    {
      "anonymous": false,
      "inputs": [
        {
          "indexed": true,
          "internalType": "address",
          "name": "previousOwner",
          "type": "address"
        },
        {
          "indexed": true,
          "internalType": "address",
          "name": "newOwner",
          "type": "address"
        }
      ],
      "name": "OwnershipTransferred",
      "type": "event"
    },
    {
      "anonymous": false,
      "inputs": [
        {
          "indexed": true,
          "internalType": "bytes32",
          "name": "role",
          "type": "bytes32"
        },
        {
          "indexed": true,
          "internalType": "bytes32",
          "name": "previousAdminRole",
          "type": "bytes32"
        },
        {
          "indexed": true,
          "internalType": "bytes32",
          "name": "newAdminRole",
          "type": "bytes32"
        }
      ],
      "name": "RoleAdminChanged",
      "type": "event"
    },
    {
      "anonymous": false,
      "inputs": [
        {
          "indexed": true,
          "internalType": "bytes32",
          "name": "role",
          "type": "bytes32"
        },
        {
          "indexed": true,
          "internalType": "address",
          "name": "account",
          "type": "address"
        },
        {
          "indexed": true,
          "internalType": "address",
          "name": "sender",
          "type": "address"
        }
      ],
      "name": "RoleGranted",
      "type": "event"
    },
    {
      "anonymous": false,
      "inputs": [
        {
          "indexed": true,
          "internalType": "bytes32",
          "name": "role",
          "type": "bytes32"
        },
        {
          "indexed": true,
          "internalType": "address",
          "name": "account",
          "type": "address"
        },
        {
          "indexed": true,
          "internalType": "address",
          "name": "sender",
          "type": "address"
        }
      ],
      "name": "RoleRevoked",
      "type": "event"
    },
    {
      "anonymous": false,
      "inputs": [
        {
          "indexed": true,
          "internalType": "address",
          "name": "from",
          "type": "address"
        },
        {
          "indexed": true,
          "internalType": "address",
          "name": "to",
          "type": "address"
        },
        {
          "indexed": true,
          "internalType": "uint256",
          "name": "tokenId",
          "type": "uint256"
        }
      ],
      "name": "Transfer",
      "type": "event"
    },
    {
      "inputs": [],
      "name": "DEFAULT_ADMIN_ROLE",
      "outputs": [
        {
          "internalType": "bytes32",
          "name": "",
          "type": "bytes32"
        }
      ],
      "stateMutability": "view",
      "type": "function"
    },
    {
      "inputs": [],
      "name": "MAX_ALLOWED_GAS_FEE",
      "outputs": [
        {
          "internalType": "uint256",
          "name": "",
          "type": "uint256"
        }
      ],
      "stateMutability": "view",
      "type": "function"
    },
    {
      "inputs": [],
      "name": "MAX_MINT_PER_TRANSACTION",
      "outputs": [
        {
          "internalType": "uint256",
          "name": "",
          "type": "uint256"
        }
      ],
      "stateMutability": "view",
      "type": "function"
    },
    {
      "inputs": [],
      "name": "MAX_PRE_SALE_MINT_PER_ADDRESS",
      "outputs": [
        {
          "internalType": "uint256",
          "name": "",
          "type": "uint256"
        }
      ],
      "stateMutability": "view",
      "type": "function"
    },
    {
      "inputs": [],
      "name": "MAX_TOTAL_MINT",
      "outputs": [
        {
          "internalType": "uint256",
          "name": "",
          "type": "uint256"
        }
      ],
      "stateMutability": "view",
      "type": "function"
    },
    {
      "inputs": [],
      "name": "MINTER_ROLE",
      "outputs": [
        {
          "internalType": "bytes32",
          "name": "",
          "type": "bytes32"
        }
      ],
      "stateMutability": "view",
      "type": "function"
    },
    {
      "inputs": [],
      "name": "PRICE",
      "outputs": [
        {
          "internalType": "uint256",
          "name": "",
          "type": "uint256"
        }
      ],
      "stateMutability": "view",
      "type": "function"
    },
    {
      "inputs": [
        {
          "internalType": "uint256",
          "name": "tokenId",
          "type": "uint256"
        },
        {
          "internalType": "string",
          "name": "describer",
          "type": "string"
        }
      ],
      "name": "addEpisodeAppearance",
      "outputs": [],
      "stateMutability": "nonpayable",
      "type": "function"
    },
    {
      "inputs": [
        {
          "internalType": "address[]",
          "name": "addresses",
          "type": "address[]"
        }
      ],
      "name": "addToPreSaleAllowList",
      "outputs": [],
      "stateMutability": "nonpayable",
      "type": "function"
    },
    {
      "inputs": [
        {
          "internalType": "address",
          "name": "to",
          "type": "address"
        },
        {
          "internalType": "uint256",
          "name": "tokenId",
          "type": "uint256"
        }
      ],
      "name": "approve",
      "outputs": [],
      "stateMutability": "nonpayable",
      "type": "function"
    },
    {
      "inputs": [
        {
          "internalType": "address",
          "name": "owner",
          "type": "address"
        }
      ],
      "name": "balanceOf",
      "outputs": [
        {
          "internalType": "uint256",
          "name": "",
          "type": "uint256"
        }
      ],
      "stateMutability": "view",
      "type": "function"
    },
    {
      "inputs": [],
      "name": "contractURI",
      "outputs": [
        {
          "internalType": "string",
          "name": "",
          "type": "string"
        }
      ],
      "stateMutability": "view",
      "type": "function"
    },
    {
      "inputs": [
        {
          "internalType": "uint256",
          "name": "tokenId",
          "type": "uint256"
        }
      ],
      "name": "getApproved",
      "outputs": [
        {
          "internalType": "address",
          "name": "",
          "type": "address"
        }
      ],
      "stateMutability": "view",
      "type": "function"
    },
    {
      "inputs": [
        {
          "internalType": "uint256",
          "name": "tokenId",
          "type": "uint256"
        }
      ],
      "name": "getEpisodeAppearances",
      "outputs": [
        {
          "internalType": "string",
          "name": "",
          "type": "string"
        }
      ],
      "stateMutability": "view",
      "type": "function"
    },
    {
      "inputs": [
        {
          "internalType": "uint256",
          "name": "id",
          "type": "uint256"
        }
      ],
      "name": "getRaribleV2Royalties",
      "outputs": [
        {
          "components": [
            {
              "internalType": "address payable",
              "name": "account",
              "type": "address"
            },
            {
              "internalType": "uint96",
              "name": "value",
              "type": "uint96"
            }
          ],
          "internalType": "struct LibPart.Part[]",
          "name": "result",
          "type": "tuple[]"
        }
      ],
      "stateMutability": "view",
      "type": "function"
    },
    {
      "inputs": [
        {
          "internalType": "bytes32",
          "name": "role",
          "type": "bytes32"
        }
      ],
      "name": "getRoleAdmin",
      "outputs": [
        {
          "internalType": "bytes32",
          "name": "",
          "type": "bytes32"
        }
      ],
      "stateMutability": "view",
      "type": "function"
    },
    {
      "inputs": [
        {
          "internalType": "bytes32",
          "name": "role",
          "type": "bytes32"
        },
        {
          "internalType": "address",
          "name": "account",
          "type": "address"
        }
      ],
      "name": "grantRole",
      "outputs": [],
      "stateMutability": "nonpayable",
      "type": "function"
    },
    {
      "inputs": [
        {
          "internalType": "bytes32",
          "name": "role",
          "type": "bytes32"
        },
        {
          "internalType": "address",
          "name": "account",
          "type": "address"
        }
      ],
      "name": "hasRole",
      "outputs": [
        {
          "internalType": "bool",
          "name": "",
          "type": "bool"
        }
      ],
      "stateMutability": "view",
      "type": "function"
    },
    {
      "inputs": [
        {
          "internalType": "address",
          "name": "owner",
          "type": "address"
        },
        {
          "internalType": "address",
          "name": "operator",
          "type": "address"
        }
      ],
      "name": "isApprovedForAll",
      "outputs": [
        {
          "internalType": "bool",
          "name": "",
          "type": "bool"
        }
      ],
      "stateMutability": "view",
      "type": "function"
    },
    {
      "inputs": [
        {
          "internalType": "address",
          "name": "to",
          "type": "address"
        },
        {
          "internalType": "uint256",
          "name": "count",
          "type": "uint256"
        }
      ],
      "name": "mint",
      "outputs": [],
      "stateMutability": "nonpayable",
      "type": "function"
    },
    {
      "inputs": [],
      "name": "name",
      "outputs": [
        {
          "internalType": "string",
          "name": "",
          "type": "string"
        }
      ],
      "stateMutability": "view",
      "type": "function"
    },
    {
      "inputs": [
        {
          "internalType": "address",
          "name": "addr",
          "type": "address"
        }
      ],
      "name": "onPreSaleAllowList",
      "outputs": [
        {
          "internalType": "bool",
          "name": "",
          "type": "bool"
        }
      ],
      "stateMutability": "view",
      "type": "function"
    },
    {
      "inputs": [],
      "name": "owner",
      "outputs": [
        {
          "internalType": "address",
          "name": "",
          "type": "address"
        }
      ],
      "stateMutability": "view",
      "type": "function"
    },
    {
      "inputs": [
        {
          "internalType": "uint256",
          "name": "tokenId",
          "type": "uint256"
        }
      ],
      "name": "ownerOf",
      "outputs": [
        {
          "internalType": "address",
          "name": "",
          "type": "address"
        }
      ],
      "stateMutability": "view",
      "type": "function"
    },
    {
      "inputs": [
        {
          "internalType": "uint256",
          "name": "count",
          "type": "uint256"
        }
      ],
      "name": "purchase",
      "outputs": [],
      "stateMutability": "payable",
      "type": "function"
    },
    {
      "inputs": [],
      "name": "renounceOwnership",
      "outputs": [],
      "stateMutability": "nonpayable",
      "type": "function"
    },
    {
      "inputs": [
        {
          "internalType": "bytes32",
          "name": "role",
          "type": "bytes32"
        },
        {
          "internalType": "address",
          "name": "account",
          "type": "address"
        }
      ],
      "name": "renounceRole",
      "outputs": [],
      "stateMutability": "nonpayable",
      "type": "function"
    },
    {
      "inputs": [
        {
          "internalType": "bytes32",
          "name": "role",
          "type": "bytes32"
        },
        {
          "internalType": "address",
          "name": "account",
          "type": "address"
        }
      ],
      "name": "revokeRole",
      "outputs": [],
      "stateMutability": "nonpayable",
      "type": "function"
    },
    {
      "inputs": [
        {
          "internalType": "address",
          "name": "from",
          "type": "address"
        },
        {
          "internalType": "address",
          "name": "to",
          "type": "address"
        },
        {
          "internalType": "uint256",
          "name": "tokenId",
          "type": "uint256"
        }
      ],
      "name": "safeTransferFrom",
      "outputs": [],
      "stateMutability": "nonpayable",
      "type": "function"
    },
    {
      "inputs": [
        {
          "internalType": "address",
          "name": "from",
          "type": "address"
        },
        {
          "internalType": "address",
          "name": "to",
          "type": "address"
        },
        {
          "internalType": "uint256",
          "name": "tokenId",
          "type": "uint256"
        },
        {
          "internalType": "bytes",
          "name": "_data",
          "type": "bytes"
        }
      ],
      "name": "safeTransferFrom",
      "outputs": [],
      "stateMutability": "nonpayable",
      "type": "function"
    },
    {
      "inputs": [
        {
          "internalType": "address",
          "name": "operator",
          "type": "address"
        },
        {
          "internalType": "bool",
          "name": "approved",
          "type": "bool"
        }
      ],
      "name": "setApprovalForAll",
      "outputs": [],
      "stateMutability": "nonpayable",
      "type": "function"
    },
    {
      "inputs": [
        {
          "internalType": "string",
          "name": "baseURI",
          "type": "string"
        }
      ],
      "name": "setBaseURI",
      "outputs": [],
      "stateMutability": "nonpayable",
      "type": "function"
    },
    {
      "inputs": [
        {
          "internalType": "string",
          "name": "uri",
          "type": "string"
        }
      ],
      "name": "setContractURI",
      "outputs": [],
      "stateMutability": "nonpayable",
      "type": "function"
    },
    {
      "inputs": [
        {
          "internalType": "uint256",
          "name": "maxFeeGwei",
          "type": "uint256"
        }
      ],
      "name": "setMaxAllowedGasFee",
      "outputs": [],
      "stateMutability": "nonpayable",
      "type": "function"
    },
    {
      "inputs": [
        {
          "internalType": "address",
          "name": "addr",
          "type": "address"
        }
      ],
      "name": "setOpenSeaProxyRegistryAddress",
      "outputs": [],
      "stateMutability": "nonpayable",
      "type": "function"
    },
    {
      "inputs": [
        {
          "internalType": "string",
          "name": "placeholderURI",
          "type": "string"
        }
      ],
      "name": "setPlaceholderURI",
      "outputs": [],
      "stateMutability": "nonpayable",
      "type": "function"
    },
    {
      "inputs": [
        {
          "internalType": "address",
          "name": "addr",
          "type": "address"
        }
      ],
      "name": "setRaribleRoyaltyAddress",
      "outputs": [],
      "stateMutability": "nonpayable",
      "type": "function"
    },
    {
      "inputs": [
        {
          "internalType": "bytes4",
          "name": "interfaceId",
          "type": "bytes4"
        }
      ],
      "name": "supportsInterface",
      "outputs": [
        {
          "internalType": "bool",
          "name": "",
          "type": "bool"
        }
      ],
      "stateMutability": "view",
      "type": "function"
    },
    {
      "inputs": [],
      "name": "symbol",
      "outputs": [
        {
          "internalType": "string",
          "name": "",
          "type": "string"
        }
      ],
      "stateMutability": "view",
      "type": "function"
    },
    {
      "inputs": [
        {
          "internalType": "bool",
          "name": "isActive",
          "type": "bool"
        }
      ],
      "name": "togglePreSale",
      "outputs": [],
      "stateMutability": "nonpayable",
      "type": "function"
    },
    {
      "inputs": [
        {
          "internalType": "bool",
          "name": "isActive",
          "type": "bool"
        }
      ],
      "name": "togglePublicSale",
      "outputs": [],
      "stateMutability": "nonpayable",
      "type": "function"
    },
    {
      "inputs": [
        {
          "internalType": "bool",
          "name": "isActive",
          "type": "bool"
        }
      ],
      "name": "togglePurchaseEnabled",
      "outputs": [],
      "stateMutability": "nonpayable",
      "type": "function"
    },
    {
      "inputs": [
        {
          "internalType": "uint256",
          "name": "index",
          "type": "uint256"
        }
      ],
      "name": "tokenByIndex",
      "outputs": [
        {
          "internalType": "uint256",
          "name": "",
          "type": "uint256"
        }
      ],
      "stateMutability": "view",
      "type": "function"
    },
    {
      "inputs": [
        {
          "internalType": "uint256",
          "name": "tokenId",
          "type": "uint256"
        }
      ],
      "name": "tokenNameByIndex",
      "outputs": [
        {
          "internalType": "string",
          "name": "",
          "type": "string"
        }
      ],
      "stateMutability": "view",
      "type": "function"
    },
    {
      "inputs": [
        {
          "internalType": "address",
          "name": "owner",
          "type": "address"
        },
        {
          "internalType": "uint256",
          "name": "index",
          "type": "uint256"
        }
      ],
      "name": "tokenOfOwnerByIndex",
      "outputs": [
        {
          "internalType": "uint256",
          "name": "",
          "type": "uint256"
        }
      ],
      "stateMutability": "view",
      "type": "function"
    },
    {
      "inputs": [
        {
          "internalType": "uint256",
          "name": "_tokenId",
          "type": "uint256"
        }
      ],
      "name": "tokenURI",
      "outputs": [
        {
          "internalType": "string",
          "name": "",
          "type": "string"
        }
      ],
      "stateMutability": "view",
      "type": "function"
    },
    {
      "inputs": [],
      "name": "totalSupply",
      "outputs": [
        {
          "internalType": "uint256",
          "name": "",
          "type": "uint256"
        }
      ],
      "stateMutability": "view",
      "type": "function"
    },
    {
      "inputs": [
        {
          "internalType": "address",
          "name": "from",
          "type": "address"
        },
        {
          "internalType": "address",
          "name": "to",
          "type": "address"
        },
        {
          "internalType": "uint256",
          "name": "tokenId",
          "type": "uint256"
        }
      ],
      "name": "transferFrom",
      "outputs": [],
      "stateMutability": "nonpayable",
      "type": "function"
    },
    {
      "inputs": [
        {
          "internalType": "address",
          "name": "from",
          "type": "address"
        },
        {
          "internalType": "address",
          "name": "to",
          "type": "address"
        },
        {
          "internalType": "uint256[]",
          "name": "tokenIds",
          "type": "uint256[]"
        }
      ],
      "name": "transferFromBulk",
      "outputs": [],
      "stateMutability": "nonpayable",
      "type": "function"
    },
    {
      "inputs": [
        {
          "internalType": "address",
          "name": "newOwner",
          "type": "address"
        }
      ],
      "name": "transferOwnership",
      "outputs": [],
      "stateMutability": "nonpayable",
      "type": "function"
    },
    {
      "inputs": [],
      "name": "withdraw",
      "outputs": [],
      "stateMutability": "nonpayable",
      "type": "function"
    }
  ],
  "transactionHash": "0xf6f4f889cdff12d38f56917755a3facc69aaf6f25dd62127ef9bcec82e8d1ef6",
  "args": [
    "Unicorn Detective Agency",
    "UNICORN",
    "10000000000000000",
    300,
    2,
    10,
    0,
    "ipfs://QmX2gSysH3kTmx55SQpWfaMgPMSbVbEQzan4MN391Brkvs",
    "ipfs://QmWKmmT4Af5WGfU6P2HxnKHFdec5AmtLxC6uA3MngN83JJ",
    "0x6e864419D0A0cbB8d14871b80dc2b2c503B0fD3F",
    "0xF57B2c51dED3A29e6891aba85459d600256Cf317"
  ],
  "solcInputHash": "71e6ac56ff6991c835bb3d716fb7018a",
  "bytecode": "0x608060405260006018553480156200001657600080fd5b5060405162003c2038038062003c208339810160408190526200003991620003e7565b8a8a8a8a8a8a8a8a8a8a8a8a8a81600090805190602001906200005e92919062000271565b5080516200007490600190602084019062000271565b505050620000916200008b6200016760201b60201c565b6200016b565b6001600b55600d899055600e889055600f879055601086905560118590558351620000c490601390602087019062000271565b508251620000da90601490602086019062000271565b50601680546001600160a01b038085166001600160a01b03199283161790925560178054928416929091169190911790556200011f6000620001193390565b620001bd565b6200014b7f9f2df0fed2c77648de5860a4cc508cd0818c85b8b8a1ab4ceeef8d981c8956a63362000119565b505050505050505050505050505050505050505050506200055a565b3390565b600a80546001600160a01b038381166001600160a01b0319831681179093556040519116919082907f8be0079c531659141344cd1fd0a4f28419497f9722a3daafe3b4186f6b6457e090600090a35050565b620001c98282620001cd565b5050565b6000828152600c602090815260408083206001600160a01b038516845290915290205460ff16620001c9576000828152600c602090815260408083206001600160a01b03851684529091529020805460ff191660011790556200022d3390565b6001600160a01b0316816001600160a01b0316837f2f8788117e7eff1d82e926ec794901d17c78024a50270940304540a733656f0d60405160405180910390a45050565b8280546200027f9062000507565b90600052602060002090601f016020900481019282620002a35760008555620002ee565b82601f10620002be57805160ff1916838001178555620002ee565b82800160010185558215620002ee579182015b82811115620002ee578251825591602001919060010190620002d1565b50620002fc92915062000300565b5090565b5b80821115620002fc576000815560010162000301565b80516001600160a01b03811681146200032f57600080fd5b919050565b600082601f83011262000345578081fd5b81516001600160401b038082111562000362576200036262000544565b604051601f8301601f19908116603f011681019082821181831017156200038d576200038d62000544565b81604052838152602092508683858801011115620003a9578485fd5b8491505b83821015620003cc5785820183015181830184015290820190620003ad565b83821115620003dd57848385830101525b9695505050505050565b60008060008060008060008060008060006101608c8e03121562000409578687fd5b8b516001600160401b038111156200041f578788fd5b6200042d8e828f0162000334565b60208e0151909c5090506001600160401b038111156200044b578788fd5b620004598e828f0162000334565b9a505060408c0151985060608c0151975060808c0151965060a08c0151955060c08c0151945060e08c015160018060401b0381111562000497578485fd5b620004a58e828f0162000334565b6101008e015190955090506001600160401b03811115620004c4578384fd5b620004d28e828f0162000334565b935050620004e46101208d0162000317565b9150620004f56101408d0162000317565b90509295989b509295989b9093969950565b600181811c908216806200051c57607f821691505b602082108114156200053e57634e487b7160e01b600052602260045260246000fd5b50919050565b634e487b7160e01b600052604160045260246000fd5b6136b6806200056a6000396000f3fe6080604052600436106102445760003560e01c806301ffc9a714610249578063059fb6f71461027e57806306fdde03146102a0578063081812fc146102c257806308abf026146102ef578063095ea7b31461030f57806318160ddd1461032f57806323b872dd1461034e5780632439ee561461036e578063248a9ca31461038457806324ef901e146103a457806327ae2b79146103ba5780632f2ff15d146103da5780632f745c59146103fa5780633574a2dd1461041a57806336568abe1461043a5780633b5f21881461045a5780633ccfd60b1461049357806340c10f19146104a857806342842e0e146104c85780634f6ccce7146104e857806355f804b3146105085780636352211e1461052857806365206a8a146105485780636a8db7eb146105685780636d5224181461058857806370a08231146105a8578063715018a6146105c85780638c3cefa3146105dd5780638d859f3e146105fd5780638da5cb5b1461061357806391d1485414610628578063938e3d7b1461064857806395d89b41146106685780639aecdcb41461067d578063a217fddf1461069d578063a22cb465146106b2578063a279906f146106d2578063b88d4fde146106e8578063c87b56dd14610708578063cad96cca14610728578063cf9e8e6914610755578063d35ea4561461076b578063d53913931461078b578063d547741f146107ad578063e8a3d485146107cd578063e985e9c5146107e2578063efef39a114610802578063f1ace71914610815578063f2fde38b14610835578063f6dc19c814610855575b600080fd5b34801561025557600080fd5b50610269610264366004613040565b610875565b60405190151581526020015b60405180910390f35b34801561028a57600080fd5b5061029e610299366004612d92565b6108a9565b005b3480156102ac57600080fd5b506102b5610955565b6040516102759190613378565b3480156102ce57600080fd5b506102e26102dd366004613004565b6109e7565b60405161027591906132c6565b3480156102fb57600080fd5b5061029e61030a366004612d3e565b610a6f565b34801561031b57600080fd5b5061029e61032a366004612f50565b610ac0565b34801561033b57600080fd5b506008545b604051908152602001610275565b34801561035a57600080fd5b5061029e610369366004612e60565b610bd1565b34801561037a57600080fd5b5061034060115481565b34801561039057600080fd5b5061034061039f366004613004565b610c02565b3480156103b057600080fd5b5061034060105481565b3480156103c657600080fd5b5061029e6103d5366004613004565b610c17565b3480156103e657600080fd5b5061029e6103f536600461301c565b610c4b565b34801561040657600080fd5b50610340610415366004612f50565b610c69565b34801561042657600080fd5b5061029e610435366004613094565b610d02565b34801561044657600080fd5b5061029e61045536600461301c565b610d48565b34801561046657600080fd5b50610269610475366004612d3e565b6001600160a01b031660009081526019602052604090205460ff1690565b34801561049f57600080fd5b5061029e610dc2565b3480156104b457600080fd5b5061029e6104c3366004612f50565b610e20565b3480156104d457600080fd5b5061029e6104e3366004612e60565b610efc565b3480156104f457600080fd5b50610340610503366004613004565b610f17565b34801561051457600080fd5b5061029e610523366004613094565b610fb8565b34801561053457600080fd5b506102e2610543366004613004565b610ffa565b34801561055457600080fd5b506102b5610563366004613004565b611071565b34801561057457600080fd5b5061029e610583366004612f7b565b611113565b34801561059457600080fd5b506102b56105a3366004613004565b611311565b3480156105b457600080fd5b506103406105c3366004612d3e565b6113ac565b3480156105d457600080fd5b5061029e611433565b3480156105e957600080fd5b5061029e6105f8366004612fea565b61146e565b34801561060957600080fd5b50610340600d5481565b34801561061f57600080fd5b506102e26114b7565b34801561063457600080fd5b5061026961064336600461301c565b6114c6565b34801561065457600080fd5b5061029e610663366004613094565b6114f1565b34801561067457600080fd5b506102b5611533565b34801561068957600080fd5b5061029e6106983660046130c6565b611542565b3480156106a957600080fd5b50610340600081565b3480156106be57600080fd5b5061029e6106cd366004612f1c565b6115cd565b3480156106de57600080fd5b50610340600f5481565b3480156106f457600080fd5b5061029e610703366004612ea0565b61169b565b34801561071457600080fd5b506102b5610723366004613004565b6116cd565b34801561073457600080fd5b50610748610743366004613004565b6117a7565b6040516102759190613317565b34801561076157600080fd5b50610340600e5481565b34801561077757600080fd5b5061029e610786366004612fea565b61187c565b34801561079757600080fd5b5061034060008051602061364183398151915281565b3480156107b957600080fd5b5061029e6107c836600461301c565b6118be565b3480156107d957600080fd5b506102b56118db565b3480156107ee57600080fd5b506102696107fd366004612d5a565b6118ea565b61029e610810366004613004565b6119be565b34801561082157600080fd5b5061029e610830366004612fea565b611b5f565b34801561084157600080fd5b5061029e610850366004612d3e565b611baa565b34801561086157600080fd5b5061029e610870366004612d3e565b611c4a565b60006001600160e01b0319821663656cb66560e11b1415610898575060016108a4565b6108a182611c9b565b90505b919050565b60005b815181101561094f576108e6338383815181106108d957634e487b7160e01b600052603260045260246000fd5b6020026020010151611cc0565b61090b5760405162461bcd60e51b815260040161090290613412565b60405180910390fd5b61093d848484848151811061093057634e487b7160e01b600052603260045260246000fd5b6020026020010151611d82565b80610947816135a4565b9150506108ac565b50505050565b6060600080546109649061356f565b80601f01602080910402602001604051908101604052809291908181526020018280546109909061356f565b80156109dd5780601f106109b2576101008083540402835291602001916109dd565b820191906000526020600020905b8154815290600101906020018083116109c057829003601f168201915b5050505050905090565b60006109f282611f1b565b610a535760405162461bcd60e51b815260206004820152602c60248201527f4552433732313a20617070726f76656420717565727920666f72206e6f6e657860448201526b34b9ba32b73a103a37b5b2b760a11b6064820152608401610902565b506000908152600460205260409020546001600160a01b031690565b33610a786114b7565b6001600160a01b031614610a9e5760405162461bcd60e51b8152600401610902906133dd565b601780546001600160a01b0319166001600160a01b0392909216919091179055565b6000610acb82610ffa565b9050806001600160a01b0316836001600160a01b03161415610b395760405162461bcd60e51b815260206004820152602160248201527f4552433732313a20617070726f76616c20746f2063757272656e74206f776e656044820152603960f91b6064820152608401610902565b336001600160a01b0382161480610b555750610b5581336107fd565b610bc25760405162461bcd60e51b815260206004820152603860248201527f4552433732313a20617070726f76652063616c6c6572206973206e6f74206f776044820152771b995c881b9bdc88185c1c1c9bdd995908199bdc88185b1b60421b6064820152608401610902565b610bcc8383611f38565b505050565b610bdb3382611cc0565b610bf75760405162461bcd60e51b815260040161090290613412565b610bcc838383611d82565b6000908152600c602052604090206001015490565b33610c206114b7565b6001600160a01b031614610c465760405162461bcd60e51b8152600401610902906133dd565b601155565b610c5482610c02565b610c5f81335b611fa6565b610bcc838361200a565b6000610c74836113ac565b8210610cd65760405162461bcd60e51b815260206004820152602b60248201527f455243373231456e756d657261626c653a206f776e657220696e646578206f7560448201526a74206f6620626f756e647360a81b6064820152608401610902565b506001600160a01b03821660009081526006602090815260408083208484529091529020545b92915050565b33610d0b6114b7565b6001600160a01b031614610d315760405162461bcd60e51b8152600401610902906133dd565b8051610d44906014906020840190612c1f565b5050565b6001600160a01b0381163314610db85760405162461bcd60e51b815260206004820152602f60248201527f416363657373436f6e74726f6c3a2063616e206f6e6c792072656e6f756e636560448201526e103937b632b9903337b91039b2b63360891b6064820152608401610902565b610d448282612090565b33610dcb6114b7565b6001600160a01b031614610df15760405162461bcd60e51b8152600401610902906133dd565b6040514790339082156108fc029083906000818181858888f19350505050158015610d44573d6000803e3d6000fd5b6002600b541415610e435760405162461bcd60e51b815260040161090290613463565b6002600b55610e60600080516020613641833981519152336114c6565b610eac5760405162461bcd60e51b815260206004820152601f60248201527f424153455f434f4c4c454354494f4e2f4e4f545f4d494e5445525f524f4c45006044820152606401610902565b610eb682826120f7565b60005b81811015610ef2576000610ecb6122ed565b9050610ed78482612303565b610edf61231d565b5080610eea816135a4565b915050610eb9565b50506001600b5550565b610bcc8383836040518060200160405280600081525061169b565b6000610f2260085490565b8210610f855760405162461bcd60e51b815260206004820152602c60248201527f455243373231456e756d657261626c653a20676c6f62616c20696e646578206f60448201526b7574206f6620626f756e647360a01b6064820152608401610902565b60088281548110610fa657634e487b7160e01b600052603260045260246000fd5b90600052602060002001549050919050565b33610fc16114b7565b6001600160a01b031614610fe75760405162461bcd60e51b8152600401610902906133dd565b8051610d44906015906020840190612c1f565b6000818152600260205260408120546001600160a01b0316806108a15760405162461bcd60e51b815260206004820152602960248201527f4552433732313a206f776e657220717565727920666f72206e6f6e657869737460448201526832b73a103a37b5b2b760b91b6064820152608401610902565b6000818152601b6020526040902080546060919061108e9061356f565b80601f01602080910402602001604051908101604052809291908181526020018280546110ba9061356f565b80156111075780601f106110dc57610100808354040283529160200191611107565b820191906000526020600020905b8154815290600101906020018083116110ea57829003601f168201915b50505050509050919050565b3361111c6114b7565b6001600160a01b0316146111425760405162461bcd60e51b8152600401610902906133dd565b60005b81811015610bcc57600083838381811061116f57634e487b7160e01b600052603260045260246000fd5b90506020020160208101906111849190612d3e565b6001600160a01b031614156111d85760405162461bcd60e51b815260206004820152601a60248201527943616e27742061646420746865206e756c6c206164647265737360301b6044820152606401610902565b6001601960008585858181106111fe57634e487b7160e01b600052603260045260246000fd5b90506020020160208101906112139190612d3e565b6001600160a01b0316815260208101919091526040016000908120805460ff191692151592909217909155601a8185858581811061126157634e487b7160e01b600052603260045260246000fd5b90506020020160208101906112769190612d3e565b6001600160a01b03166001600160a01b0316815260200190815260200160002054116112a35760006112fe565b601a60008484848181106112c757634e487b7160e01b600052603260045260246000fd5b90506020020160208101906112dc9190612d3e565b6001600160a01b03166001600160a01b03168152602001908152602001600020545b5080611309816135a4565b915050611145565b6060600061131e83612334565b60405160200161132e9190613226565b60408051601f198184030181529181526000858152601b6020529081208054929350909161135b9061356f565b9050111561139f5780601b60008581526020019081526020016000206040516020016113889291906131ce565b6040516020818303038152906040529150506108a4565b90506108a4565b50919050565b60006001600160a01b0382166114175760405162461bcd60e51b815260206004820152602a60248201527f4552433732313a2062616c616e636520717565727920666f7220746865207a65604482015269726f206164647265737360b01b6064820152608401610902565b506001600160a01b031660009081526003602052604090205490565b3361143c6114b7565b6001600160a01b0316146114625760405162461bcd60e51b8152600401610902906133dd565b61146c600061244e565b565b336114776114b7565b6001600160a01b03161461149d5760405162461bcd60e51b8152600401610902906133dd565b601280549115156101000261ff0019909216919091179055565b600a546001600160a01b031690565b6000918252600c602090815260408084206001600160a01b0393909316845291905290205460ff1690565b336114fa6114b7565b6001600160a01b0316146115205760405162461bcd60e51b8152600401610902906133dd565b8051610d44906013906020840190612c1f565b6060600180546109649061356f565b3361154b6114b7565b6001600160a01b0316146115715760405162461bcd60e51b8152600401610902906133dd565b6000828152601b60209081526040909120825161159092840190612c1f565b50817fc1b46fe1b7d3adb83629a9c5017294c09e3d657ffdcafa0693a2a00368369552826040516115c19190613378565b60405180910390a25050565b6001600160a01b0382163314156116225760405162461bcd60e51b815260206004820152601960248201527822a9219b99189d1030b8383937bb32903a379031b0b63632b960391b6044820152606401610902565b3360008181526005602090815260408083206001600160a01b0387168085529252909120805460ff1916841515179055906001600160a01b03167f17307eab39ab6107e8899845ad3d59bd9653f200f220920489ca2b5937696c318360405161168f911515815260200190565b60405180910390a35050565b6116a53383611cc0565b6116c15760405162461bcd60e51b815260040161090290613412565b61094f848484846124a0565b60606000601580546116de9061356f565b90501161177557601480546116f29061356f565b80601f016020809104026020016040519081016040528092919081815260200182805461171e9061356f565b801561176b5780601f106117405761010080835404028352916020019161176b565b820191906000526020600020905b81548152906001019060200180831161174e57829003601f168201915b50505050506108a1565b601561178083612334565b604051602001611791929190613201565b6040516020818303038152906040529050919050565b604080516001808252818301909252606091816020015b60408051808201909152600080825260208201528152602001906001900390816117be57505060165481519192506001600160a01b031690829060009061181557634e487b7160e01b600052603260045260246000fd5b6020026020010151600001906001600160a01b031690816001600160a01b0316815250506127108160008151811061185d57634e487b7160e01b600052603260045260246000fd5b6020908102919091018101516001600160601b03909216910152919050565b336118856114b7565b6001600160a01b0316146118ab5760405162461bcd60e51b8152600401610902906133dd565b6012805460ff1916911515919091179055565b6118c782610c02565b6118d18133610c5a565b610bcc8383612090565b6060601380546109649061356f565b60175460405163c455279160e01b81526000916001600160a01b039081169190841690829063c4552791906119239088906004016132c6565b60206040518083038186803b15801561193b57600080fd5b505afa15801561194f573d6000803e3d6000fd5b505050506040513d601f19601f820116820180604052508101906119739190613078565b6001600160a01b0316141561198c576001915050610cfc565b6001600160a01b0380851660009081526005602090815260408083209387168352929052205460ff165b949350505050565b6002600b5414156119e15760405162461bcd60e51b815260040161090290613463565b6002600b55333b15611a415760405162461bcd60e51b8152602060048201526024808201527f424153455f434f4c4c454354494f4e2f434f4e54524143545f43414e4e4f545f60448201526310d0531360e21b6064820152608401610902565b611a4b33826120f7565b60125462010000900460ff16611aad5760405162461bcd60e51b815260206004820152602160248201527f424153455f434f4c4c454354494f4e2f50555243484153455f44495341424c456044820152601160fa1b6064820152608401610902565b3481600d54611abc91906134f6565b1115611b1a5760405162461bcd60e51b815260206004820152602760248201527f424153455f434f4c4c454354494f4e2f494e53554646494349454e545f45544860448201526617d05353d5539560ca1b6064820152608401610902565b60005b81811015611b56576000611b2f6122ed565b9050611b3b3382612303565b611b4361231d565b5080611b4e816135a4565b915050611b1d565b50506001600b55565b33611b686114b7565b6001600160a01b031614611b8e5760405162461bcd60e51b8152600401610902906133dd565b60128054911515620100000262ff000019909216919091179055565b33611bb36114b7565b6001600160a01b031614611bd95760405162461bcd60e51b8152600401610902906133dd565b6001600160a01b038116611c3e5760405162461bcd60e51b815260206004820152602660248201527f4f776e61626c653a206e6577206f776e657220697320746865207a65726f206160448201526564647265737360d01b6064820152608401610902565b611c478161244e565b50565b33611c536114b7565b6001600160a01b031614611c795760405162461bcd60e51b8152600401610902906133dd565b601680546001600160a01b0319166001600160a01b0392909216919091179055565b60006001600160e01b03198216637965db0b60e01b14806108a157506108a1826124d3565b6000611ccb82611f1b565b611d2c5760405162461bcd60e51b815260206004820152602c60248201527f4552433732313a206f70657261746f7220717565727920666f72206e6f6e657860448201526b34b9ba32b73a103a37b5b2b760a11b6064820152608401610902565b6000611d3783610ffa565b9050806001600160a01b0316846001600160a01b03161480611d725750836001600160a01b0316611d67846109e7565b6001600160a01b0316145b806119b657506119b681856118ea565b826001600160a01b0316611d9582610ffa565b6001600160a01b031614611dfd5760405162461bcd60e51b815260206004820152602960248201527f4552433732313a207472616e73666572206f6620746f6b656e2074686174206960448201526839903737ba1037bbb760b91b6064820152608401610902565b6001600160a01b038216611e5f5760405162461bcd60e51b8152602060048201526024808201527f4552433732313a207472616e7366657220746f20746865207a65726f206164646044820152637265737360e01b6064820152608401610902565b611e6a8383836124f8565b611e75600082611f38565b6001600160a01b0383166000908152600360205260408120805460019290611e9e908490613515565b90915550506001600160a01b0382166000908152600360205260408120805460019290611ecc9084906134ca565b909155505060008181526002602052604080822080546001600160a01b0319166001600160a01b03868116918217909255915184939187169160008051602061366183398151915291a4505050565b6000908152600260205260409020546001600160a01b0316151590565b600081815260046020526040902080546001600160a01b0319166001600160a01b0384169081179091558190611f6d82610ffa565b6001600160a01b03167f8c5be1e5ebec7d5bd14f71427d1e84f3dd0314c0f7b2291e5b200ac8c7c3b92560405160405180910390a45050565b611fb082826114c6565b610d4457611fc8816001600160a01b031660146125b5565b611fd38360206125b5565b604051602001611fe4929190613257565b60408051601f198184030181529082905262461bcd60e51b825261090291600401613378565b61201482826114c6565b610d44576000828152600c602090815260408083206001600160a01b03851684529091529020805460ff1916600117905561204c3390565b6001600160a01b0316816001600160a01b0316837f2f8788117e7eff1d82e926ec794901d17c78024a50270940304540a733656f0d60405160405180910390a45050565b61209a82826114c6565b15610d44576000828152600c602090815260408083206001600160a01b0385168085529252808320805460ff1916905551339285917ff6391f5c32d9c69d2a47ea670b442974b53935d1edc7fd64eb21e047a839171b9190a45050565b601254610100900460ff1680612163575060125460ff16801561213257506001600160a01b03821660009081526019602052604090205460ff165b80156121635750600f546001600160a01b0383166000908152601a60205260409020546121609083906134ca565b11155b6121ad5760405162461bcd60e51b815260206004820152601b60248201527a109054d157d0d3d3131150d51253d38bd0d0539393d517d3525395602a1b6044820152606401610902565b60115415612220576011546121c690633b9aca006134f6565b3a106122205760405162461bcd60e51b815260206004820152602360248201527f424153455f434f4c4c454354494f4e2f4741535f4645455f4e4f545f414c4c4f60448201526215d15160ea1b6064820152608401610902565b600e548161222d60085490565b61223791906134ca565b11156122905760405162461bcd60e51b815260206004820152602260248201527f424153455f434f4c4c454354494f4e2f455843454544535f4d41585f535550506044820152614c5960f01b6064820152608401610902565b601054811115610d445760405162461bcd60e51b815260206004820152602260248201527f424153455f434f4c4c454354494f4e2f455843454544535f4d41585f5045525f6044820152610a8b60f31b6064820152608401610902565b6018546000906122fe90600161279d565b905090565b610d448282604051806020016040528060008152506127a9565b6018805490600061232d836135a4565b9190505550565b60608161235957506040805180820190915260018152600360fc1b60208201526108a4565b8160005b8115612383578061236d816135a4565b915061237c9050600a836134e2565b915061235d565b6000816001600160401b038111156123ab57634e487b7160e01b600052604160045260246000fd5b6040519080825280601f01601f1916602001820160405280156123d5576020820181803683370190505b5090505b84156119b6576123ea600183613515565b91506123f7600a866135bf565b6124029060306134ca565b60f81b81838151811061242557634e487b7160e01b600052603260045260246000fd5b60200101906001600160f81b031916908160001a905350612447600a866134e2565b94506123d9565b600a80546001600160a01b038381166001600160a01b0319831681179093556040519116919082907f8be0079c531659141344cd1fd0a4f28419497f9722a3daafe3b4186f6b6457e090600090a35050565b6124ab848484611d82565b6124b7848484846127dc565b61094f5760405162461bcd60e51b81526004016109029061338b565b60006001600160e01b0319821663780e9d6360e01b14806108a157506108a1826128e9565b6001600160a01b0383166125535761254e81600880546000838152600960205260408120829055600182018355919091527ff3f7a9fe364faab93b216da50a3214154f22a0a2b415b23a84c8169e8b636ee30155565b612576565b816001600160a01b0316836001600160a01b031614612576576125768382612939565b6001600160a01b0382166125925761258d816129d6565b610bcc565b826001600160a01b0316826001600160a01b031614610bcc57610bcc8282612aaf565b606060006125c48360026134f6565b6125cf9060026134ca565b6001600160401b038111156125f457634e487b7160e01b600052604160045260246000fd5b6040519080825280601f01601f19166020018201604052801561261e576020820181803683370190505b509050600360fc1b8160008151811061264757634e487b7160e01b600052603260045260246000fd5b60200101906001600160f81b031916908160001a905350600f60fb1b8160018151811061268457634e487b7160e01b600052603260045260246000fd5b60200101906001600160f81b031916908160001a90535060006126a88460026134f6565b6126b39060016134ca565b90505b6001811115612747576f181899199a1a9b1b9c1cb0b131b232b360811b85600f16601081106126f557634e487b7160e01b600052603260045260246000fd5b1a60f81b82828151811061271957634e487b7160e01b600052603260045260246000fd5b60200101906001600160f81b031916908160001a90535060049490941c9361274081613558565b90506126b6565b5083156127965760405162461bcd60e51b815260206004820181905260248201527f537472696e67733a20686578206c656e67746820696e73756666696369656e746044820152606401610902565b9392505050565b600061279682846134ca565b6127b38383612af3565b6127c060008484846127dc565b610bcc5760405162461bcd60e51b81526004016109029061338b565b60006001600160a01b0384163b156128de57604051630a85bd0160e11b81526001600160a01b0385169063150b7a02906128209033908990889088906004016132da565b602060405180830381600087803b15801561283a57600080fd5b505af192505050801561286a575060408051601f3d908101601f191682019092526128679181019061305c565b60015b6128c4573d808015612898576040519150601f19603f3d011682016040523d82523d6000602084013e61289d565b606091505b5080516128bc5760405162461bcd60e51b81526004016109029061338b565b805181602001fd5b6001600160e01b031916630a85bd0160e11b1490506119b6565b506001949350505050565b60006001600160e01b031982166380ac58cd60e01b148061291a57506001600160e01b03198216635b5e139f60e01b145b806108a157506301ffc9a760e01b6001600160e01b03198316146108a1565b60006001612946846113ac565b6129509190613515565b6000838152600760205260409020549091508082146129a3576001600160a01b03841660009081526006602090815260408083208584528252808320548484528184208190558352600790915290208190555b5060009182526007602090815260408084208490556001600160a01b039094168352600681528383209183525290812055565b6008546000906129e890600190613515565b60008381526009602052604081205460088054939450909284908110612a1e57634e487b7160e01b600052603260045260246000fd5b906000526020600020015490508060088381548110612a4d57634e487b7160e01b600052603260045260246000fd5b6000918252602080832090910192909255828152600990915260408082208490558582528120556008805480612a9357634e487b7160e01b600052603160045260246000fd5b6001900381819060005260206000200160009055905550505050565b6000612aba836113ac565b6001600160a01b039093166000908152600660209081526040808320868452825280832085905593825260079052919091209190915550565b6001600160a01b038216612b495760405162461bcd60e51b815260206004820181905260248201527f4552433732313a206d696e7420746f20746865207a65726f20616464726573736044820152606401610902565b612b5281611f1b565b15612b9e5760405162461bcd60e51b815260206004820152601c60248201527b115490cdcc8c4e881d1bdad95b88185b1c9958591e481b5a5b9d195960221b6044820152606401610902565b612baa600083836124f8565b6001600160a01b0382166000908152600360205260408120805460019290612bd39084906134ca565b909155505060008181526002602052604080822080546001600160a01b0319166001600160a01b0386169081179091559051839290600080516020613661833981519152908290a45050565b828054612c2b9061356f565b90600052602060002090601f016020900481019282612c4d5760008555612c93565b82601f10612c6657805160ff1916838001178555612c93565b82800160010185558215612c93579182015b82811115612c93578251825591602001919060010190612c78565b50612c9f929150612ca3565b5090565b5b80821115612c9f5760008155600101612ca4565b60006001600160401b03831115612cd157612cd16135ff565b612ce4601f8401601f191660200161349a565b9050828152838383011115612cf857600080fd5b828260208301376000602084830101529392505050565b803580151581146108a457600080fd5b600082601f830112612d2f578081fd5b61279683833560208501612cb8565b600060208284031215612d4f578081fd5b813561279681613615565b60008060408385031215612d6c578081fd5b8235612d7781613615565b91506020830135612d8781613615565b809150509250929050565b600080600060608486031215612da6578081fd5b8335612db181613615565b9250602084810135612dc281613615565b925060408501356001600160401b0380821115612ddd578384fd5b818701915087601f830112612df0578384fd5b813581811115612e0257612e026135ff565b8060051b9150612e1384830161349a565b8181528481019084860184860187018c1015612e2d578788fd5b8795505b83861015612e4f578035835260019590950194918601918601612e31565b508096505050505050509250925092565b600080600060608486031215612e74578283fd5b8335612e7f81613615565b92506020840135612e8f81613615565b929592945050506040919091013590565b60008060008060808587031215612eb5578081fd5b8435612ec081613615565b93506020850135612ed081613615565b92506040850135915060608501356001600160401b03811115612ef1578182fd5b8501601f81018713612f01578182fd5b612f1087823560208401612cb8565b91505092959194509250565b60008060408385031215612f2e578182fd5b8235612f3981613615565b9150612f4760208401612d0f565b90509250929050565b60008060408385031215612f62578182fd5b8235612f6d81613615565b946020939093013593505050565b60008060208385031215612f8d578182fd5b82356001600160401b0380821115612fa3578384fd5b818501915085601f830112612fb6578384fd5b813581811115612fc4578485fd5b8660208260051b8501011115612fd8578485fd5b60209290920196919550909350505050565b600060208284031215612ffb578081fd5b61279682612d0f565b600060208284031215613015578081fd5b5035919050565b6000806040838503121561302e578182fd5b823591506020830135612d8781613615565b600060208284031215613051578081fd5b81356127968161362a565b60006020828403121561306d578081fd5b81516127968161362a565b600060208284031215613089578081fd5b815161279681613615565b6000602082840312156130a5578081fd5b81356001600160401b038111156130ba578182fd5b6119b684828501612d1f565b600080604083850312156130d8578182fd5b8235915060208301356001600160401b038111156130f4578182fd5b61310085828601612d1f565b9150509250929050565b6000815180845261312281602086016020860161352c565b601f01601f19169290920160200192915050565b8054600090600181811c908083168061315057607f831692505b602080841082141561317057634e487b7160e01b86526022600452602486fd5b8180156131845760018114613195576131c2565b60ff198616895284890196506131c2565b60008881526020902060005b868110156131ba5781548b8201529085019083016131a1565b505084890196505b50505050505092915050565b600083516131e081846020880161352c565b600160fd1b9083019081526131f86001820185613136565b95945050505050565b600061320d8285613136565b835161321d81836020880161352c565b01949350505050565b600068436974697a656e202360b81b8252825161324a81600985016020870161352c565b9190910160090192915050565b600076020b1b1b2b9b9a1b7b73a3937b61d1030b1b1b7bab73a1604d1b8252835161328981601785016020880161352c565b7001034b99036b4b9b9b4b733903937b6329607d1b60179184019182015283516132ba81602884016020880161352c565b01602801949350505050565b6001600160a01b0391909116815260200190565b6001600160a01b038581168252841660208201526040810183905260806060820181905260009061330d9083018461310a565b9695505050505050565b602080825282518282018190526000919060409081850190868401855b8281101561336b57815180516001600160a01b031685528601516001600160601b0316868501529284019290850190600101613334565b5091979650505050505050565b600060208252612796602083018461310a565b60208082526032908201527f4552433732313a207472616e7366657220746f206e6f6e20455243373231526560408201527131b2b4bb32b91034b6b83632b6b2b73a32b960711b606082015260800190565b6020808252818101527f4f776e61626c653a2063616c6c6572206973206e6f7420746865206f776e6572604082015260600190565b60208082526031908201527f4552433732313a207472616e736665722063616c6c6572206973206e6f74206f6040820152701ddb995c881b9bdc88185c1c1c9bdd9959607a1b606082015260800190565b6020808252601f908201527f5265656e7472616e637947756172643a207265656e7472616e742063616c6c00604082015260600190565b604051601f8201601f191681016001600160401b03811182821017156134c2576134c26135ff565b604052919050565b600082198211156134dd576134dd6135d3565b500190565b6000826134f1576134f16135e9565b500490565b6000816000190483118215151615613510576135106135d3565b500290565b600082821015613527576135276135d3565b500390565b60005b8381101561354757818101518382015260200161352f565b8381111561094f5750506000910152565b600081613567576135676135d3565b506000190190565b600181811c9082168061358357607f821691505b602082108114156113a657634e487b7160e01b600052602260045260246000fd5b60006000198214156135b8576135b86135d3565b5060010190565b6000826135ce576135ce6135e9565b500690565b634e487b7160e01b600052601160045260246000fd5b634e487b7160e01b600052601260045260246000fd5b634e487b7160e01b600052604160045260246000fd5b6001600160a01b0381168114611c4757600080fd5b6001600160e01b031981168114611c4757600080fdfe9f2df0fed2c77648de5860a4cc508cd0818c85b8b8a1ab4ceeef8d981c8956a6ddf252ad1be2c89b69c2b068fc378daa952ba7f163c4a11628f55a4df523b3efa2646970667358221220eff480425431b79dbf418c616b8d119164b415e2a3a2fe2a7adbd138e435d81064736f6c63430008030033",
  "devdoc": {
    "kind": "dev",
    "methods": {
      "approve(address,uint256)": {
        "details": "See {IERC721-approve}."
      },
      "balanceOf(address)": {
        "details": "See {IERC721-balanceOf}."
      },
      "getApproved(uint256)": {
        "details": "See {IERC721-getApproved}."
      },
      "getRoleAdmin(bytes32)": {
        "details": "Returns the admin role that controls `role`. See {grantRole} and {revokeRole}. To change a role's admin, use {_setRoleAdmin}."
      },
      "grantRole(bytes32,address)": {
        "details": "Grants `role` to `account`. If `account` had not been already granted `role`, emits a {RoleGranted} event. Requirements: - the caller must have ``role``'s admin role."
      },
      "hasRole(bytes32,address)": {
        "details": "Returns `true` if `account` has been granted `role`."
      },
      "name()": {
        "details": "See {IERC721Metadata-name}."
      },
      "owner()": {
        "details": "Returns the address of the current owner."
      },
      "ownerOf(uint256)": {
        "details": "See {IERC721-ownerOf}."
      },
      "renounceOwnership()": {
        "details": "Leaves the contract without owner. It will not be possible to call `onlyOwner` functions anymore. Can only be called by the current owner. NOTE: Renouncing ownership will leave the contract without an owner, thereby removing any functionality that is only available to the owner."
      },
      "renounceRole(bytes32,address)": {
        "details": "Revokes `role` from the calling account. Roles are often managed via {grantRole} and {revokeRole}: this function's purpose is to provide a mechanism for accounts to lose their privileges if they are compromised (such as when a trusted device is misplaced). If the calling account had been granted `role`, emits a {RoleRevoked} event. Requirements: - the caller must be `account`."
      },
      "revokeRole(bytes32,address)": {
        "details": "Revokes `role` from `account`. If `account` had been granted `role`, emits a {RoleRevoked} event. Requirements: - the caller must have ``role``'s admin role."
      },
      "safeTransferFrom(address,address,uint256)": {
        "details": "See {IERC721-safeTransferFrom}."
      },
      "safeTransferFrom(address,address,uint256,bytes)": {
        "details": "See {IERC721-safeTransferFrom}."
      },
      "setApprovalForAll(address,bool)": {
        "details": "See {IERC721-setApprovalForAll}."
      },
      "supportsInterface(bytes4)": {
        "details": "See {IERC165-supportsInterface}."
      },
      "symbol()": {
        "details": "See {IERC721Metadata-symbol}."
      },
      "tokenByIndex(uint256)": {
        "details": "See {IERC721Enumerable-tokenByIndex}."
      },
      "tokenOfOwnerByIndex(address,uint256)": {
        "details": "See {IERC721Enumerable-tokenOfOwnerByIndex}."
      },
      "totalSupply()": {
        "details": "See {IERC721Enumerable-totalSupply}."
      },
      "transferFrom(address,address,uint256)": {
        "details": "See {IERC721-transferFrom}."
      },
      "transferOwnership(address)": {
        "details": "Transfers ownership of the contract to a new account (`newOwner`). Can only be called by the current owner."
      }
    },
    "version": 1
  },
  "userdoc": {
    "kind": "user",
    "methods": {
      "isApprovedForAll(address,address)": {
        "notice": "Override isApprovedForAll to whitelist user's OpenSea proxy accounts to enable gas-less listings."
      },
      "mint(address,uint256)": {
        "notice": "Mints a specified number of tokens to an address without requiring payment. Caller must be an address with MINTER role. Useful for gifting by owner or integration with Flair.Finance funding options."
      },
      "purchase(uint256)": {
        "notice": "Accepts required payment and mints a specified number of tokens to an address. This method also checks if direct purchase is enabled."
      },
      "transferFromBulk(address,address,uint256[])": {
        "notice": "Useful for when user wants to return tokens to get a refund, or when they want to transfer lots of tokens by paying gas fee only once."
      }
    },
    "version": 1
  },
  "storageLayout": {
    "storage": [
      {
        "astId": 549,
        "contract": "contracts/collections/UnicornDetectiveAgency.sol:UnicornDetectiveAgency",
        "label": "_name",
        "offset": 0,
        "slot": "0",
        "type": "t_string_storage"
      },
      {
        "astId": 551,
        "contract": "contracts/collections/UnicornDetectiveAgency.sol:UnicornDetectiveAgency",
        "label": "_symbol",
        "offset": 0,
        "slot": "1",
        "type": "t_string_storage"
      },
      {
        "astId": 555,
        "contract": "contracts/collections/UnicornDetectiveAgency.sol:UnicornDetectiveAgency",
        "label": "_owners",
        "offset": 0,
        "slot": "2",
        "type": "t_mapping(t_uint256,t_address)"
      },
      {
        "astId": 559,
        "contract": "contracts/collections/UnicornDetectiveAgency.sol:UnicornDetectiveAgency",
        "label": "_balances",
        "offset": 0,
        "slot": "3",
        "type": "t_mapping(t_address,t_uint256)"
      },
      {
        "astId": 563,
        "contract": "contracts/collections/UnicornDetectiveAgency.sol:UnicornDetectiveAgency",
        "label": "_tokenApprovals",
        "offset": 0,
        "slot": "4",
        "type": "t_mapping(t_uint256,t_address)"
      },
      {
        "astId": 569,
        "contract": "contracts/collections/UnicornDetectiveAgency.sol:UnicornDetectiveAgency",
        "label": "_operatorApprovals",
        "offset": 0,
        "slot": "5",
        "type": "t_mapping(t_address,t_mapping(t_address,t_bool))"
      },
      {
        "astId": 1488,
        "contract": "contracts/collections/UnicornDetectiveAgency.sol:UnicornDetectiveAgency",
        "label": "_ownedTokens",
        "offset": 0,
        "slot": "6",
        "type": "t_mapping(t_address,t_mapping(t_uint256,t_uint256))"
      },
      {
        "astId": 1492,
        "contract": "contracts/collections/UnicornDetectiveAgency.sol:UnicornDetectiveAgency",
        "label": "_ownedTokensIndex",
        "offset": 0,
        "slot": "7",
        "type": "t_mapping(t_uint256,t_uint256)"
      },
      {
        "astId": 1495,
        "contract": "contracts/collections/UnicornDetectiveAgency.sol:UnicornDetectiveAgency",
        "label": "_allTokens",
        "offset": 0,
        "slot": "8",
        "type": "t_array(t_uint256)dyn_storage"
      },
      {
        "astId": 1499,
        "contract": "contracts/collections/UnicornDetectiveAgency.sol:UnicornDetectiveAgency",
        "label": "_allTokensIndex",
        "offset": 0,
        "slot": "9",
        "type": "t_mapping(t_uint256,t_uint256)"
      },
      {
        "astId": 387,
        "contract": "contracts/collections/UnicornDetectiveAgency.sol:UnicornDetectiveAgency",
        "label": "_owner",
        "offset": 0,
        "slot": "10",
        "type": "t_address"
      },
      {
        "astId": 494,
        "contract": "contracts/collections/UnicornDetectiveAgency.sol:UnicornDetectiveAgency",
        "label": "_status",
        "offset": 0,
        "slot": "11",
        "type": "t_uint256"
      },
      {
        "astId": 24,
        "contract": "contracts/collections/UnicornDetectiveAgency.sol:UnicornDetectiveAgency",
        "label": "_roles",
        "offset": 0,
        "slot": "12",
        "type": "t_mapping(t_bytes32,t_struct(RoleData)19_storage)"
      },
      {
        "astId": 2779,
        "contract": "contracts/collections/UnicornDetectiveAgency.sol:UnicornDetectiveAgency",
        "label": "PRICE",
        "offset": 0,
        "slot": "13",
        "type": "t_uint256"
      },
      {
        "astId": 2781,
        "contract": "contracts/collections/UnicornDetectiveAgency.sol:UnicornDetectiveAgency",
        "label": "MAX_TOTAL_MINT",
        "offset": 0,
        "slot": "14",
        "type": "t_uint256"
      },
      {
        "astId": 2783,
        "contract": "contracts/collections/UnicornDetectiveAgency.sol:UnicornDetectiveAgency",
        "label": "MAX_PRE_SALE_MINT_PER_ADDRESS",
        "offset": 0,
        "slot": "15",
        "type": "t_uint256"
      },
      {
        "astId": 2785,
        "contract": "contracts/collections/UnicornDetectiveAgency.sol:UnicornDetectiveAgency",
        "label": "MAX_MINT_PER_TRANSACTION",
        "offset": 0,
        "slot": "16",
        "type": "t_uint256"
      },
      {
        "astId": 2787,
        "contract": "contracts/collections/UnicornDetectiveAgency.sol:UnicornDetectiveAgency",
        "label": "MAX_ALLOWED_GAS_FEE",
        "offset": 0,
        "slot": "17",
        "type": "t_uint256"
      },
      {
        "astId": 2789,
        "contract": "contracts/collections/UnicornDetectiveAgency.sol:UnicornDetectiveAgency",
        "label": "_isPreSaleActive",
        "offset": 0,
        "slot": "18",
        "type": "t_bool"
      },
      {
        "astId": 2791,
        "contract": "contracts/collections/UnicornDetectiveAgency.sol:UnicornDetectiveAgency",
        "label": "_isPublicSaleActive",
        "offset": 1,
        "slot": "18",
        "type": "t_bool"
      },
      {
        "astId": 2793,
        "contract": "contracts/collections/UnicornDetectiveAgency.sol:UnicornDetectiveAgency",
        "label": "_isPurchaseEnabled",
        "offset": 2,
        "slot": "18",
        "type": "t_bool"
      },
      {
        "astId": 2795,
        "contract": "contracts/collections/UnicornDetectiveAgency.sol:UnicornDetectiveAgency",
        "label": "_contractURI",
        "offset": 0,
        "slot": "19",
        "type": "t_string_storage"
      },
      {
        "astId": 2797,
        "contract": "contracts/collections/UnicornDetectiveAgency.sol:UnicornDetectiveAgency",
        "label": "_placeholderURI",
        "offset": 0,
        "slot": "20",
        "type": "t_string_storage"
      },
      {
        "astId": 2799,
        "contract": "contracts/collections/UnicornDetectiveAgency.sol:UnicornDetectiveAgency",
        "label": "_baseTokenURI",
        "offset": 0,
        "slot": "21",
        "type": "t_string_storage"
      },
      {
        "astId": 2801,
        "contract": "contracts/collections/UnicornDetectiveAgency.sol:UnicornDetectiveAgency",
        "label": "_raribleRoyaltyAddress",
        "offset": 0,
        "slot": "22",
        "type": "t_address"
      },
      {
        "astId": 2803,
        "contract": "contracts/collections/UnicornDetectiveAgency.sol:UnicornDetectiveAgency",
        "label": "_openSeaProxyRegistryAddress",
        "offset": 0,
        "slot": "23",
        "type": "t_address"
      },
      {
        "astId": 2806,
        "contract": "contracts/collections/UnicornDetectiveAgency.sol:UnicornDetectiveAgency",
        "label": "_currentTokenId",
        "offset": 0,
        "slot": "24",
        "type": "t_uint256"
      },
      {
        "astId": 2810,
        "contract": "contracts/collections/UnicornDetectiveAgency.sol:UnicornDetectiveAgency",
        "label": "_preSaleAllowList",
        "offset": 0,
        "slot": "25",
        "type": "t_mapping(t_address,t_bool)"
      },
      {
        "astId": 2814,
        "contract": "contracts/collections/UnicornDetectiveAgency.sol:UnicornDetectiveAgency",
        "label": "_preSaleAllowListClaimed",
        "offset": 0,
        "slot": "26",
        "type": "t_mapping(t_address,t_uint256)"
      },
      {
        "astId": 3527,
        "contract": "contracts/collections/UnicornDetectiveAgency.sol:UnicornDetectiveAgency",
        "label": "_episodeAppearances",
        "offset": 0,
        "slot": "27",
        "type": "t_mapping(t_uint256,t_string_storage)"
      }
    ],
    "types": {
      "t_address": {
        "encoding": "inplace",
        "label": "address",
        "numberOfBytes": "20"
      },
      "t_array(t_uint256)dyn_storage": {
        "base": "t_uint256",
        "encoding": "dynamic_array",
        "label": "uint256[]",
        "numberOfBytes": "32"
      },
      "t_bool": {
        "encoding": "inplace",
        "label": "bool",
        "numberOfBytes": "1"
      },
      "t_bytes32": {
        "encoding": "inplace",
        "label": "bytes32",
        "numberOfBytes": "32"
      },
      "t_mapping(t_address,t_bool)": {
        "encoding": "mapping",
        "key": "t_address",
        "label": "mapping(address => bool)",
        "numberOfBytes": "32",
        "value": "t_bool"
      },
      "t_mapping(t_address,t_mapping(t_address,t_bool))": {
        "encoding": "mapping",
        "key": "t_address",
        "label": "mapping(address => mapping(address => bool))",
        "numberOfBytes": "32",
        "value": "t_mapping(t_address,t_bool)"
      },
      "t_mapping(t_address,t_mapping(t_uint256,t_uint256))": {
        "encoding": "mapping",
        "key": "t_address",
        "label": "mapping(address => mapping(uint256 => uint256))",
        "numberOfBytes": "32",
        "value": "t_mapping(t_uint256,t_uint256)"
      },
      "t_mapping(t_address,t_uint256)": {
        "encoding": "mapping",
        "key": "t_address",
        "label": "mapping(address => uint256)",
        "numberOfBytes": "32",
        "value": "t_uint256"
      },
      "t_mapping(t_bytes32,t_struct(RoleData)19_storage)": {
        "encoding": "mapping",
        "key": "t_bytes32",
        "label": "mapping(bytes32 => struct AccessControl.RoleData)",
        "numberOfBytes": "32",
        "value": "t_struct(RoleData)19_storage"
      },
      "t_mapping(t_uint256,t_address)": {
        "encoding": "mapping",
        "key": "t_uint256",
        "label": "mapping(uint256 => address)",
        "numberOfBytes": "32",
        "value": "t_address"
      },
      "t_mapping(t_uint256,t_string_storage)": {
        "encoding": "mapping",
        "key": "t_uint256",
        "label": "mapping(uint256 => string)",
        "numberOfBytes": "32",
        "value": "t_string_storage"
      },
      "t_mapping(t_uint256,t_uint256)": {
        "encoding": "mapping",
        "key": "t_uint256",
        "label": "mapping(uint256 => uint256)",
        "numberOfBytes": "32",
        "value": "t_uint256"
      },
      "t_string_storage": {
        "encoding": "bytes",
        "label": "string",
        "numberOfBytes": "32"
      },
      "t_struct(RoleData)19_storage": {
        "encoding": "inplace",
        "label": "struct AccessControl.RoleData",
        "members": [
          {
            "astId": 16,
            "contract": "contracts/collections/UnicornDetectiveAgency.sol:UnicornDetectiveAgency",
            "label": "members",
            "offset": 0,
            "slot": "0",
            "type": "t_mapping(t_address,t_bool)"
          },
          {
            "astId": 18,
            "contract": "contracts/collections/UnicornDetectiveAgency.sol:UnicornDetectiveAgency",
            "label": "adminRole",
            "offset": 0,
            "slot": "1",
            "type": "t_bytes32"
          }
        ],
        "numberOfBytes": "64"
      },
      "t_uint256": {
        "encoding": "inplace",
        "label": "uint256",
        "numberOfBytes": "32"
      }
    }
  }
}