{
  "address": "0x1e0234193ebF49F1174e431Ab5d8E2F0D31C97fA",
  "abi": [
    {
      "inputs": [
        {
          "internalType": "string",
          "name": "placeholderURI",
          "type": "string"
        },
        {
          "internalType": "address",
          "name": "raribleRoyaltyAddress",
          "type": "address"
        },
        {
          "internalType": "address",
          "name": "openSeaProxyRegistryAddress",
          "type": "address"
        }
      ],
      "stateMutability": "nonpayable",
      "type": "constructor"
    },
    {
      "anonymous": false,
      "inputs": [
        {
          "indexed": true,
          "internalType": "address",
          "name": "owner",
          "type": "address"
        },
        {
          "indexed": true,
          "internalType": "address",
          "name": "approved",
          "type": "address"
        },
        {
          "indexed": true,
          "internalType": "uint256",
          "name": "tokenId",
          "type": "uint256"
        }
      ],
      "name": "Approval",
      "type": "event"
    },
    {
      "anonymous": false,
      "inputs": [
        {
          "indexed": true,
          "internalType": "address",
          "name": "owner",
          "type": "address"
        },
        {
          "indexed": true,
          "internalType": "address",
          "name": "operator",
          "type": "address"
        },
        {
          "indexed": false,
          "internalType": "bool",
          "name": "approved",
          "type": "bool"
        }
      ],
      "name": "ApprovalForAll",
      "type": "event"
    },
    {
      "anonymous": false,
      "inputs": [
        {
          "indexed": true,
          "internalType": "address",
          "name": "previousOwner",
          "type": "address"
        },
        {
          "indexed": true,
          "internalType": "address",
          "name": "newOwner",
          "type": "address"
        }
      ],
      "name": "OwnershipTransferred",
      "type": "event"
    },
    {
      "anonymous": false,
      "inputs": [
        {
          "indexed": true,
          "internalType": "bytes32",
          "name": "role",
          "type": "bytes32"
        },
        {
          "indexed": true,
          "internalType": "bytes32",
          "name": "previousAdminRole",
          "type": "bytes32"
        },
        {
          "indexed": true,
          "internalType": "bytes32",
          "name": "newAdminRole",
          "type": "bytes32"
        }
      ],
      "name": "RoleAdminChanged",
      "type": "event"
    },
    {
      "anonymous": false,
      "inputs": [
        {
          "indexed": true,
          "internalType": "bytes32",
          "name": "role",
          "type": "bytes32"
        },
        {
          "indexed": true,
          "internalType": "address",
          "name": "account",
          "type": "address"
        },
        {
          "indexed": true,
          "internalType": "address",
          "name": "sender",
          "type": "address"
        }
      ],
      "name": "RoleGranted",
      "type": "event"
    },
    {
      "anonymous": false,
      "inputs": [
        {
          "indexed": true,
          "internalType": "bytes32",
          "name": "role",
          "type": "bytes32"
        },
        {
          "indexed": true,
          "internalType": "address",
          "name": "account",
          "type": "address"
        },
        {
          "indexed": true,
          "internalType": "address",
          "name": "sender",
          "type": "address"
        }
      ],
      "name": "RoleRevoked",
      "type": "event"
    },
    {
      "anonymous": false,
      "inputs": [
        {
          "indexed": true,
          "internalType": "address",
          "name": "from",
          "type": "address"
        },
        {
          "indexed": true,
          "internalType": "address",
          "name": "to",
          "type": "address"
        },
        {
          "indexed": true,
          "internalType": "uint256",
          "name": "tokenId",
          "type": "uint256"
        }
      ],
      "name": "Transfer",
      "type": "event"
    },
    {
      "inputs": [],
      "name": "DEFAULT_ADMIN_ROLE",
      "outputs": [
        {
          "internalType": "bytes32",
          "name": "",
          "type": "bytes32"
        }
      ],
      "stateMutability": "view",
      "type": "function"
    },
    {
      "inputs": [],
      "name": "MAX_ALLOWED_GAS_FEE",
      "outputs": [
        {
          "internalType": "uint256",
          "name": "",
          "type": "uint256"
        }
      ],
      "stateMutability": "view",
      "type": "function"
    },
    {
      "inputs": [],
      "name": "MAX_MINT_PER_TRANSACTION",
      "outputs": [
        {
          "internalType": "uint256",
          "name": "",
          "type": "uint256"
        }
      ],
      "stateMutability": "view",
      "type": "function"
    },
    {
      "inputs": [],
      "name": "MAX_PRE_SALE_MINT_PER_ADDRESS",
      "outputs": [
        {
          "internalType": "uint256",
          "name": "",
          "type": "uint256"
        }
      ],
      "stateMutability": "view",
      "type": "function"
    },
    {
      "inputs": [],
      "name": "MAX_TOTAL_MINT",
      "outputs": [
        {
          "internalType": "uint256",
          "name": "",
          "type": "uint256"
        }
      ],
      "stateMutability": "view",
      "type": "function"
    },
    {
      "inputs": [],
      "name": "MINTER_ROLE",
      "outputs": [
        {
          "internalType": "bytes32",
          "name": "",
          "type": "bytes32"
        }
      ],
      "stateMutability": "view",
      "type": "function"
    },
    {
      "inputs": [],
      "name": "PRICE",
      "outputs": [
        {
          "internalType": "uint256",
          "name": "",
          "type": "uint256"
        }
      ],
      "stateMutability": "view",
      "type": "function"
    },
    {
      "inputs": [
        {
          "internalType": "address[]",
          "name": "addresses",
          "type": "address[]"
        }
      ],
      "name": "addToPreSaleAllowList",
      "outputs": [],
      "stateMutability": "nonpayable",
      "type": "function"
    },
    {
      "inputs": [
        {
          "internalType": "address",
          "name": "to",
          "type": "address"
        },
        {
          "internalType": "uint256",
          "name": "tokenId",
          "type": "uint256"
        }
      ],
      "name": "approve",
      "outputs": [],
      "stateMutability": "nonpayable",
      "type": "function"
    },
    {
      "inputs": [
        {
          "internalType": "address",
          "name": "owner",
          "type": "address"
        }
      ],
      "name": "balanceOf",
      "outputs": [
        {
          "internalType": "uint256",
          "name": "",
          "type": "uint256"
        }
      ],
      "stateMutability": "view",
      "type": "function"
    },
    {
      "inputs": [],
      "name": "contractURI",
      "outputs": [
        {
          "internalType": "string",
          "name": "",
          "type": "string"
        }
      ],
      "stateMutability": "view",
      "type": "function"
    },
    {
      "inputs": [
        {
          "internalType": "uint256",
          "name": "tokenId",
          "type": "uint256"
        }
      ],
      "name": "getApproved",
      "outputs": [
        {
          "internalType": "address",
          "name": "",
          "type": "address"
        }
      ],
      "stateMutability": "view",
      "type": "function"
    },
    {
      "inputs": [
        {
          "internalType": "uint256",
          "name": "id",
          "type": "uint256"
        }
      ],
      "name": "getRaribleV2Royalties",
      "outputs": [
        {
          "components": [
            {
              "internalType": "address payable",
              "name": "account",
              "type": "address"
            },
            {
              "internalType": "uint96",
              "name": "value",
              "type": "uint96"
            }
          ],
          "internalType": "struct LibPart.Part[]",
          "name": "result",
          "type": "tuple[]"
        }
      ],
      "stateMutability": "view",
      "type": "function"
    },
    {
      "inputs": [
        {
          "internalType": "bytes32",
          "name": "role",
          "type": "bytes32"
        }
      ],
      "name": "getRoleAdmin",
      "outputs": [
        {
          "internalType": "bytes32",
          "name": "",
          "type": "bytes32"
        }
      ],
      "stateMutability": "view",
      "type": "function"
    },
    {
      "inputs": [
        {
          "internalType": "bytes32",
          "name": "role",
          "type": "bytes32"
        },
        {
          "internalType": "address",
          "name": "account",
          "type": "address"
        }
      ],
      "name": "grantRole",
      "outputs": [],
      "stateMutability": "nonpayable",
      "type": "function"
    },
    {
      "inputs": [
        {
          "internalType": "bytes32",
          "name": "role",
          "type": "bytes32"
        },
        {
          "internalType": "address",
          "name": "account",
          "type": "address"
        }
      ],
      "name": "hasRole",
      "outputs": [
        {
          "internalType": "bool",
          "name": "",
          "type": "bool"
        }
      ],
      "stateMutability": "view",
      "type": "function"
    },
    {
      "inputs": [
        {
          "internalType": "address",
          "name": "owner",
          "type": "address"
        },
        {
          "internalType": "address",
          "name": "operator",
          "type": "address"
        }
      ],
      "name": "isApprovedForAll",
      "outputs": [
        {
          "internalType": "bool",
          "name": "",
          "type": "bool"
        }
      ],
      "stateMutability": "view",
      "type": "function"
    },
    {
      "inputs": [
        {
          "internalType": "address",
          "name": "to",
          "type": "address"
        },
        {
          "internalType": "uint256",
          "name": "count",
          "type": "uint256"
        }
      ],
      "name": "mint",
      "outputs": [],
      "stateMutability": "nonpayable",
      "type": "function"
    },
    {
      "inputs": [],
      "name": "name",
      "outputs": [
        {
          "internalType": "string",
          "name": "",
          "type": "string"
        }
      ],
      "stateMutability": "view",
      "type": "function"
    },
    {
      "inputs": [
        {
          "internalType": "address",
          "name": "addr",
          "type": "address"
        }
      ],
      "name": "onPreSaleAllowList",
      "outputs": [
        {
          "internalType": "bool",
          "name": "",
          "type": "bool"
        }
      ],
      "stateMutability": "view",
      "type": "function"
    },
    {
      "inputs": [],
      "name": "owner",
      "outputs": [
        {
          "internalType": "address",
          "name": "",
          "type": "address"
        }
      ],
      "stateMutability": "view",
      "type": "function"
    },
    {
      "inputs": [
        {
          "internalType": "uint256",
          "name": "tokenId",
          "type": "uint256"
        }
      ],
      "name": "ownerOf",
      "outputs": [
        {
          "internalType": "address",
          "name": "",
          "type": "address"
        }
      ],
      "stateMutability": "view",
      "type": "function"
    },
    {
      "inputs": [
        {
          "internalType": "uint256",
          "name": "count",
          "type": "uint256"
        }
      ],
      "name": "purchase",
      "outputs": [],
      "stateMutability": "payable",
      "type": "function"
    },
    {
      "inputs": [],
      "name": "renounceOwnership",
      "outputs": [],
      "stateMutability": "nonpayable",
      "type": "function"
    },
    {
      "inputs": [
        {
          "internalType": "bytes32",
          "name": "role",
          "type": "bytes32"
        },
        {
          "internalType": "address",
          "name": "account",
          "type": "address"
        }
      ],
      "name": "renounceRole",
      "outputs": [],
      "stateMutability": "nonpayable",
      "type": "function"
    },
    {
      "inputs": [
        {
          "internalType": "bytes32",
          "name": "role",
          "type": "bytes32"
        },
        {
          "internalType": "address",
          "name": "account",
          "type": "address"
        }
      ],
      "name": "revokeRole",
      "outputs": [],
      "stateMutability": "nonpayable",
      "type": "function"
    },
    {
      "inputs": [
        {
          "internalType": "address",
          "name": "from",
          "type": "address"
        },
        {
          "internalType": "address",
          "name": "to",
          "type": "address"
        },
        {
          "internalType": "uint256",
          "name": "tokenId",
          "type": "uint256"
        }
      ],
      "name": "safeTransferFrom",
      "outputs": [],
      "stateMutability": "nonpayable",
      "type": "function"
    },
    {
      "inputs": [
        {
          "internalType": "address",
          "name": "from",
          "type": "address"
        },
        {
          "internalType": "address",
          "name": "to",
          "type": "address"
        },
        {
          "internalType": "uint256",
          "name": "tokenId",
          "type": "uint256"
        },
        {
          "internalType": "bytes",
          "name": "_data",
          "type": "bytes"
        }
      ],
      "name": "safeTransferFrom",
      "outputs": [],
      "stateMutability": "nonpayable",
      "type": "function"
    },
    {
      "inputs": [
        {
          "internalType": "address",
          "name": "operator",
          "type": "address"
        },
        {
          "internalType": "bool",
          "name": "approved",
          "type": "bool"
        }
      ],
      "name": "setApprovalForAll",
      "outputs": [],
      "stateMutability": "nonpayable",
      "type": "function"
    },
    {
      "inputs": [
        {
          "internalType": "string",
          "name": "baseURI",
          "type": "string"
        }
      ],
      "name": "setBaseURI",
      "outputs": [],
      "stateMutability": "nonpayable",
      "type": "function"
    },
    {
      "inputs": [
        {
          "internalType": "string",
          "name": "uri",
          "type": "string"
        }
      ],
      "name": "setContractURI",
      "outputs": [],
      "stateMutability": "nonpayable",
      "type": "function"
    },
    {
      "inputs": [
        {
          "internalType": "uint256",
          "name": "maxFeeGwei",
          "type": "uint256"
        }
      ],
      "name": "setMaxAllowedGasFee",
      "outputs": [],
      "stateMutability": "nonpayable",
      "type": "function"
    },
    {
      "inputs": [
        {
          "internalType": "address",
          "name": "addr",
          "type": "address"
        }
      ],
      "name": "setOpenSeaProxyRegistryAddress",
      "outputs": [],
      "stateMutability": "nonpayable",
      "type": "function"
    },
    {
      "inputs": [
        {
          "internalType": "address",
          "name": "addr",
          "type": "address"
        }
      ],
      "name": "setRaribleRoyaltyAddress",
      "outputs": [],
      "stateMutability": "nonpayable",
      "type": "function"
    },
    {
      "inputs": [
        {
          "internalType": "bytes4",
          "name": "interfaceId",
          "type": "bytes4"
        }
      ],
      "name": "supportsInterface",
      "outputs": [
        {
          "internalType": "bool",
          "name": "",
          "type": "bool"
        }
      ],
      "stateMutability": "view",
      "type": "function"
    },
    {
      "inputs": [],
      "name": "symbol",
      "outputs": [
        {
          "internalType": "string",
          "name": "",
          "type": "string"
        }
      ],
      "stateMutability": "view",
      "type": "function"
    },
    {
      "inputs": [
        {
          "internalType": "bool",
          "name": "isActive",
          "type": "bool"
        }
      ],
      "name": "togglePreSale",
      "outputs": [],
      "stateMutability": "nonpayable",
      "type": "function"
    },
    {
      "inputs": [
        {
          "internalType": "bool",
          "name": "isActive",
          "type": "bool"
        }
      ],
      "name": "togglePublicSale",
      "outputs": [],
      "stateMutability": "nonpayable",
      "type": "function"
    },
    {
      "inputs": [
        {
          "internalType": "bool",
          "name": "isActive",
          "type": "bool"
        }
      ],
      "name": "togglePurchaseEnabled",
      "outputs": [],
      "stateMutability": "nonpayable",
      "type": "function"
    },
    {
      "inputs": [
        {
          "internalType": "uint256",
          "name": "index",
          "type": "uint256"
        }
      ],
      "name": "tokenByIndex",
      "outputs": [
        {
          "internalType": "uint256",
          "name": "",
          "type": "uint256"
        }
      ],
      "stateMutability": "view",
      "type": "function"
    },
    {
      "inputs": [
        {
          "internalType": "address",
          "name": "owner",
          "type": "address"
        },
        {
          "internalType": "uint256",
          "name": "index",
          "type": "uint256"
        }
      ],
      "name": "tokenOfOwnerByIndex",
      "outputs": [
        {
          "internalType": "uint256",
          "name": "",
          "type": "uint256"
        }
      ],
      "stateMutability": "view",
      "type": "function"
    },
    {
      "inputs": [
        {
          "internalType": "uint256",
          "name": "_tokenId",
          "type": "uint256"
        }
      ],
      "name": "tokenURI",
      "outputs": [
        {
          "internalType": "string",
          "name": "",
          "type": "string"
        }
      ],
      "stateMutability": "view",
      "type": "function"
    },
    {
      "inputs": [],
      "name": "totalSupply",
      "outputs": [
        {
          "internalType": "uint256",
          "name": "",
          "type": "uint256"
        }
      ],
      "stateMutability": "view",
      "type": "function"
    },
    {
      "inputs": [
        {
          "internalType": "address",
          "name": "from",
          "type": "address"
        },
        {
          "internalType": "address",
          "name": "to",
          "type": "address"
        },
        {
          "internalType": "uint256",
          "name": "tokenId",
          "type": "uint256"
        }
      ],
      "name": "transferFrom",
      "outputs": [],
      "stateMutability": "nonpayable",
      "type": "function"
    },
    {
      "inputs": [
        {
          "internalType": "address",
          "name": "newOwner",
          "type": "address"
        }
      ],
      "name": "transferOwnership",
      "outputs": [],
      "stateMutability": "nonpayable",
      "type": "function"
    }
  ],
  "transactionHash": "0xf3072b32fa345d215c636e06a1e71be659f823c3c3aaf23de82c35cc6f308e06",
  "args": [
    "ipfs://xxxxxxxxxxxxxxxxxx",
    "0xB68d649F181bDE8A8FeE367535a606Cc3C09fCCd",
    "0xF57B2c51dED3A29e6891aba85459d600256Cf317"
  ],
  "solcInputHash": "9c3b9ed5d294306f9f624f3ceb5e3058",
  "bytecode": "0x608060405260006018553480156200001657600080fd5b50604051620035fe380380620035fe833981016040819052620000399162000371565b6040518060400160405280601981526020017f566973696f6e617279205479636f6f6e7320536f6369657479000000000000008152506040518060400160405280600381526020016256545360e81b81525067011c37937e0800006127106002600a600089898989898160009080519060200190620000ba929190620002ae565b508051620000d0906001906020840190620002ae565b505050620000ed620000e7620001a460201b60201c565b620001a8565b6001600b55600d889055600e879055600f86905560108590556011849055825162000120906013906020860190620002ae565b50601680546001600160a01b038085166001600160a01b03199283161790925560178054928416929091169190911790556200016560006200015f3390565b620001fa565b620001917f9f2df0fed2c77648de5860a4cc508cd0818c85b8b8a1ab4ceeef8d981c8956a6336200015f565b50505050505050505050505050620004c1565b3390565b600a80546001600160a01b038381166001600160a01b0319831681179093556040519116919082907f8be0079c531659141344cd1fd0a4f28419497f9722a3daafe3b4186f6b6457e090600090a35050565b6200020682826200020a565b5050565b6000828152600c602090815260408083206001600160a01b038516845290915290205460ff1662000206576000828152600c602090815260408083206001600160a01b03851684529091529020805460ff191660011790556200026a3390565b6001600160a01b0316816001600160a01b0316837f2f8788117e7eff1d82e926ec794901d17c78024a50270940304540a733656f0d60405160405180910390a45050565b828054620002bc906200046e565b90600052602060002090601f016020900481019282620002e057600085556200032b565b82601f10620002fb57805160ff19168380011785556200032b565b828001600101855582156200032b579182015b828111156200032b5782518255916020019190600101906200030e565b50620003399291506200033d565b5090565b5b808211156200033957600081556001016200033e565b80516001600160a01b03811681146200036c57600080fd5b919050565b60008060006060848603121562000386578283fd5b83516001600160401b03808211156200039d578485fd5b818601915086601f830112620003b1578485fd5b815181811115620003c657620003c6620004ab565b604051601f8201601f19908116603f01168101908382118183101715620003f157620003f1620004ab565b816040528281526020935089848487010111156200040d578788fd5b8791505b8282101562000430578482018401518183018501529083019062000411565b828211156200044157878484830101525b96506200045391505086820162000354565b93505050620004656040850162000354565b90509250925092565b600181811c908216806200048357607f821691505b60208210811415620004a557634e487b7160e01b600052602260045260246000fd5b50919050565b634e487b7160e01b600052604160045260246000fd5b61312d80620004d16000396000f3fe6080604052600436106102025760003560e01c806301ffc9a71461020757806306fdde031461023c578063081812fc1461025e57806308abf0261461028b578063095ea7b3146102ad57806318160ddd146102cd57806323b872dd146102ec5780632439ee561461030c578063248a9ca31461032257806324ef901e1461034257806327ae2b79146103585780632f2ff15d146103785780632f745c591461039857806336568abe146103b85780633b5f2188146103d857806340c10f191461041157806342842e0e146104315780634f6ccce71461045157806355f804b3146104715780636352211e146104915780636a8db7eb146104b157806370a08231146104d1578063715018a6146104f15780638c3cefa3146105065780638d859f3e146105265780638da5cb5b1461053c57806391d1485414610551578063938e3d7b1461057157806395d89b4114610591578063a217fddf146105a6578063a22cb465146105bb578063a279906f146105db578063b88d4fde146105f1578063c87b56dd14610611578063cad96cca14610631578063cf9e8e691461065e578063d35ea45614610674578063d539139314610694578063d547741f146106b6578063e8a3d485146106d6578063e985e9c5146106eb578063efef39a11461070b578063f1ace7191461071e578063f2fde38b1461073e578063f6dc19c81461075e575b600080fd5b34801561021357600080fd5b50610227610222366004612b71565b61077e565b60405190151581526020015b60405180910390f35b34801561024857600080fd5b506102516107b2565b6040516102339190612e19565b34801561026a57600080fd5b5061027e610279366004612b35565b610844565b6040516102339190612d67565b34801561029757600080fd5b506102ab6102a636600461293d565b6108d1565b005b3480156102b957600080fd5b506102ab6102c8366004612a81565b610922565b3480156102d957600080fd5b506008545b604051908152602001610233565b3480156102f857600080fd5b506102ab610307366004612991565b610a33565b34801561031857600080fd5b506102de60115481565b34801561032e57600080fd5b506102de61033d366004612b35565b610a64565b34801561034e57600080fd5b506102de60105481565b34801561036457600080fd5b506102ab610373366004612b35565b610a79565b34801561038457600080fd5b506102ab610393366004612b4d565b610aad565b3480156103a457600080fd5b506102de6103b3366004612a81565b610acb565b3480156103c457600080fd5b506102ab6103d3366004612b4d565b610b64565b3480156103e457600080fd5b506102276103f336600461293d565b6001600160a01b031660009081526019602052604090205460ff1690565b34801561041d57600080fd5b506102ab61042c366004612a81565b610be2565b34801561043d57600080fd5b506102ab61044c366004612991565b610cbe565b34801561045d57600080fd5b506102de61046c366004612b35565b610cd9565b34801561047d57600080fd5b506102ab61048c366004612bc5565b610d7a565b34801561049d57600080fd5b5061027e6104ac366004612b35565b610dbc565b3480156104bd57600080fd5b506102ab6104cc366004612aac565b610e33565b3480156104dd57600080fd5b506102de6104ec36600461293d565b611031565b3480156104fd57600080fd5b506102ab6110b8565b34801561051257600080fd5b506102ab610521366004612b1b565b6110f3565b34801561053257600080fd5b506102de600d5481565b34801561054857600080fd5b5061027e61113c565b34801561055d57600080fd5b5061022761056c366004612b4d565b61114b565b34801561057d57600080fd5b506102ab61058c366004612bc5565b611176565b34801561059d57600080fd5b506102516111b8565b3480156105b257600080fd5b506102de600081565b3480156105c757600080fd5b506102ab6105d6366004612a4d565b6111c7565b3480156105e757600080fd5b506102de600f5481565b3480156105fd57600080fd5b506102ab61060c3660046129d1565b611295565b34801561061d57600080fd5b5061025161062c366004612b35565b6112cd565b34801561063d57600080fd5b5061065161064c366004612b35565b6113a7565b6040516102339190612db8565b34801561066a57600080fd5b506102de600e5481565b34801561068057600080fd5b506102ab61068f366004612b1b565b61147c565b3480156106a057600080fd5b506102de6000805160206130b883398151915281565b3480156106c257600080fd5b506102ab6106d1366004612b4d565b6114be565b3480156106e257600080fd5b506102516114db565b3480156106f757600080fd5b50610227610706366004612959565b6114ea565b6102ab610719366004612b35565b6115be565b34801561072a57600080fd5b506102ab610739366004612b1b565b61175f565b34801561074a57600080fd5b506102ab61075936600461293d565b6117aa565b34801561076a57600080fd5b506102ab61077936600461293d565b61184a565b60006001600160e01b0319821663656cb66560e11b14156107a1575060016107ad565b6107aa8261189b565b90505b919050565b6060600080546107c190612fe0565b80601f01602080910402602001604051908101604052809291908181526020018280546107ed90612fe0565b801561083a5780601f1061080f5761010080835404028352916020019161083a565b820191906000526020600020905b81548152906001019060200180831161081d57829003601f168201915b5050505050905090565b600061084f826118c0565b6108b55760405162461bcd60e51b815260206004820152602c60248201527f4552433732313a20617070726f76656420717565727920666f72206e6f6e657860448201526b34b9ba32b73a103a37b5b2b760a11b60648201526084015b60405180910390fd5b506000908152600460205260409020546001600160a01b031690565b336108da61113c565b6001600160a01b0316146109005760405162461bcd60e51b81526004016108ac90612e7e565b601780546001600160a01b0319166001600160a01b0392909216919091179055565b600061092d82610dbc565b9050806001600160a01b0316836001600160a01b0316141561099b5760405162461bcd60e51b815260206004820152602160248201527f4552433732313a20617070726f76616c20746f2063757272656e74206f776e656044820152603960f91b60648201526084016108ac565b336001600160a01b03821614806109b757506109b78133610706565b610a245760405162461bcd60e51b815260206004820152603860248201527f4552433732313a20617070726f76652063616c6c6572206973206e6f74206f776044820152771b995c881b9bdc88185c1c1c9bdd995908199bdc88185b1b60421b60648201526084016108ac565b610a2e83836118dd565b505050565b610a3d338261194b565b610a595760405162461bcd60e51b81526004016108ac90612eb3565b610a2e838383611a0d565b6000908152600c602052604090206001015490565b33610a8261113c565b6001600160a01b031614610aa85760405162461bcd60e51b81526004016108ac90612e7e565b601155565b610ab682610a64565b610ac181335b611ba6565b610a2e8383611c0a565b6000610ad683611031565b8210610b385760405162461bcd60e51b815260206004820152602b60248201527f455243373231456e756d657261626c653a206f776e657220696e646578206f7560448201526a74206f6620626f756e647360a81b60648201526084016108ac565b506001600160a01b03821660009081526006602090815260408083208484529091529020545b92915050565b6001600160a01b0381163314610bd45760405162461bcd60e51b815260206004820152602f60248201527f416363657373436f6e74726f6c3a2063616e206f6e6c792072656e6f756e636560448201526e103937b632b9903337b91039b2b63360891b60648201526084016108ac565b610bde8282611c90565b5050565b6002600b541415610c055760405162461bcd60e51b81526004016108ac90612f04565b6002600b55610c226000805160206130b88339815191523361114b565b610c6e5760405162461bcd60e51b815260206004820152601f60248201527f424153455f434f4c4c454354494f4e2f4e4f545f4d494e5445525f524f4c450060448201526064016108ac565b610c788282611cf7565b60005b81811015610cb4576000610c8d611eed565b9050610c998482611f03565b610ca1611f1d565b5080610cac8161301b565b915050610c7b565b50506001600b5550565b610a2e83838360405180602001604052806000815250611295565b6000610ce460085490565b8210610d475760405162461bcd60e51b815260206004820152602c60248201527f455243373231456e756d657261626c653a20676c6f62616c20696e646578206f60448201526b7574206f6620626f756e647360a01b60648201526084016108ac565b60088281548110610d6857634e487b7160e01b600052603260045260246000fd5b90600052602060002001549050919050565b33610d8361113c565b6001600160a01b031614610da95760405162461bcd60e51b81526004016108ac90612e7e565b8051610bde90601490602084019061281f565b6000818152600260205260408120546001600160a01b0316806107aa5760405162461bcd60e51b815260206004820152602960248201527f4552433732313a206f776e657220717565727920666f72206e6f6e657869737460448201526832b73a103a37b5b2b760b91b60648201526084016108ac565b33610e3c61113c565b6001600160a01b031614610e625760405162461bcd60e51b81526004016108ac90612e7e565b60005b81811015610a2e576000838383818110610e8f57634e487b7160e01b600052603260045260246000fd5b9050602002016020810190610ea4919061293d565b6001600160a01b03161415610ef85760405162461bcd60e51b815260206004820152601a60248201527943616e27742061646420746865206e756c6c206164647265737360301b60448201526064016108ac565b600160196000858585818110610f1e57634e487b7160e01b600052603260045260246000fd5b9050602002016020810190610f33919061293d565b6001600160a01b0316815260208101919091526040016000908120805460ff191692151592909217909155601a81858585818110610f8157634e487b7160e01b600052603260045260246000fd5b9050602002016020810190610f96919061293d565b6001600160a01b03166001600160a01b031681526020019081526020016000205411610fc357600061101e565b601a6000848484818110610fe757634e487b7160e01b600052603260045260246000fd5b9050602002016020810190610ffc919061293d565b6001600160a01b03166001600160a01b03168152602001908152602001600020545b50806110298161301b565b915050610e65565b60006001600160a01b03821661109c5760405162461bcd60e51b815260206004820152602a60248201527f4552433732313a2062616c616e636520717565727920666f7220746865207a65604482015269726f206164647265737360b01b60648201526084016108ac565b506001600160a01b031660009081526003602052604090205490565b336110c161113c565b6001600160a01b0316146110e75760405162461bcd60e51b81526004016108ac90612e7e565b6110f16000611f34565b565b336110fc61113c565b6001600160a01b0316146111225760405162461bcd60e51b81526004016108ac90612e7e565b601280549115156101000261ff0019909216919091179055565b600a546001600160a01b031690565b6000918252600c602090815260408084206001600160a01b0393909316845291905290205460ff1690565b3361117f61113c565b6001600160a01b0316146111a55760405162461bcd60e51b81526004016108ac90612e7e565b8051610bde90601590602084019061281f565b6060600180546107c190612fe0565b6001600160a01b03821633141561121c5760405162461bcd60e51b815260206004820152601960248201527822a9219b99189d1030b8383937bb32903a379031b0b63632b960391b60448201526064016108ac565b3360008181526005602090815260408083206001600160a01b0387168085529252909120805460ff1916841515179055906001600160a01b03167f17307eab39ab6107e8899845ad3d59bd9653f200f220920489ca2b5937696c3183604051611289911515815260200190565b60405180910390a35050565b61129f338361194b565b6112bb5760405162461bcd60e51b81526004016108ac90612eb3565b6112c784848484611f86565b50505050565b60606000601480546112de90612fe0565b90501161137557601380546112f290612fe0565b80601f016020809104026020016040519081016040528092919081815260200182805461131e90612fe0565b801561136b5780601f106113405761010080835404028352916020019161136b565b820191906000526020600020905b81548152906001019060200180831161134e57829003601f168201915b50505050506107aa565b601461138083611fb9565b604051602001611391929190612c52565b6040516020818303038152906040529050919050565b604080516001808252818301909252606091816020015b60408051808201909152600080825260208201528152602001906001900390816113be57505060165481519192506001600160a01b031690829060009061141557634e487b7160e01b600052603260045260246000fd5b6020026020010151600001906001600160a01b031690816001600160a01b0316815250506127108160008151811061145d57634e487b7160e01b600052603260045260246000fd5b6020908102919091018101516001600160601b03909216910152919050565b3361148561113c565b6001600160a01b0316146114ab5760405162461bcd60e51b81526004016108ac90612e7e565b6012805460ff1916911515919091179055565b6114c782610a64565b6114d18133610abc565b610a2e8383611c90565b6060601580546107c190612fe0565b60175460405163c455279160e01b81526000916001600160a01b039081169190841690829063c455279190611523908890600401612d67565b60206040518083038186803b15801561153b57600080fd5b505afa15801561154f573d6000803e3d6000fd5b505050506040513d601f19601f820116820180604052508101906115739190612ba9565b6001600160a01b0316141561158c576001915050610b5e565b6001600160a01b0380851660009081526005602090815260408083209387168352929052205460ff165b949350505050565b6002600b5414156115e15760405162461bcd60e51b81526004016108ac90612f04565b6002600b55333b156116415760405162461bcd60e51b8152602060048201526024808201527f424153455f434f4c4c454354494f4e2f434f4e54524143545f43414e4e4f545f60448201526310d0531360e21b60648201526084016108ac565b61164b3382611cf7565b60125462010000900460ff166116ad5760405162461bcd60e51b815260206004820152602160248201527f424153455f434f4c4c454354494f4e2f50555243484153455f44495341424c456044820152601160fa1b60648201526084016108ac565b3481600d546116bc9190612f67565b111561171a5760405162461bcd60e51b815260206004820152602760248201527f424153455f434f4c4c454354494f4e2f494e53554646494349454e545f45544860448201526617d05353d5539560ca1b60648201526084016108ac565b60005b8181101561175657600061172f611eed565b905061173b3382611f03565b611743611f1d565b508061174e8161301b565b91505061171d565b50506001600b55565b3361176861113c565b6001600160a01b03161461178e5760405162461bcd60e51b81526004016108ac90612e7e565b60128054911515620100000262ff000019909216919091179055565b336117b361113c565b6001600160a01b0316146117d95760405162461bcd60e51b81526004016108ac90612e7e565b6001600160a01b03811661183e5760405162461bcd60e51b815260206004820152602660248201527f4f776e61626c653a206e6577206f776e657220697320746865207a65726f206160448201526564647265737360d01b60648201526084016108ac565b61184781611f34565b50565b3361185361113c565b6001600160a01b0316146118795760405162461bcd60e51b81526004016108ac90612e7e565b601680546001600160a01b0319166001600160a01b0392909216919091179055565b60006001600160e01b03198216637965db0b60e01b14806107aa57506107aa826120d3565b6000908152600260205260409020546001600160a01b0316151590565b600081815260046020526040902080546001600160a01b0319166001600160a01b038416908117909155819061191282610dbc565b6001600160a01b03167f8c5be1e5ebec7d5bd14f71427d1e84f3dd0314c0f7b2291e5b200ac8c7c3b92560405160405180910390a45050565b6000611956826118c0565b6119b75760405162461bcd60e51b815260206004820152602c60248201527f4552433732313a206f70657261746f7220717565727920666f72206e6f6e657860448201526b34b9ba32b73a103a37b5b2b760a11b60648201526084016108ac565b60006119c283610dbc565b9050806001600160a01b0316846001600160a01b031614806119fd5750836001600160a01b03166119f284610844565b6001600160a01b0316145b806115b657506115b681856114ea565b826001600160a01b0316611a2082610dbc565b6001600160a01b031614611a885760405162461bcd60e51b815260206004820152602960248201527f4552433732313a207472616e73666572206f6620746f6b656e2074686174206960448201526839903737ba1037bbb760b91b60648201526084016108ac565b6001600160a01b038216611aea5760405162461bcd60e51b8152602060048201526024808201527f4552433732313a207472616e7366657220746f20746865207a65726f206164646044820152637265737360e01b60648201526084016108ac565b611af58383836120f8565b611b006000826118dd565b6001600160a01b0383166000908152600360205260408120805460019290611b29908490612f86565b90915550506001600160a01b0382166000908152600360205260408120805460019290611b57908490612f3b565b909155505060008181526002602052604080822080546001600160a01b0319166001600160a01b0386811691821790925591518493918716916000805160206130d883398151915291a4505050565b611bb0828261114b565b610bde57611bc8816001600160a01b031660146121b5565b611bd38360206121b5565b604051602001611be4929190612cf8565b60408051601f198184030181529082905262461bcd60e51b82526108ac91600401612e19565b611c14828261114b565b610bde576000828152600c602090815260408083206001600160a01b03851684529091529020805460ff19166001179055611c4c3390565b6001600160a01b0316816001600160a01b0316837f2f8788117e7eff1d82e926ec794901d17c78024a50270940304540a733656f0d60405160405180910390a45050565b611c9a828261114b565b15610bde576000828152600c602090815260408083206001600160a01b0385168085529252808320805460ff1916905551339285917ff6391f5c32d9c69d2a47ea670b442974b53935d1edc7fd64eb21e047a839171b9190a45050565b601254610100900460ff1680611d63575060125460ff168015611d3257506001600160a01b03821660009081526019602052604090205460ff165b8015611d635750600f546001600160a01b0383166000908152601a6020526040902054611d60908390612f3b565b11155b611dad5760405162461bcd60e51b815260206004820152601b60248201527a109054d157d0d3d3131150d51253d38bd0d0539393d517d3525395602a1b60448201526064016108ac565b60115415611e2057601154611dc690633b9aca00612f67565b3a10611e205760405162461bcd60e51b815260206004820152602360248201527f424153455f434f4c4c454354494f4e2f4741535f4645455f4e4f545f414c4c4f60448201526215d15160ea1b60648201526084016108ac565b600e5481611e2d60085490565b611e379190612f3b565b1115611e905760405162461bcd60e51b815260206004820152602260248201527f424153455f434f4c4c454354494f4e2f455843454544535f4d41585f535550506044820152614c5960f01b60648201526084016108ac565b601054811115610bde5760405162461bcd60e51b815260206004820152602260248201527f424153455f434f4c4c454354494f4e2f455843454544535f4d41585f5045525f6044820152610a8b60f31b60648201526084016108ac565b601854600090611efe90600161239d565b905090565b610bde8282604051806020016040528060008152506123a9565b60188054906000611f2d8361301b565b9190505550565b600a80546001600160a01b038381166001600160a01b0319831681179093556040519116919082907f8be0079c531659141344cd1fd0a4f28419497f9722a3daafe3b4186f6b6457e090600090a35050565b611f91848484611a0d565b611f9d848484846123dc565b6112c75760405162461bcd60e51b81526004016108ac90612e2c565b606081611fde57506040805180820190915260018152600360fc1b60208201526107ad565b8160005b81156120085780611ff28161301b565b91506120019050600a83612f53565b9150611fe2565b6000816001600160401b0381111561203057634e487b7160e01b600052604160045260246000fd5b6040519080825280601f01601f19166020018201604052801561205a576020820181803683370190505b5090505b84156115b65761206f600183612f86565b915061207c600a86613036565b612087906030612f3b565b60f81b8183815181106120aa57634e487b7160e01b600052603260045260246000fd5b60200101906001600160f81b031916908160001a9053506120cc600a86612f53565b945061205e565b60006001600160e01b0319821663780e9d6360e01b14806107aa57506107aa826124e9565b6001600160a01b0383166121535761214e81600880546000838152600960205260408120829055600182018355919091527ff3f7a9fe364faab93b216da50a3214154f22a0a2b415b23a84c8169e8b636ee30155565b612176565b816001600160a01b0316836001600160a01b031614612176576121768382612539565b6001600160a01b0382166121925761218d816125d6565b610a2e565b826001600160a01b0316826001600160a01b031614610a2e57610a2e82826126af565b606060006121c4836002612f67565b6121cf906002612f3b565b6001600160401b038111156121f457634e487b7160e01b600052604160045260246000fd5b6040519080825280601f01601f19166020018201604052801561221e576020820181803683370190505b509050600360fc1b8160008151811061224757634e487b7160e01b600052603260045260246000fd5b60200101906001600160f81b031916908160001a905350600f60fb1b8160018151811061228457634e487b7160e01b600052603260045260246000fd5b60200101906001600160f81b031916908160001a90535060006122a8846002612f67565b6122b3906001612f3b565b90505b6001811115612347576f181899199a1a9b1b9c1cb0b131b232b360811b85600f16601081106122f557634e487b7160e01b600052603260045260246000fd5b1a60f81b82828151811061231957634e487b7160e01b600052603260045260246000fd5b60200101906001600160f81b031916908160001a90535060049490941c9361234081612fc9565b90506122b6565b5083156123965760405162461bcd60e51b815260206004820181905260248201527f537472696e67733a20686578206c656e67746820696e73756666696369656e7460448201526064016108ac565b9392505050565b60006123968284612f3b565b6123b383836126f3565b6123c060008484846123dc565b610a2e5760405162461bcd60e51b81526004016108ac90612e2c565b60006001600160a01b0384163b156124de57604051630a85bd0160e11b81526001600160a01b0385169063150b7a0290612420903390899088908890600401612d7b565b602060405180830381600087803b15801561243a57600080fd5b505af192505050801561246a575060408051601f3d908101601f1916820190925261246791810190612b8d565b60015b6124c4573d808015612498576040519150601f19603f3d011682016040523d82523d6000602084013e61249d565b606091505b5080516124bc5760405162461bcd60e51b81526004016108ac90612e2c565b805181602001fd5b6001600160e01b031916630a85bd0160e11b1490506115b6565b506001949350505050565b60006001600160e01b031982166380ac58cd60e01b148061251a57506001600160e01b03198216635b5e139f60e01b145b806107aa57506301ffc9a760e01b6001600160e01b03198316146107aa565b6000600161254684611031565b6125509190612f86565b6000838152600760205260409020549091508082146125a3576001600160a01b03841660009081526006602090815260408083208584528252808320548484528184208190558352600790915290208190555b5060009182526007602090815260408084208490556001600160a01b039094168352600681528383209183525290812055565b6008546000906125e890600190612f86565b6000838152600960205260408120546008805493945090928490811061261e57634e487b7160e01b600052603260045260246000fd5b90600052602060002001549050806008838154811061264d57634e487b7160e01b600052603260045260246000fd5b600091825260208083209091019290925582815260099091526040808220849055858252812055600880548061269357634e487b7160e01b600052603160045260246000fd5b6001900381819060005260206000200160009055905550505050565b60006126ba83611031565b6001600160a01b039093166000908152600660209081526040808320868452825280832085905593825260079052919091209190915550565b6001600160a01b0382166127495760405162461bcd60e51b815260206004820181905260248201527f4552433732313a206d696e7420746f20746865207a65726f206164647265737360448201526064016108ac565b612752816118c0565b1561279e5760405162461bcd60e51b815260206004820152601c60248201527b115490cdcc8c4e881d1bdad95b88185b1c9958591e481b5a5b9d195960221b60448201526064016108ac565b6127aa600083836120f8565b6001600160a01b03821660009081526003602052604081208054600192906127d3908490612f3b565b909155505060008181526002602052604080822080546001600160a01b0319166001600160a01b03861690811790915590518392906000805160206130d8833981519152908290a45050565b82805461282b90612fe0565b90600052602060002090601f01602090048101928261284d5760008555612893565b82601f1061286657805160ff1916838001178555612893565b82800160010185558215612893579182015b82811115612893578251825591602001919060010190612878565b5061289f9291506128a3565b5090565b5b8082111561289f57600081556001016128a4565b60006001600160401b03808411156128d2576128d2613076565b604051601f8501601f19908116603f011681019082821181831017156128fa576128fa613076565b8160405280935085815286868601111561291357600080fd5b858560208301376000602087830101525050509392505050565b803580151581146107ad57600080fd5b60006020828403121561294e578081fd5b81356123968161308c565b6000806040838503121561296b578081fd5b82356129768161308c565b915060208301356129868161308c565b809150509250929050565b6000806000606084860312156129a5578081fd5b83356129b08161308c565b925060208401356129c08161308c565b929592945050506040919091013590565b600080600080608085870312156129e6578081fd5b84356129f18161308c565b93506020850135612a018161308c565b92506040850135915060608501356001600160401b03811115612a22578182fd5b8501601f81018713612a32578182fd5b612a41878235602084016128b8565b91505092959194509250565b60008060408385031215612a5f578182fd5b8235612a6a8161308c565b9150612a786020840161292d565b90509250929050565b60008060408385031215612a93578182fd5b8235612a9e8161308c565b946020939093013593505050565b60008060208385031215612abe578182fd5b82356001600160401b0380821115612ad4578384fd5b818501915085601f830112612ae7578384fd5b813581811115612af5578485fd5b8660208260051b8501011115612b09578485fd5b60209290920196919550909350505050565b600060208284031215612b2c578081fd5b6123968261292d565b600060208284031215612b46578081fd5b5035919050565b60008060408385031215612b5f578182fd5b8235915060208301356129868161308c565b600060208284031215612b82578081fd5b8135612396816130a1565b600060208284031215612b9e578081fd5b8151612396816130a1565b600060208284031215612bba578081fd5b81516123968161308c565b600060208284031215612bd6578081fd5b81356001600160401b03811115612beb578182fd5b8201601f81018413612bfb578182fd5b6115b6848235602084016128b8565b60008151808452612c22816020860160208601612f9d565b601f01601f19169290920160200192915050565b60008151612c48818560208601612f9d565b9290920192915050565b600080845482600182811c915080831680612c6e57607f831692505b6020808410821415612c8e57634e487b7160e01b87526022600452602487fd5b818015612ca25760018114612cb357612cdf565b60ff19861689528489019650612cdf565b60008b815260209020885b86811015612cd75781548b820152908501908301612cbe565b505084890196505b505050505050612cef8185612c36565b95945050505050565b600076020b1b1b2b9b9a1b7b73a3937b61d1030b1b1b7bab73a1604d1b82528351612d2a816017850160208801612f9d565b7001034b99036b4b9b9b4b733903937b6329607d1b6017918401918201528351612d5b816028840160208801612f9d565b01602801949350505050565b6001600160a01b0391909116815260200190565b6001600160a01b0385811682528416602082015260408101839052608060608201819052600090612dae90830184612c0a565b9695505050505050565b602080825282518282018190526000919060409081850190868401855b82811015612e0c57815180516001600160a01b031685528601516001600160601b0316868501529284019290850190600101612dd5565b5091979650505050505050565b6000602082526123966020830184612c0a565b60208082526032908201527f4552433732313a207472616e7366657220746f206e6f6e20455243373231526560408201527131b2b4bb32b91034b6b83632b6b2b73a32b960711b606082015260800190565b6020808252818101527f4f776e61626c653a2063616c6c6572206973206e6f7420746865206f776e6572604082015260600190565b60208082526031908201527f4552433732313a207472616e736665722063616c6c6572206973206e6f74206f6040820152701ddb995c881b9bdc88185c1c1c9bdd9959607a1b606082015260800190565b6020808252601f908201527f5265656e7472616e637947756172643a207265656e7472616e742063616c6c00604082015260600190565b60008219821115612f4e57612f4e61304a565b500190565b600082612f6257612f62613060565b500490565b6000816000190483118215151615612f8157612f8161304a565b500290565b600082821015612f9857612f9861304a565b500390565b60005b83811015612fb8578181015183820152602001612fa0565b838111156112c75750506000910152565b600081612fd857612fd861304a565b506000190190565b600181811c90821680612ff457607f821691505b6020821081141561301557634e487b7160e01b600052602260045260246000fd5b50919050565b600060001982141561302f5761302f61304a565b5060010190565b60008261304557613045613060565b500690565b634e487b7160e01b600052601160045260246000fd5b634e487b7160e01b600052601260045260246000fd5b634e487b7160e01b600052604160045260246000fd5b6001600160a01b038116811461184757600080fd5b6001600160e01b03198116811461184757600080fdfe9f2df0fed2c77648de5860a4cc508cd0818c85b8b8a1ab4ceeef8d981c8956a6ddf252ad1be2c89b69c2b068fc378daa952ba7f163c4a11628f55a4df523b3efa26469706673582212200245e60eeb6234e3aeb45bd5b3409f1fcf6635d9bcf484d254f20e68d99cfedb64736f6c63430008030033",
  "devdoc": {
    "kind": "dev",
    "methods": {
      "approve(address,uint256)": {
        "details": "See {IERC721-approve}."
      },
      "balanceOf(address)": {
        "details": "See {IERC721-balanceOf}."
      },
      "getApproved(uint256)": {
        "details": "See {IERC721-getApproved}."
      },
      "getRoleAdmin(bytes32)": {
        "details": "Returns the admin role that controls `role`. See {grantRole} and {revokeRole}. To change a role's admin, use {_setRoleAdmin}."
      },
      "grantRole(bytes32,address)": {
        "details": "Grants `role` to `account`. If `account` had not been already granted `role`, emits a {RoleGranted} event. Requirements: - the caller must have ``role``'s admin role."
      },
      "hasRole(bytes32,address)": {
        "details": "Returns `true` if `account` has been granted `role`."
      },
      "name()": {
        "details": "See {IERC721Metadata-name}."
      },
      "owner()": {
        "details": "Returns the address of the current owner."
      },
      "ownerOf(uint256)": {
        "details": "See {IERC721-ownerOf}."
      },
      "renounceOwnership()": {
        "details": "Leaves the contract without owner. It will not be possible to call `onlyOwner` functions anymore. Can only be called by the current owner. NOTE: Renouncing ownership will leave the contract without an owner, thereby removing any functionality that is only available to the owner."
      },
      "renounceRole(bytes32,address)": {
        "details": "Revokes `role` from the calling account. Roles are often managed via {grantRole} and {revokeRole}: this function's purpose is to provide a mechanism for accounts to lose their privileges if they are compromised (such as when a trusted device is misplaced). If the calling account had been granted `role`, emits a {RoleRevoked} event. Requirements: - the caller must be `account`."
      },
      "revokeRole(bytes32,address)": {
        "details": "Revokes `role` from `account`. If `account` had been granted `role`, emits a {RoleRevoked} event. Requirements: - the caller must have ``role``'s admin role."
      },
      "safeTransferFrom(address,address,uint256)": {
        "details": "See {IERC721-safeTransferFrom}."
      },
      "safeTransferFrom(address,address,uint256,bytes)": {
        "details": "See {IERC721-safeTransferFrom}."
      },
      "setApprovalForAll(address,bool)": {
        "details": "See {IERC721-setApprovalForAll}."
      },
      "supportsInterface(bytes4)": {
        "details": "See {IERC165-supportsInterface}."
      },
      "symbol()": {
        "details": "See {IERC721Metadata-symbol}."
      },
      "tokenByIndex(uint256)": {
        "details": "See {IERC721Enumerable-tokenByIndex}."
      },
      "tokenOfOwnerByIndex(address,uint256)": {
        "details": "See {IERC721Enumerable-tokenOfOwnerByIndex}."
      },
      "totalSupply()": {
        "details": "See {IERC721Enumerable-totalSupply}."
      },
      "transferFrom(address,address,uint256)": {
        "details": "See {IERC721-transferFrom}."
      },
      "transferOwnership(address)": {
        "details": "Transfers ownership of the contract to a new account (`newOwner`). Can only be called by the current owner."
      }
    },
    "version": 1
  },
  "userdoc": {
    "kind": "user",
    "methods": {
      "isApprovedForAll(address,address)": {
        "notice": "Override isApprovedForAll to whitelist user's OpenSea proxy accounts to enable gas-less listings."
      },
      "mint(address,uint256)": {
        "notice": "Mints a specified number of tokens to an address without requiring payment. Caller must be an address with MINTER role. Useful for gifting by owner or integration with Flair.Finance funding options."
      },
      "purchase(uint256)": {
        "notice": "Accepts required payment and mints a specified number of tokens to an address. This method also checks if direct purchase is enabled."
      }
    },
    "version": 1
  },
  "storageLayout": {
    "storage": [
      {
        "astId": 549,
        "contract": "contracts/VisionaryTycoonsSociety.sol:VisionaryTycoonsSociety",
        "label": "_name",
        "offset": 0,
        "slot": "0",
        "type": "t_string_storage"
      },
      {
        "astId": 551,
        "contract": "contracts/VisionaryTycoonsSociety.sol:VisionaryTycoonsSociety",
        "label": "_symbol",
        "offset": 0,
        "slot": "1",
        "type": "t_string_storage"
      },
      {
        "astId": 555,
        "contract": "contracts/VisionaryTycoonsSociety.sol:VisionaryTycoonsSociety",
        "label": "_owners",
        "offset": 0,
        "slot": "2",
        "type": "t_mapping(t_uint256,t_address)"
      },
      {
        "astId": 559,
        "contract": "contracts/VisionaryTycoonsSociety.sol:VisionaryTycoonsSociety",
        "label": "_balances",
        "offset": 0,
        "slot": "3",
        "type": "t_mapping(t_address,t_uint256)"
      },
      {
        "astId": 563,
        "contract": "contracts/VisionaryTycoonsSociety.sol:VisionaryTycoonsSociety",
        "label": "_tokenApprovals",
        "offset": 0,
        "slot": "4",
        "type": "t_mapping(t_uint256,t_address)"
      },
      {
        "astId": 569,
        "contract": "contracts/VisionaryTycoonsSociety.sol:VisionaryTycoonsSociety",
        "label": "_operatorApprovals",
        "offset": 0,
        "slot": "5",
        "type": "t_mapping(t_address,t_mapping(t_address,t_bool))"
      },
      {
        "astId": 1488,
        "contract": "contracts/VisionaryTycoonsSociety.sol:VisionaryTycoonsSociety",
        "label": "_ownedTokens",
        "offset": 0,
        "slot": "6",
        "type": "t_mapping(t_address,t_mapping(t_uint256,t_uint256))"
      },
      {
        "astId": 1492,
        "contract": "contracts/VisionaryTycoonsSociety.sol:VisionaryTycoonsSociety",
        "label": "_ownedTokensIndex",
        "offset": 0,
        "slot": "7",
        "type": "t_mapping(t_uint256,t_uint256)"
      },
      {
        "astId": 1495,
        "contract": "contracts/VisionaryTycoonsSociety.sol:VisionaryTycoonsSociety",
        "label": "_allTokens",
        "offset": 0,
        "slot": "8",
        "type": "t_array(t_uint256)dyn_storage"
      },
      {
        "astId": 1499,
        "contract": "contracts/VisionaryTycoonsSociety.sol:VisionaryTycoonsSociety",
        "label": "_allTokensIndex",
        "offset": 0,
        "slot": "9",
        "type": "t_mapping(t_uint256,t_uint256)"
      },
      {
        "astId": 387,
        "contract": "contracts/VisionaryTycoonsSociety.sol:VisionaryTycoonsSociety",
        "label": "_owner",
        "offset": 0,
        "slot": "10",
        "type": "t_address"
      },
      {
        "astId": 494,
        "contract": "contracts/VisionaryTycoonsSociety.sol:VisionaryTycoonsSociety",
        "label": "_status",
        "offset": 0,
        "slot": "11",
        "type": "t_uint256"
      },
      {
        "astId": 24,
        "contract": "contracts/VisionaryTycoonsSociety.sol:VisionaryTycoonsSociety",
        "label": "_roles",
        "offset": 0,
        "slot": "12",
        "type": "t_mapping(t_bytes32,t_struct(RoleData)19_storage)"
      },
      {
        "astId": 2779,
        "contract": "contracts/VisionaryTycoonsSociety.sol:VisionaryTycoonsSociety",
        "label": "PRICE",
        "offset": 0,
        "slot": "13",
        "type": "t_uint256"
      },
      {
        "astId": 2781,
        "contract": "contracts/VisionaryTycoonsSociety.sol:VisionaryTycoonsSociety",
        "label": "MAX_TOTAL_MINT",
        "offset": 0,
        "slot": "14",
        "type": "t_uint256"
      },
      {
        "astId": 2783,
        "contract": "contracts/VisionaryTycoonsSociety.sol:VisionaryTycoonsSociety",
        "label": "MAX_PRE_SALE_MINT_PER_ADDRESS",
        "offset": 0,
        "slot": "15",
        "type": "t_uint256"
      },
      {
        "astId": 2785,
        "contract": "contracts/VisionaryTycoonsSociety.sol:VisionaryTycoonsSociety",
        "label": "MAX_MINT_PER_TRANSACTION",
        "offset": 0,
        "slot": "16",
        "type": "t_uint256"
      },
      {
        "astId": 2787,
        "contract": "contracts/VisionaryTycoonsSociety.sol:VisionaryTycoonsSociety",
        "label": "MAX_ALLOWED_GAS_FEE",
        "offset": 0,
        "slot": "17",
        "type": "t_uint256"
      },
      {
        "astId": 2789,
        "contract": "contracts/VisionaryTycoonsSociety.sol:VisionaryTycoonsSociety",
        "label": "_isPreSaleActive",
        "offset": 0,
        "slot": "18",
        "type": "t_bool"
      },
      {
        "astId": 2791,
        "contract": "contracts/VisionaryTycoonsSociety.sol:VisionaryTycoonsSociety",
        "label": "_isPublicSaleActive",
        "offset": 1,
        "slot": "18",
        "type": "t_bool"
      },
      {
        "astId": 2793,
        "contract": "contracts/VisionaryTycoonsSociety.sol:VisionaryTycoonsSociety",
        "label": "_isPurchaseEnabled",
        "offset": 2,
        "slot": "18",
        "type": "t_bool"
      },
      {
        "astId": 2795,
        "contract": "contracts/VisionaryTycoonsSociety.sol:VisionaryTycoonsSociety",
        "label": "_placeholderURI",
        "offset": 0,
        "slot": "19",
        "type": "t_string_storage"
      },
      {
        "astId": 2797,
        "contract": "contracts/VisionaryTycoonsSociety.sol:VisionaryTycoonsSociety",
        "label": "_baseTokenURI",
        "offset": 0,
        "slot": "20",
        "type": "t_string_storage"
      },
      {
        "astId": 2799,
        "contract": "contracts/VisionaryTycoonsSociety.sol:VisionaryTycoonsSociety",
        "label": "_contractURI",
        "offset": 0,
        "slot": "21",
        "type": "t_string_storage"
      },
      {
        "astId": 2801,
        "contract": "contracts/VisionaryTycoonsSociety.sol:VisionaryTycoonsSociety",
        "label": "_raribleRoyaltyAddress",
        "offset": 0,
        "slot": "22",
        "type": "t_address"
      },
      {
        "astId": 2803,
        "contract": "contracts/VisionaryTycoonsSociety.sol:VisionaryTycoonsSociety",
        "label": "_openSeaProxyRegistryAddress",
        "offset": 0,
        "slot": "23",
        "type": "t_address"
      },
      {
        "astId": 2806,
        "contract": "contracts/VisionaryTycoonsSociety.sol:VisionaryTycoonsSociety",
        "label": "_currentTokenId",
        "offset": 0,
        "slot": "24",
        "type": "t_uint256"
      },
      {
        "astId": 2810,
        "contract": "contracts/VisionaryTycoonsSociety.sol:VisionaryTycoonsSociety",
        "label": "_preSaleAllowList",
        "offset": 0,
        "slot": "25",
        "type": "t_mapping(t_address,t_bool)"
      },
      {
        "astId": 2814,
        "contract": "contracts/VisionaryTycoonsSociety.sol:VisionaryTycoonsSociety",
        "label": "_preSaleAllowListClaimed",
        "offset": 0,
        "slot": "26",
        "type": "t_mapping(t_address,t_uint256)"
      }
    ],
    "types": {
      "t_address": {
        "encoding": "inplace",
        "label": "address",
        "numberOfBytes": "20"
      },
      "t_array(t_uint256)dyn_storage": {
        "base": "t_uint256",
        "encoding": "dynamic_array",
        "label": "uint256[]",
        "numberOfBytes": "32"
      },
      "t_bool": {
        "encoding": "inplace",
        "label": "bool",
        "numberOfBytes": "1"
      },
      "t_bytes32": {
        "encoding": "inplace",
        "label": "bytes32",
        "numberOfBytes": "32"
      },
      "t_mapping(t_address,t_bool)": {
        "encoding": "mapping",
        "key": "t_address",
        "label": "mapping(address => bool)",
        "numberOfBytes": "32",
        "value": "t_bool"
      },
      "t_mapping(t_address,t_mapping(t_address,t_bool))": {
        "encoding": "mapping",
        "key": "t_address",
        "label": "mapping(address => mapping(address => bool))",
        "numberOfBytes": "32",
        "value": "t_mapping(t_address,t_bool)"
      },
      "t_mapping(t_address,t_mapping(t_uint256,t_uint256))": {
        "encoding": "mapping",
        "key": "t_address",
        "label": "mapping(address => mapping(uint256 => uint256))",
        "numberOfBytes": "32",
        "value": "t_mapping(t_uint256,t_uint256)"
      },
      "t_mapping(t_address,t_uint256)": {
        "encoding": "mapping",
        "key": "t_address",
        "label": "mapping(address => uint256)",
        "numberOfBytes": "32",
        "value": "t_uint256"
      },
      "t_mapping(t_bytes32,t_struct(RoleData)19_storage)": {
        "encoding": "mapping",
        "key": "t_bytes32",
        "label": "mapping(bytes32 => struct AccessControl.RoleData)",
        "numberOfBytes": "32",
        "value": "t_struct(RoleData)19_storage"
      },
      "t_mapping(t_uint256,t_address)": {
        "encoding": "mapping",
        "key": "t_uint256",
        "label": "mapping(uint256 => address)",
        "numberOfBytes": "32",
        "value": "t_address"
      },
      "t_mapping(t_uint256,t_uint256)": {
        "encoding": "mapping",
        "key": "t_uint256",
        "label": "mapping(uint256 => uint256)",
        "numberOfBytes": "32",
        "value": "t_uint256"
      },
      "t_string_storage": {
        "encoding": "bytes",
        "label": "string",
        "numberOfBytes": "32"
      },
      "t_struct(RoleData)19_storage": {
        "encoding": "inplace",
        "label": "struct AccessControl.RoleData",
        "members": [
          {
            "astId": 16,
            "contract": "contracts/VisionaryTycoonsSociety.sol:VisionaryTycoonsSociety",
            "label": "members",
            "offset": 0,
            "slot": "0",
            "type": "t_mapping(t_address,t_bool)"
          },
          {
            "astId": 18,
            "contract": "contracts/VisionaryTycoonsSociety.sol:VisionaryTycoonsSociety",
            "label": "adminRole",
            "offset": 0,
            "slot": "1",
            "type": "t_bytes32"
          }
        ],
        "numberOfBytes": "64"
      },
      "t_uint256": {
        "encoding": "inplace",
        "label": "uint256",
        "numberOfBytes": "32"
      }
    }
  }
}